{
  "contractName": "Ticket",
  "abi": [
    {
      "inputs": [
        {
          "internalType": "address[]",
          "name": "_owners",
          "type": "address[]"
        }
      ],
      "stateMutability": "nonpayable",
      "type": "constructor"
    },
    {
      "anonymous": false,
      "inputs": [
        {
          "indexed": true,
          "internalType": "address",
          "name": "sender",
          "type": "address"
        },
        {
          "indexed": true,
          "internalType": "address",
          "name": "newOwner",
          "type": "address"
        }
      ],
      "name": "addOwner",
      "type": "event"
    },
    {
      "anonymous": false,
      "inputs": [
        {
          "indexed": true,
          "internalType": "address",
          "name": "sender",
          "type": "address"
        },
        {
          "indexed": true,
          "internalType": "uint256",
          "name": "id",
          "type": "uint256"
        }
      ],
      "name": "buyTicket",
      "type": "event"
    },
    {
      "anonymous": false,
      "inputs": [
        {
          "indexed": true,
          "internalType": "address",
          "name": "owner",
          "type": "address"
        },
        {
          "indexed": true,
          "internalType": "uint256",
          "name": "id",
          "type": "uint256"
        },
        {
          "indexed": false,
          "internalType": "uint256",
          "name": "_ticketCount",
          "type": "uint256"
        },
        {
          "indexed": false,
          "internalType": "uint256",
          "name": "_price",
          "type": "uint256"
        },
        {
          "indexed": false,
          "internalType": "bytes32",
          "name": "_date",
          "type": "bytes32"
        },
        {
          "indexed": false,
          "internalType": "bytes32",
          "name": "_name",
          "type": "bytes32"
        },
        {
          "indexed": false,
          "internalType": "bytes32",
          "name": "_location",
          "type": "bytes32"
        },
        {
          "indexed": false,
          "internalType": "bytes32",
          "name": "_city",
          "type": "bytes32"
        },
        {
          "indexed": false,
          "internalType": "bytes",
          "name": "_description",
          "type": "bytes"
        },
        {
          "indexed": false,
          "internalType": "bytes32",
          "name": "_category",
          "type": "bytes32"
        },
        {
          "indexed": false,
          "internalType": "bool",
          "name": "_isActive",
          "type": "bool"
        }
      ],
      "name": "createEvent",
      "type": "event"
    },
    {
      "anonymous": false,
      "inputs": [
        {
          "indexed": true,
          "internalType": "address",
          "name": "owner",
          "type": "address"
        },
        {
          "indexed": true,
          "internalType": "uint256",
          "name": "id",
          "type": "uint256"
        }
      ],
      "name": "deleteEvent",
      "type": "event"
    },
    {
      "anonymous": false,
      "inputs": [
        {
          "indexed": true,
          "internalType": "address",
          "name": "sender",
          "type": "address"
        },
        {
          "indexed": true,
          "internalType": "address",
          "name": "deletedAddress",
          "type": "address"
        }
      ],
      "name": "deleteOwner",
      "type": "event"
    },
    {
      "anonymous": false,
      "inputs": [
        {
          "indexed": true,
          "internalType": "address",
          "name": "owner",
          "type": "address"
        },
        {
          "indexed": true,
          "internalType": "uint256",
          "name": "id",
          "type": "uint256"
        }
      ],
      "name": "editEvent",
      "type": "event"
    },
    {
      "anonymous": false,
      "inputs": [
        {
          "indexed": true,
          "internalType": "address",
          "name": "_from",
          "type": "address"
        },
        {
          "indexed": true,
          "internalType": "address",
          "name": "_to",
          "type": "address"
        }
      ],
      "name": "withdraw",
      "type": "event"
    },
    {
      "inputs": [
        {
          "internalType": "uint256",
          "name": "",
          "type": "uint256"
        }
      ],
      "name": "events",
      "outputs": [
        {
          "internalType": "uint256",
          "name": "id",
          "type": "uint256"
        },
        {
          "internalType": "uint256",
          "name": "ticketCount",
          "type": "uint256"
        },
        {
          "internalType": "uint256",
          "name": "price",
          "type": "uint256"
        },
        {
          "internalType": "bytes32",
          "name": "date",
          "type": "bytes32"
        },
        {
          "internalType": "bytes32",
          "name": "name",
          "type": "bytes32"
        },
        {
          "internalType": "bytes32",
          "name": "location",
          "type": "bytes32"
        },
        {
          "internalType": "bytes32",
          "name": "city",
          "type": "bytes32"
        },
        {
          "internalType": "bytes32",
          "name": "category",
          "type": "bytes32"
        },
        {
          "internalType": "bytes",
          "name": "description",
          "type": "bytes"
        },
        {
          "internalType": "bool",
          "name": "isActive",
          "type": "bool"
        }
      ],
      "stateMutability": "view",
      "type": "function",
      "constant": true
    },
    {
      "inputs": [
        {
          "internalType": "uint256",
          "name": "",
          "type": "uint256"
        }
      ],
      "name": "findEvent",
      "outputs": [
        {
          "internalType": "uint256",
          "name": "id",
          "type": "uint256"
        },
        {
          "internalType": "uint256",
          "name": "ticketCount",
          "type": "uint256"
        },
        {
          "internalType": "uint256",
          "name": "price",
          "type": "uint256"
        },
        {
          "internalType": "bytes32",
          "name": "date",
          "type": "bytes32"
        },
        {
          "internalType": "bytes32",
          "name": "name",
          "type": "bytes32"
        },
        {
          "internalType": "bytes32",
          "name": "location",
          "type": "bytes32"
        },
        {
          "internalType": "bytes32",
          "name": "city",
          "type": "bytes32"
        },
        {
          "internalType": "bytes32",
          "name": "category",
          "type": "bytes32"
        },
        {
          "internalType": "bytes",
          "name": "description",
          "type": "bytes"
        },
        {
          "internalType": "bool",
          "name": "isActive",
          "type": "bool"
        }
      ],
      "stateMutability": "view",
      "type": "function",
      "constant": true
    },
    {
      "inputs": [
        {
          "internalType": "address",
          "name": "",
          "type": "address"
        }
      ],
      "name": "isOwner",
      "outputs": [
        {
          "internalType": "bool",
          "name": "",
          "type": "bool"
        }
      ],
      "stateMutability": "view",
      "type": "function",
      "constant": true
    },
    {
      "inputs": [
        {
          "internalType": "uint256",
          "name": "",
          "type": "uint256"
        }
      ],
      "name": "owners",
      "outputs": [
        {
          "internalType": "address",
          "name": "",
          "type": "address"
        }
      ],
      "stateMutability": "view",
      "type": "function",
      "constant": true
    },
    {
      "inputs": [
        {
          "internalType": "address",
          "name": "",
          "type": "address"
        },
        {
          "internalType": "uint256",
          "name": "",
          "type": "uint256"
        }
      ],
      "name": "userEvents",
      "outputs": [
        {
          "internalType": "uint256",
          "name": "",
          "type": "uint256"
        }
      ],
      "stateMutability": "view",
      "type": "function",
      "constant": true
    },
    {
      "inputs": [],
      "name": "GetOwners",
      "outputs": [
        {
          "internalType": "address[]",
          "name": "",
          "type": "address[]"
        }
      ],
      "stateMutability": "view",
      "type": "function",
      "constant": true
    },
    {
      "inputs": [
        {
          "internalType": "address",
          "name": "_address",
          "type": "address"
        }
      ],
      "name": "GetUserEvents",
      "outputs": [
        {
          "internalType": "uint256[]",
          "name": "",
          "type": "uint256[]"
        }
      ],
      "stateMutability": "view",
      "type": "function",
      "constant": true
    },
    {
      "inputs": [
        {
          "internalType": "uint256",
          "name": "_ticketCount",
          "type": "uint256"
        },
        {
          "internalType": "uint256",
          "name": "_price",
          "type": "uint256"
        },
        {
          "internalType": "bytes32",
          "name": "_date",
          "type": "bytes32"
        },
        {
          "internalType": "bytes32",
          "name": "_name",
          "type": "bytes32"
        },
        {
          "internalType": "bytes32",
          "name": "_location",
          "type": "bytes32"
        },
        {
          "internalType": "bytes32",
          "name": "_city",
          "type": "bytes32"
        },
        {
          "internalType": "bytes",
          "name": "_description",
          "type": "bytes"
        },
        {
          "internalType": "bytes32",
          "name": "_category",
          "type": "bytes32"
        },
        {
          "internalType": "bool",
          "name": "_isActive",
          "type": "bool"
        }
      ],
      "name": "CreateEvent",
      "outputs": [],
      "stateMutability": "nonpayable",
      "type": "function"
    },
    {
      "inputs": [
        {
          "internalType": "uint256",
          "name": "id",
          "type": "uint256"
        }
      ],
      "name": "GetEvent",
      "outputs": [
        {
          "internalType": "uint256",
          "name": "",
          "type": "uint256"
        },
        {
          "internalType": "uint256",
          "name": "",
          "type": "uint256"
        },
        {
          "internalType": "uint256",
          "name": "",
          "type": "uint256"
        },
        {
          "internalType": "bytes32",
          "name": "",
          "type": "bytes32"
        },
        {
          "internalType": "bytes32",
          "name": "",
          "type": "bytes32"
        },
        {
          "internalType": "bytes32",
          "name": "",
          "type": "bytes32"
        },
        {
          "internalType": "bytes32",
          "name": "",
          "type": "bytes32"
        },
        {
          "internalType": "bytes32",
          "name": "",
          "type": "bytes32"
        },
        {
          "internalType": "bytes",
          "name": "",
          "type": "bytes"
        },
        {
          "internalType": "bool",
          "name": "",
          "type": "bool"
        }
      ],
      "stateMutability": "view",
      "type": "function",
      "constant": true
    },
    {
      "inputs": [],
      "name": "GetEvents",
      "outputs": [
        {
          "components": [
            {
              "internalType": "uint256",
              "name": "id",
              "type": "uint256"
            },
            {
              "internalType": "uint256",
              "name": "ticketCount",
              "type": "uint256"
            },
            {
              "internalType": "uint256",
              "name": "price",
              "type": "uint256"
            },
            {
              "internalType": "bytes32",
              "name": "date",
              "type": "bytes32"
            },
            {
              "internalType": "bytes32",
              "name": "name",
              "type": "bytes32"
            },
            {
              "internalType": "bytes32",
              "name": "location",
              "type": "bytes32"
            },
            {
              "internalType": "bytes32",
              "name": "city",
              "type": "bytes32"
            },
            {
              "internalType": "bytes32",
              "name": "category",
              "type": "bytes32"
            },
            {
              "internalType": "bytes",
              "name": "description",
              "type": "bytes"
            },
            {
              "internalType": "bool",
              "name": "isActive",
              "type": "bool"
            }
          ],
          "internalType": "struct Ticket.EventInfo[]",
          "name": "",
          "type": "tuple[]"
        }
      ],
      "stateMutability": "view",
      "type": "function",
      "constant": true
    },
    {
      "inputs": [
        {
          "internalType": "uint256",
          "name": "id",
          "type": "uint256"
        }
      ],
      "name": "DeleteEvent",
      "outputs": [],
      "stateMutability": "nonpayable",
      "type": "function"
    },
    {
      "inputs": [
        {
          "internalType": "uint256",
          "name": "id",
          "type": "uint256"
        },
        {
          "internalType": "uint256",
          "name": "_ticketCount",
          "type": "uint256"
        },
        {
          "internalType": "uint256",
          "name": "_price",
          "type": "uint256"
        },
        {
          "internalType": "bytes32",
          "name": "_date",
          "type": "bytes32"
        },
        {
          "internalType": "bytes32",
          "name": "_name",
          "type": "bytes32"
        },
        {
          "internalType": "bytes32",
          "name": "_location",
          "type": "bytes32"
        },
        {
          "internalType": "bytes32",
          "name": "_city",
          "type": "bytes32"
        },
        {
          "internalType": "bytes",
          "name": "_description",
          "type": "bytes"
        },
        {
          "internalType": "bytes32",
          "name": "_category",
          "type": "bytes32"
        },
        {
          "internalType": "bool",
          "name": "_isActive",
          "type": "bool"
        }
      ],
      "name": "EditEvent",
      "outputs": [],
      "stateMutability": "nonpayable",
      "type": "function"
    },
    {
      "inputs": [
        {
          "internalType": "uint256",
          "name": "id",
          "type": "uint256"
        }
      ],
      "name": "BuyTicket",
      "outputs": [],
      "stateMutability": "payable",
      "type": "function",
      "payable": true
    },
    {
      "inputs": [
        {
          "internalType": "address payable",
          "name": "_to",
          "type": "address"
        }
      ],
      "name": "Withdraw",
      "outputs": [],
      "stateMutability": "nonpayable",
      "type": "function"
    },
    {
      "inputs": [
        {
          "internalType": "address",
          "name": "_newOwner",
          "type": "address"
        }
      ],
      "name": "AddOwner",
      "outputs": [],
      "stateMutability": "nonpayable",
      "type": "function"
    },
    {
      "inputs": [
        {
          "internalType": "address",
          "name": "_owner",
          "type": "address"
        },
        {
          "internalType": "uint256",
          "name": "index",
          "type": "uint256"
        }
      ],
      "name": "DeleteOwner",
      "outputs": [],
      "stateMutability": "nonpayable",
      "type": "function"
    },
    {
      "inputs": [
        {
          "internalType": "address",
          "name": "_address",
          "type": "address"
        }
      ],
      "name": "IsOwner",
      "outputs": [
        {
          "internalType": "bool",
          "name": "",
          "type": "bool"
        }
      ],
      "stateMutability": "view",
      "type": "function",
      "constant": true
    }
  ],
  "bytecode": "0x60806040523480156200001157600080fd5b506040516200320238038062003202833981810160405281019062000037919062000320565b60005b81518110156200025f57600082828151811062000080577f4e487b7100000000000000000000000000000000000000000000000000000000600052603260045260246000fd5b60200260200101519050600073ffffffffffffffffffffffffffffffffffffffff168173ffffffffffffffffffffffffffffffffffffffff161415620000fd576040517f08c379a0000000000000000000000000000000000000000000000000000000008152600401620000f490620003b3565b60405180910390fd5b600260008273ffffffffffffffffffffffffffffffffffffffff1673ffffffffffffffffffffffffffffffffffffffff16815260200190815260200160002060009054906101000a900460ff16156200018d576040517f08c379a00000000000000000000000000000000000000000000000000000000081526004016200018490620003d5565b60405180910390fd5b6001600260008373ffffffffffffffffffffffffffffffffffffffff1673ffffffffffffffffffffffffffffffffffffffff16815260200190815260200160002060006101000a81548160ff0219169083151502179055506000819080600181540180825580915050600190039060005260206000200160009091909190916101000a81548173ffffffffffffffffffffffffffffffffffffffff021916908373ffffffffffffffffffffffffffffffffffffffff1602179055505080806200025690620004d4565b9150506200003a565b5050620005fd565b60006200027e620002788462000420565b620003f7565b905080838252602082019050828560208602820111156200029e57600080fd5b60005b85811015620002d25781620002b78882620002dc565b845260208401935060208301925050600181019050620002a1565b5050509392505050565b600081519050620002ed81620005e3565b92915050565b600082601f8301126200030557600080fd5b81516200031784826020860162000267565b91505092915050565b6000602082840312156200033357600080fd5b600082015167ffffffffffffffff8111156200034e57600080fd5b6200035c84828501620002f3565b91505092915050565b600062000374600d836200044f565b9150620003818262000591565b602082019050919050565b60006200039b6014836200044f565b9150620003a882620005ba565b602082019050919050565b60006020820190508181036000830152620003ce8162000365565b9050919050565b60006020820190508181036000830152620003f0816200038c565b9050919050565b60006200040362000416565b90506200041182826200049e565b919050565b6000604051905090565b600067ffffffffffffffff8211156200043e576200043d62000551565b5b602082029050602081019050919050565b600082825260208201905092915050565b60006200046d8262000474565b9050919050565b600073ffffffffffffffffffffffffffffffffffffffff82169050919050565b6000819050919050565b620004a98262000580565b810181811067ffffffffffffffff82111715620004cb57620004ca62000551565b5b80604052505050565b6000620004e18262000494565b91507fffffffffffffffffffffffffffffffffffffffffffffffffffffffffffffffff82141562000517576200051662000522565b5b600182019050919050565b7f4e487b7100000000000000000000000000000000000000000000000000000000600052601160045260246000fd5b7f4e487b7100000000000000000000000000000000000000000000000000000000600052604160045260246000fd5b6000601f19601f8301169050919050565b7f696e76616c6964206f776e657200000000000000000000000000000000000000600082015250565b7f6f776e65722065786973747320616c7265616479000000000000000000000000600082015250565b620005ee8162000460565b8114620005fa57600080fd5b50565b612bf5806200060d6000396000f3fe6080604052600436106100fe5760003560e01c8063a07bccdb11610095578063bdfc989311610064578063bdfc98931461035c578063cceb67e314610399578063dd0860a8146103df578063e3bf21441461041c578063f676115114610445576100fe565b8063a07bccdb14610285578063ac1e9ef4146102c2578063ad16c2fb146102eb578063bbd8bc6214610331576100fe565b806348c8ba26116100d157806348c8ba26146101ec5780636a57544e1461021557806376acb5e81461023e578063938af8981461025a576100fe565b8063025e7c27146101035780630b7914301461014057806316f03cfe146101865780632f54bf6e146101af575b600080fd5b34801561010f57600080fd5b5061012a60048036038101906101259190611d9d565b61046e565b60405161013791906123c5565b60405180910390f35b34801561014c57600080fd5b5061016760048036038101906101629190611d9d565b6104ad565b60405161017d9a999897969594939291906125f0565b60405180910390f35b34801561019257600080fd5b506101ad60048036038101906101a89190611dc6565b6105a6565b005b3480156101bb57600080fd5b506101d660048036038101906101d19190611d0f565b610862565b6040516101e39190612446565b60405180910390f35b3480156101f857600080fd5b50610213600480360381019061020e9190611d9d565b610882565b005b34801561022157600080fd5b5061023c60048036038101906102379190611ea4565b6109e7565b005b61025860048036038101906102539190611d9d565b610bd9565b005b34801561026657600080fd5b5061026f610e1e565b60405161027c91906123e0565b60405180910390f35b34801561029157600080fd5b506102ac60048036038101906102a79190611d0f565b610f38565b6040516102b99190612424565b60405180910390f35b3480156102ce57600080fd5b506102e960048036038101906102e49190611d0f565b610fcf565b005b3480156102f757600080fd5b50610312600480360381019061030d9190611d9d565b611270565b6040516103289a999897969594939291906125f0565b60405180910390f35b34801561033d57600080fd5b50610346611359565b6040516103539190612402565b60405180910390f35b34801561036857600080fd5b50610383600480360381019061037e9190611d61565b6114b6565b6040516103909190612541565b60405180910390f35b3480156103a557600080fd5b506103c060048036038101906103bb9190611d9d565b6114e7565b6040516103d69a999897969594939291906125f0565b60405180910390f35b3480156103eb57600080fd5b5061040660048036038101906104019190611d0f565b61166c565b6040516104139190612446565b60405180910390f35b34801561042857600080fd5b50610443600480360381019061043e9190611d61565b6116c2565b005b34801561045157600080fd5b5061046c60048036038101906104679190611d38565b611a65565b005b6000818154811061047e57600080fd5b906000526020600020016000915054906101000a900473ffffffffffffffffffffffffffffffffffffffff1681565b600181815481106104bd57600080fd5b90600052602060002090600a02016000915090508060000154908060010154908060020154908060030154908060040154908060050154908060060154908060070154908060080180546105109061292c565b80601f016020809104026020016040519081016040528092919081815260200182805461053c9061292c565b80156105895780601f1061055e57610100808354040283529160200191610589565b820191906000526020600020905b81548152906001019060200180831161056c57829003601f168201915b5050505050908060090160009054906101000a900460ff1690508a565b600260003373ffffffffffffffffffffffffffffffffffffffff1673ffffffffffffffffffffffffffffffffffffffff16815260200190815260200160002060009054906101000a900460ff16610632576040517f08c379a000000000000000000000000000000000000000000000000000000000815260040161062990612521565b60405180910390fd5b60006001808054905061064591906127d2565b905060006040518061014001604052808381526020018c81526020018b81526020018a815260200189815260200188815260200187815260200185815260200186815260200184151581525090508060036000848152602001908152602001600020600082015181600001556020820151816001015560408201518160020155606082015181600301556080820151816004015560a0820151816005015560c0820151816006015560e08201518160070155610100820151816008019080519060200190610714929190611b9b565b506101208201518160090160006101000a81548160ff02191690831515021790555090505060018190806001815401808255809150506001900390600052602060002090600a0201600090919091909150600082015181600001556020820151816001015560408201518160020155606082015181600301556080820151816004015560a0820151816005015560c0820151816006015560e082015181600701556101008201518160080190805190602001906107d2929190611b9b565b506101208201518160090160006101000a81548160ff0219169083151502179055505050813373ffffffffffffffffffffffffffffffffffffffff167f117c815d3223d47615efb6181e42cfbde70aed8dad997c8a18c22023c8fdf0e98d8d8d8d8d8d8d8d8d60405161084d9998979695949392919061255c565b60405180910390a35050505050505050505050565b60026020528060005260406000206000915054906101000a900460ff1681565b600260003373ffffffffffffffffffffffffffffffffffffffff1673ffffffffffffffffffffffffffffffffffffffff16815260200190815260200160002060009054906101000a900460ff1661090e576040517f08c379a000000000000000000000000000000000000000000000000000000000815260040161090590612521565b60405180910390fd5b6003600082815260200190815260200160002060090160009054906101000a900460ff16610971576040517f08c379a000000000000000000000000000000000000000000000000000000000815260040161096890612461565b60405180910390fd5b60006003600083815260200190815260200160002060090160006101000a81548160ff021916908315150217905550803373ffffffffffffffffffffffffffffffffffffffff167f9f75cf47ba8d14010ea5f2eda156fd87978dcf97d56ce98c4a27a3629027341f60405160405180910390a350565b600260003373ffffffffffffffffffffffffffffffffffffffff1673ffffffffffffffffffffffffffffffffffffffff16815260200190815260200160002060009054906101000a900460ff16610a73576040517f08c379a0000000000000000000000000000000000000000000000000000000008152600401610a6a90612521565b60405180910390fd5b88600360008c81526020019081526020016000206001018190555087600360008c81526020019081526020016000206002018190555086600360008c81526020019081526020016000206003018190555085600360008c81526020019081526020016000206004018190555084600360008c81526020019081526020016000206005018190555083600360008c81526020019081526020016000206006018190555082600360008c81526020019081526020016000206008019080519060200190610b3f929190611b9b565b5081600360008c81526020019081526020016000206007018190555080600360008c815260200190815260200160002060090160006101000a81548160ff021916908315150217905550893373ffffffffffffffffffffffffffffffffffffffff167fd753a37b2c8dddd96ff531876ed175cc6e8ea9b3c7e5ded022ed1f4920af2ae960405160405180910390a350505050505050505050565b6000600360008381526020019081526020016000206001015411610c32576040517f08c379a0000000000000000000000000000000000000000000000000000000008152600401610c2990612501565b60405180910390fd5b3460036000838152602001908152602001600020600201541115610c8b576040517f08c379a0000000000000000000000000000000000000000000000000000000008152600401610c8290612481565b60405180910390fd5b600460003373ffffffffffffffffffffffffffffffffffffffff1673ffffffffffffffffffffffffffffffffffffffff168152602001908152602001600020819080600181540180825580915050600190039060005260206000200160009091909190915055600360008281526020019081526020016000206001016000815480929190610d1890612902565b919050555060018082610d2b9190612828565b81548110610d62577f4e487b7100000000000000000000000000000000000000000000000000000000600052603260045260246000fd5b90600052602060002090600a02016001016000815480929190610d8490612902565b91905055506000600360008381526020019081526020016000206001015411610dd75760006003600083815260200190815260200160002060090160006101000a81548160ff0219169083151502179055505b803373ffffffffffffffffffffffffffffffffffffffff167f66a5ef2f642955d6f2287037a21d7c8b5af2b7a5a4ea4276577f4991da3749b360405160405180910390a350565b6060600260003373ffffffffffffffffffffffffffffffffffffffff1673ffffffffffffffffffffffffffffffffffffffff16815260200190815260200160002060009054906101000a900460ff16610eac576040517f08c379a0000000000000000000000000000000000000000000000000000000008152600401610ea390612521565b60405180910390fd5b6000805480602002602001604051908101604052809291908181526020018280548015610f2e57602002820191906000526020600020905b8160009054906101000a900473ffffffffffffffffffffffffffffffffffffffff1673ffffffffffffffffffffffffffffffffffffffff1681526020019060010190808311610ee4575b5050505050905090565b6060600460008373ffffffffffffffffffffffffffffffffffffffff1673ffffffffffffffffffffffffffffffffffffffff168152602001908152602001600020805480602002602001604051908101604052809291908181526020018280548015610fc357602002820191906000526020600020905b815481526020019060010190808311610faf575b50505050509050919050565b600260003373ffffffffffffffffffffffffffffffffffffffff1673ffffffffffffffffffffffffffffffffffffffff16815260200190815260200160002060009054906101000a900460ff1661105b576040517f08c379a000000000000000000000000000000000000000000000000000000000815260040161105290612521565b60405180910390fd5b600073ffffffffffffffffffffffffffffffffffffffff168173ffffffffffffffffffffffffffffffffffffffff1614156110cb576040517f08c379a00000000000000000000000000000000000000000000000000000000081526004016110c2906124a1565b60405180910390fd5b600260008273ffffffffffffffffffffffffffffffffffffffff1673ffffffffffffffffffffffffffffffffffffffff16815260200190815260200160002060009054906101000a900460ff1615611158576040517f08c379a000000000000000000000000000000000000000000000000000000000815260040161114f906124c1565b60405180910390fd5b6001600260008373ffffffffffffffffffffffffffffffffffffffff1673ffffffffffffffffffffffffffffffffffffffff16815260200190815260200160002060006101000a81548160ff0219169083151502179055506000819080600181540180825580915050600190039060005260206000200160009091909190916101000a81548173ffffffffffffffffffffffffffffffffffffffff021916908373ffffffffffffffffffffffffffffffffffffffff1602179055508073ffffffffffffffffffffffffffffffffffffffff163373ffffffffffffffffffffffffffffffffffffffff167f16d390bfcd7f768e993e75948075b6927bc51a6ed5ba13ca1289f63cb8149e0860405160405180910390a350565b60036020528060005260406000206000915090508060000154908060010154908060020154908060030154908060040154908060050154908060060154908060070154908060080180546112c39061292c565b80601f01602080910402602001604051908101604052809291908181526020018280546112ef9061292c565b801561133c5780601f106113115761010080835404028352916020019161133c565b820191906000526020600020905b81548152906001019060200180831161131f57829003601f168201915b5050505050908060090160009054906101000a900460ff1690508a565b60606001805480602002602001604051908101604052809291908181526020016000905b828210156114ad57838290600052602060002090600a02016040518061014001604052908160008201548152602001600182015481526020016002820154815260200160038201548152602001600482015481526020016005820154815260200160068201548152602001600782015481526020016008820180546114019061292c565b80601f016020809104026020016040519081016040528092919081815260200182805461142d9061292c565b801561147a5780601f1061144f5761010080835404028352916020019161147a565b820191906000526020600020905b81548152906001019060200180831161145d57829003601f168201915b505050505081526020016009820160009054906101000a900460ff1615151515815250508152602001906001019061137d565b50505050905090565b600460205281600052604060002081815481106114d257600080fd5b90600052602060002001600091509150505481565b6000806000806000806000806060600080600360008d81526020019081526020016000206040518061014001604052908160008201548152602001600182015481526020016002820154815260200160038201548152602001600482015481526020016005820154815260200160068201548152602001600782015481526020016008820180546115779061292c565b80601f01602080910402602001604051908101604052809291908181526020018280546115a39061292c565b80156115f05780601f106115c5576101008083540402835291602001916115f0565b820191906000526020600020905b8154815290600101906020018083116115d357829003601f168201915b505050505081526020016009820160009054906101000a900460ff1615151515815250509050806000015181602001518260400151836060015184608001518560a001518660c001518760e001518861010001518961012001519a509a509a509a509a509a509a509a509a509a50509193959799509193959799565b6000600260008373ffffffffffffffffffffffffffffffffffffffff1673ffffffffffffffffffffffffffffffffffffffff16815260200190815260200160002060009054906101000a900460ff169050919050565b600260003373ffffffffffffffffffffffffffffffffffffffff1673ffffffffffffffffffffffffffffffffffffffff16815260200190815260200160002060009054906101000a900460ff1661174e576040517f08c379a000000000000000000000000000000000000000000000000000000000815260040161174590612521565b60405180910390fd5b600073ffffffffffffffffffffffffffffffffffffffff168273ffffffffffffffffffffffffffffffffffffffff1614156117be576040517f08c379a00000000000000000000000000000000000000000000000000000000081526004016117b5906124a1565b60405180910390fd5b600260008373ffffffffffffffffffffffffffffffffffffffff1673ffffffffffffffffffffffffffffffffffffffff16815260200190815260200160002060009054906101000a900460ff1661184a576040517f08c379a0000000000000000000000000000000000000000000000000000000008152600401611841906124e1565b60405180910390fd5b6000600260008473ffffffffffffffffffffffffffffffffffffffff1673ffffffffffffffffffffffffffffffffffffffff16815260200190815260200160002060006101000a81548160ff021916908315150217905550600060016000805490506118b69190612828565b815481106118ed577f4e487b7100000000000000000000000000000000000000000000000000000000600052603260045260246000fd5b9060005260206000200160009054906101000a900473ffffffffffffffffffffffffffffffffffffffff1660008281548110611952577f4e487b7100000000000000000000000000000000000000000000000000000000600052603260045260246000fd5b9060005260206000200160006101000a81548173ffffffffffffffffffffffffffffffffffffffff021916908373ffffffffffffffffffffffffffffffffffffffff16021790555060008054806119d2577f4e487b7100000000000000000000000000000000000000000000000000000000600052603160045260246000fd5b6001900381819060005260206000200160006101000a81549073ffffffffffffffffffffffffffffffffffffffff021916905590558173ffffffffffffffffffffffffffffffffffffffff163373ffffffffffffffffffffffffffffffffffffffff167faa2f779dd42ed572be732a547777489345cbcfa6ced22183c0d33b3fbedefebc60405160405180910390a35050565b600260003373ffffffffffffffffffffffffffffffffffffffff1673ffffffffffffffffffffffffffffffffffffffff16815260200190815260200160002060009054906101000a900460ff16611af1576040517f08c379a0000000000000000000000000000000000000000000000000000000008152600401611ae890612521565b60405180910390fd5b60004790508173ffffffffffffffffffffffffffffffffffffffff166108fc829081150290604051600060405180830381858888f19350505050158015611b3c573d6000803e3d6000fd5b508173ffffffffffffffffffffffffffffffffffffffff163373ffffffffffffffffffffffffffffffffffffffff167ff940e3851549e5c2062f065152e2151c57f5902a4d0de0f053e7f80205e4aabf60405160405180910390a35050565b828054611ba79061292c565b90600052602060002090601f016020900481019282611bc95760008555611c10565b82601f10611be257805160ff1916838001178555611c10565b82800160010185558215611c10579182015b82811115611c0f578251825591602001919060010190611bf4565b5b509050611c1d9190611c21565b5090565b5b80821115611c3a576000816000905550600101611c22565b5090565b6000611c51611c4c846126b8565b612693565b905082815260208101848484011115611c6957600080fd5b611c748482856128c0565b509392505050565b600081359050611c8b81612b4c565b92915050565b600081359050611ca081612b63565b92915050565b600081359050611cb581612b7a565b92915050565b600081359050611cca81612b91565b92915050565b600082601f830112611ce157600080fd5b8135611cf1848260208601611c3e565b91505092915050565b600081359050611d0981612ba8565b92915050565b600060208284031215611d2157600080fd5b6000611d2f84828501611c7c565b91505092915050565b600060208284031215611d4a57600080fd5b6000611d5884828501611c91565b91505092915050565b60008060408385031215611d7457600080fd5b6000611d8285828601611c7c565b9250506020611d9385828601611cfa565b9150509250929050565b600060208284031215611daf57600080fd5b6000611dbd84828501611cfa565b91505092915050565b60008060008060008060008060006101208a8c031215611de557600080fd5b6000611df38c828d01611cfa565b9950506020611e048c828d01611cfa565b9850506040611e158c828d01611cbb565b9750506060611e268c828d01611cbb565b9650506080611e378c828d01611cbb565b95505060a0611e488c828d01611cbb565b94505060c08a013567ffffffffffffffff811115611e6557600080fd5b611e718c828d01611cd0565b93505060e0611e828c828d01611cbb565b925050610100611e948c828d01611ca6565b9150509295985092959850929598565b6000806000806000806000806000806101408b8d031215611ec457600080fd5b6000611ed28d828e01611cfa565b9a50506020611ee38d828e01611cfa565b9950506040611ef48d828e01611cfa565b9850506060611f058d828e01611cbb565b9750506080611f168d828e01611cbb565b96505060a0611f278d828e01611cbb565b95505060c0611f388d828e01611cbb565b94505060e08b013567ffffffffffffffff811115611f5557600080fd5b611f618d828e01611cd0565b935050610100611f738d828e01611cbb565b925050610120611f858d828e01611ca6565b9150509295989b9194979a5092959850565b6000611fa38383611fdb565b60208301905092915050565b6000611fbb83836122cd565b905092915050565b6000611fcf83836123a7565b60208301905092915050565b611fe48161285c565b82525050565b611ff38161285c565b82525050565b600061200482612719565b61200e818561276c565b9350612019836126e9565b8060005b8381101561204a5781516120318882611f97565b975061203c83612745565b92505060018101905061201d565b5085935050505092915050565b600061206282612724565b61206c818561277d565b93508360208202850161207e856126f9565b8060005b858110156120ba578484038952815161209b8582611faf565b94506120a683612752565b925060208a01995050600181019050612082565b50829750879550505050505092915050565b60006120d78261272f565b6120e1818561278e565b93506120ec83612709565b8060005b8381101561211d5781516121048882611fc3565b975061210f8361275f565b9250506001810190506120f0565b5085935050505092915050565b61213381612880565b82525050565b61214281612880565b82525050565b6121518161288c565b82525050565b6121608161288c565b82525050565b60006121718261273a565b61217b818561279f565b935061218b8185602086016128cf565b61219481612a1c565b840191505092915050565b60006121aa8261273a565b6121b481856127b0565b93506121c48185602086016128cf565b6121cd81612a1c565b840191505092915050565b60006121e56019836127c1565b91506121f082612a2d565b602082019050919050565b6000612208601a836127c1565b915061221382612a56565b602082019050919050565b600061222b600d836127c1565b915061223682612a7f565b602082019050919050565b600061224e6014836127c1565b915061225982612aa8565b602082019050919050565b60006122716011836127c1565b915061227c82612ad1565b602082019050919050565b60006122946011836127c1565b915061229f82612afa565b602082019050919050565b60006122b76012836127c1565b91506122c282612b23565b602082019050919050565b6000610140830160008301516122e660008601826123a7565b5060208301516122f960208601826123a7565b50604083015161230c60408601826123a7565b50606083015161231f6060860182612148565b5060808301516123326080860182612148565b5060a083015161234560a0860182612148565b5060c083015161235860c0860182612148565b5060e083015161236b60e0860182612148565b506101008301518482036101008601526123858282612166565b91505061012083015161239c61012086018261212a565b508091505092915050565b6123b0816128b6565b82525050565b6123bf816128b6565b82525050565b60006020820190506123da6000830184611fea565b92915050565b600060208201905081810360008301526123fa8184611ff9565b905092915050565b6000602082019050818103600083015261241c8184612057565b905092915050565b6000602082019050818103600083015261243e81846120cc565b905092915050565b600060208201905061245b6000830184612139565b92915050565b6000602082019050818103600083015261247a816121d8565b9050919050565b6000602082019050818103600083015261249a816121fb565b9050919050565b600060208201905081810360008301526124ba8161221e565b9050919050565b600060208201905081810360008301526124da81612241565b9050919050565b600060208201905081810360008301526124fa81612264565b9050919050565b6000602082019050818103600083015261251a81612287565b9050919050565b6000602082019050818103600083015261253a816122aa565b9050919050565b600060208201905061255660008301846123b6565b92915050565b600061012082019050612572600083018c6123b6565b61257f602083018b6123b6565b61258c604083018a612157565b6125996060830189612157565b6125a66080830188612157565b6125b360a0830187612157565b81810360c08301526125c5818661219f565b90506125d460e0830185612157565b6125e2610100830184612139565b9a9950505050505050505050565b600061014082019050612606600083018d6123b6565b612613602083018c6123b6565b612620604083018b6123b6565b61262d606083018a612157565b61263a6080830189612157565b61264760a0830188612157565b61265460c0830187612157565b61266160e0830186612157565b818103610100830152612674818561219f565b9050612684610120830184612139565b9b9a5050505050505050505050565b600061269d6126ae565b90506126a9828261295e565b919050565b6000604051905090565b600067ffffffffffffffff8211156126d3576126d26129ed565b5b6126dc82612a1c565b9050602081019050919050565b6000819050602082019050919050565b6000819050602082019050919050565b6000819050602082019050919050565b600081519050919050565b600081519050919050565b600081519050919050565b600081519050919050565b6000602082019050919050565b6000602082019050919050565b6000602082019050919050565b600082825260208201905092915050565b600082825260208201905092915050565b600082825260208201905092915050565b600082825260208201905092915050565b600082825260208201905092915050565b600082825260208201905092915050565b60006127dd826128b6565b91506127e8836128b6565b9250827fffffffffffffffffffffffffffffffffffffffffffffffffffffffffffffffff0382111561281d5761281c61298f565b5b828201905092915050565b6000612833826128b6565b915061283e836128b6565b9250828210156128515761285061298f565b5b828203905092915050565b600061286782612896565b9050919050565b600061287982612896565b9050919050565b60008115159050919050565b6000819050919050565b600073ffffffffffffffffffffffffffffffffffffffff82169050919050565b6000819050919050565b82818337600083830152505050565b60005b838110156128ed5780820151818401526020810190506128d2565b838111156128fc576000848401525b50505050565b600061290d826128b6565b915060008214156129215761292061298f565b5b600182039050919050565b6000600282049050600182168061294457607f821691505b60208210811415612958576129576129be565b5b50919050565b61296782612a1c565b810181811067ffffffffffffffff82111715612986576129856129ed565b5b80604052505050565b7f4e487b7100000000000000000000000000000000000000000000000000000000600052601160045260246000fd5b7f4e487b7100000000000000000000000000000000000000000000000000000000600052602260045260246000fd5b7f4e487b7100000000000000000000000000000000000000000000000000000000600052604160045260246000fd5b6000601f19601f8301169050919050565b7f4576656e742069732064656c6574656420616c72656164792100000000000000600082015250565b7f506c6561736520636865636b207469636b657420707269636521000000000000600082015250565b7f696e76616c6964206f776e657200000000000000000000000000000000000000600082015250565b7f6f776e65722065786973747320616c7265616479000000000000000000000000600082015250565b7f6f776e6572206e6f742065786973747321000000000000000000000000000000600082015250565b7f416c6c207469636b65747320736f6c6421000000000000000000000000000000600082015250565b7f596f7520617265206e6f74206f776e6572210000000000000000000000000000600082015250565b612b558161285c565b8114612b6057600080fd5b50565b612b6c8161286e565b8114612b7757600080fd5b50565b612b8381612880565b8114612b8e57600080fd5b50565b612b9a8161288c565b8114612ba557600080fd5b50565b612bb1816128b6565b8114612bbc57600080fd5b5056fea2646970667358221220cfd21347a644ae54099e6a77ab23b9cd99a22b5efb534f18d7aae8503e050ea364736f6c63430008010033",
  "immutableReferences": {},
  "source": "// SPDX-License-Identifier: MIT\r\npragma solidity ^0.8.1;\r\n\r\ncontract Ticket {\r\n    struct EventInfo {\r\n        uint id;\r\n        uint ticketCount;\r\n        uint price;\r\n        bytes32 date;\r\n        bytes32 name;\r\n        bytes32 location;\r\n        bytes32 city;\r\n        bytes32 category;\r\n        bytes description;\r\n        bool isActive;\r\n    }\r\n    \r\n    address[] public owners;\r\n    EventInfo[] public events;\r\n    mapping(address => bool) public isOwner;\r\n    mapping(uint => EventInfo) public findEvent;\r\n    mapping(address => uint[]) public userEvents;\r\n    \r\n    event createEvent(address indexed owner, uint indexed id, uint _ticketCount, uint _price, bytes32 _date, bytes32 _name, bytes32 _location, bytes32 _city, bytes _description, bytes32 _category, bool _isActive);\r\n    event deleteEvent(address indexed owner, uint indexed id);\r\n    event editEvent(address indexed owner, uint indexed id);\r\n    event buyTicket(address indexed sender, uint indexed id);\r\n    event withdraw(address indexed _from, address indexed _to);\r\n    event addOwner(address indexed sender, address indexed newOwner);\r\n    event deleteOwner(address indexed sender, address indexed deletedAddress);\r\n    \r\n    constructor(address[] memory _owners) {\r\n        for(uint i = 0; i < _owners.length; i++) {\r\n            address owner = _owners[i];\r\n            require(owner != address(0), \"invalid owner\");\r\n            require(!isOwner[owner], \"owner exists already\");\r\n            \r\n            isOwner[owner] = true;\r\n            owners.push(owner);\r\n        }\r\n    }\r\n    \r\n    modifier onlyOwner() {\r\n        require(isOwner[msg.sender], \"You are not owner!\");\r\n        _;\r\n    }\r\n\r\n    function GetOwners() external view onlyOwner returns(address[] memory)  {\r\n        return owners;\r\n    }\r\n\r\n    function GetUserEvents(address _address) external view returns(uint[] memory) {\r\n        return userEvents[_address];\r\n    }\r\n    \r\n    function CreateEvent(uint _ticketCount, uint _price, bytes32 _date, bytes32 _name, bytes32 _location, bytes32 _city, bytes memory _description, bytes32 _category, bool _isActive) external onlyOwner {\r\n        uint id = events.length + 1;\r\n        EventInfo memory _event = EventInfo(id, _ticketCount, _price, _date, _name, _location, _city,  _category, _description, _isActive);\r\n        findEvent[id] = _event;\r\n        events.push(_event);\r\n        emit createEvent(msg.sender, id, _ticketCount, _price, _date, _name, _location, _city, _description, _category, _isActive);\r\n    }\r\n    \r\n    function GetEvent(uint id) public view returns(uint, uint, uint, bytes32, bytes32, bytes32, bytes32, bytes32, bytes memory, bool) {\r\n        EventInfo memory _event = findEvent[id]; \r\n        return (_event.id, _event.ticketCount, _event.price, _event.date, _event.name, _event.location, _event.city, _event.category, _event.description, _event.isActive);\r\n    }\r\n\r\n    function GetEvents() external view returns(EventInfo[] memory) {\r\n        return events;\r\n    }\r\n    \r\n    function DeleteEvent(uint id) public onlyOwner{\r\n        require(findEvent[id].isActive, \"Event is deleted already!\");\r\n        findEvent[id].isActive = false;\r\n        emit deleteEvent(msg.sender, id);\r\n    }\r\n    \r\n    function EditEvent(uint id, uint _ticketCount, uint _price, bytes32 _date, bytes32 _name, bytes32 _location, bytes32 _city, bytes memory _description, bytes32 _category, bool _isActive) external onlyOwner {\r\n        findEvent[id].ticketCount = _ticketCount;\r\n        findEvent[id].price = _price;\r\n        findEvent[id].date = _date;\r\n        findEvent[id].name = _name;\r\n        findEvent[id].location = _location;\r\n        findEvent[id].city = _city;\r\n        findEvent[id].description = _description;\r\n        findEvent[id].category = _category;\r\n        findEvent[id].isActive = _isActive;\r\n        emit editEvent(msg.sender, id);\r\n    }\r\n    \r\n    function BuyTicket(uint id) external payable {\r\n        require(findEvent[id].ticketCount > 0, \"All tickets sold!\");\r\n        require(findEvent[id].price <= msg.value, \"Please check ticket price!\");\r\n        userEvents[msg.sender].push(id);\r\n        findEvent[id].ticketCount--;\r\n        events[id - 1].ticketCount--;\r\n        if (findEvent[id].ticketCount <= 0) {\r\n            findEvent[id].isActive = false;\r\n        }\r\n        emit buyTicket(msg.sender, id);\r\n    }\r\n    \r\n    function Withdraw(address payable _to) public onlyOwner {\r\n        uint balance = address(this).balance;\r\n        _to.transfer(balance);\r\n        emit withdraw(msg.sender, _to);\r\n    }\r\n    \r\n    function AddOwner(address _newOwner) external onlyOwner {\r\n        require(_newOwner != address(0), \"invalid owner\");\r\n        require(!isOwner[_newOwner], \"owner exists already\");\r\n        isOwner[_newOwner] = true;\r\n        owners.push(_newOwner);\r\n        emit addOwner(msg.sender, _newOwner);\r\n    }\r\n    \r\n    function DeleteOwner(address _owner, uint index) external onlyOwner {\r\n        require(_owner != address(0), \"invalid owner\");\r\n        require(isOwner[_owner], \"owner not exists!\");\r\n        isOwner[_owner] = false;\r\n        owners[index] = owners[owners.length - 1];\r\n        owners.pop();\r\n        emit deleteOwner(msg.sender, _owner);\r\n    }\r\n\r\n    function IsOwner(address _address) external view returns(bool) {\r\n        return isOwner[_address];\r\n    }\r\n}\r\n",
  "sourcePath": "C:/Users/User/Desktop/Solidity Projects/TicketSite/contracts/Ticket.sol",
  "compiler": {
    "name": "solc",
    "version": "0.8.1+commit.df193b15.Emscripten.clang"
  },
  "schemaVersion": "3.4.1",
  "updatedAt": "2021-12-30T11:29:11.303Z",
  "networkType": "ethereum",
  "devdoc": {
    "kind": "dev",
    "methods": {},
    "version": 1
  },
  "userdoc": {
    "kind": "user",
    "methods": {},
    "version": 1
  }
}