{
  "contractName": "Ticket",
  "abi": [
    {
      "inputs": [
        {
          "internalType": "address[]",
          "name": "_owners",
          "type": "address[]"
        }
      ],
      "stateMutability": "nonpayable",
      "type": "constructor"
    },
    {
      "anonymous": false,
      "inputs": [
        {
          "indexed": true,
          "internalType": "address",
          "name": "sender",
          "type": "address"
        },
        {
          "indexed": true,
          "internalType": "address",
          "name": "newOwner",
          "type": "address"
        }
      ],
      "name": "addOwner",
      "type": "event"
    },
    {
      "anonymous": false,
      "inputs": [
        {
          "indexed": true,
          "internalType": "address",
          "name": "sender",
          "type": "address"
        },
        {
          "indexed": true,
          "internalType": "uint256",
          "name": "id",
          "type": "uint256"
        },
        {
          "indexed": false,
          "internalType": "bytes24",
          "name": "time",
          "type": "bytes24"
        }
      ],
      "name": "buyTicket",
      "type": "event"
    },
    {
      "anonymous": false,
      "inputs": [
        {
          "indexed": true,
          "internalType": "address",
          "name": "owner",
          "type": "address"
        },
        {
          "indexed": true,
          "internalType": "uint256",
          "name": "id",
          "type": "uint256"
        },
        {
          "indexed": false,
          "internalType": "uint256",
          "name": "_ticketCount",
          "type": "uint256"
        },
        {
          "indexed": false,
          "internalType": "uint256",
          "name": "_price",
          "type": "uint256"
        },
        {
          "indexed": false,
          "internalType": "bytes32",
          "name": "_date",
          "type": "bytes32"
        },
        {
          "indexed": false,
          "internalType": "bytes32",
          "name": "_name",
          "type": "bytes32"
        },
        {
          "indexed": false,
          "internalType": "bytes",
          "name": "_location",
          "type": "bytes"
        },
        {
          "indexed": false,
          "internalType": "bytes32",
          "name": "_city",
          "type": "bytes32"
        },
        {
          "indexed": false,
          "internalType": "bytes",
          "name": "_description",
          "type": "bytes"
        },
        {
          "indexed": false,
          "internalType": "bytes10",
          "name": "_category",
          "type": "bytes10"
        },
        {
          "indexed": false,
          "internalType": "bool",
          "name": "_isActive",
          "type": "bool"
        }
      ],
      "name": "createEvent",
      "type": "event"
    },
    {
      "anonymous": false,
      "inputs": [
        {
          "indexed": true,
          "internalType": "address",
          "name": "owner",
          "type": "address"
        },
        {
          "indexed": true,
          "internalType": "uint256",
          "name": "id",
          "type": "uint256"
        }
      ],
      "name": "deleteEvent",
      "type": "event"
    },
    {
      "anonymous": false,
      "inputs": [
        {
          "indexed": true,
          "internalType": "address",
          "name": "sender",
          "type": "address"
        },
        {
          "indexed": true,
          "internalType": "address",
          "name": "deletedAddress",
          "type": "address"
        }
      ],
      "name": "deleteOwner",
      "type": "event"
    },
    {
      "anonymous": false,
      "inputs": [
        {
          "indexed": true,
          "internalType": "address",
          "name": "owner",
          "type": "address"
        },
        {
          "indexed": true,
          "internalType": "uint256",
          "name": "id",
          "type": "uint256"
        }
      ],
      "name": "editEvent",
      "type": "event"
    },
    {
      "anonymous": false,
      "inputs": [
        {
          "indexed": true,
          "internalType": "address",
          "name": "_from",
          "type": "address"
        },
        {
          "indexed": true,
          "internalType": "address",
          "name": "_to",
          "type": "address"
        }
      ],
      "name": "withdraw",
      "type": "event"
    },
    {
      "inputs": [
        {
          "internalType": "uint256",
          "name": "",
          "type": "uint256"
        }
      ],
      "name": "events",
      "outputs": [
        {
          "internalType": "uint256",
          "name": "id",
          "type": "uint256"
        },
        {
          "internalType": "uint256",
          "name": "ticketCount",
          "type": "uint256"
        },
        {
          "internalType": "uint256",
          "name": "price",
          "type": "uint256"
        },
        {
          "internalType": "bytes32",
          "name": "date",
          "type": "bytes32"
        },
        {
          "internalType": "bytes32",
          "name": "name",
          "type": "bytes32"
        },
        {
          "internalType": "bytes32",
          "name": "city",
          "type": "bytes32"
        },
        {
          "internalType": "bytes10",
          "name": "category",
          "type": "bytes10"
        },
        {
          "internalType": "bytes8",
          "name": "time",
          "type": "bytes8"
        },
        {
          "internalType": "bytes",
          "name": "location",
          "type": "bytes"
        },
        {
          "internalType": "bytes",
          "name": "description",
          "type": "bytes"
        },
        {
          "internalType": "bool",
          "name": "isActive",
          "type": "bool"
        }
      ],
      "stateMutability": "view",
      "type": "function",
      "constant": true
    },
    {
      "inputs": [
        {
          "internalType": "uint256",
          "name": "",
          "type": "uint256"
        }
      ],
      "name": "findEvent",
      "outputs": [
        {
          "internalType": "uint256",
          "name": "id",
          "type": "uint256"
        },
        {
          "internalType": "uint256",
          "name": "ticketCount",
          "type": "uint256"
        },
        {
          "internalType": "uint256",
          "name": "price",
          "type": "uint256"
        },
        {
          "internalType": "bytes32",
          "name": "date",
          "type": "bytes32"
        },
        {
          "internalType": "bytes32",
          "name": "name",
          "type": "bytes32"
        },
        {
          "internalType": "bytes32",
          "name": "city",
          "type": "bytes32"
        },
        {
          "internalType": "bytes10",
          "name": "category",
          "type": "bytes10"
        },
        {
          "internalType": "bytes8",
          "name": "time",
          "type": "bytes8"
        },
        {
          "internalType": "bytes",
          "name": "location",
          "type": "bytes"
        },
        {
          "internalType": "bytes",
          "name": "description",
          "type": "bytes"
        },
        {
          "internalType": "bool",
          "name": "isActive",
          "type": "bool"
        }
      ],
      "stateMutability": "view",
      "type": "function",
      "constant": true
    },
    {
      "inputs": [
        {
          "internalType": "address",
          "name": "",
          "type": "address"
        }
      ],
      "name": "isOwner",
      "outputs": [
        {
          "internalType": "bool",
          "name": "",
          "type": "bool"
        }
      ],
      "stateMutability": "view",
      "type": "function",
      "constant": true
    },
    {
      "inputs": [
        {
          "internalType": "uint256",
          "name": "",
          "type": "uint256"
        }
      ],
      "name": "owners",
      "outputs": [
        {
          "internalType": "address",
          "name": "",
          "type": "address"
        }
      ],
      "stateMutability": "view",
      "type": "function",
      "constant": true
    },
    {
      "inputs": [
        {
          "internalType": "address",
          "name": "",
          "type": "address"
        },
        {
          "internalType": "uint256",
          "name": "",
          "type": "uint256"
        }
      ],
      "name": "userEvents",
      "outputs": [
        {
          "internalType": "uint256",
          "name": "",
          "type": "uint256"
        }
      ],
      "stateMutability": "view",
      "type": "function",
      "constant": true
    },
    {
      "inputs": [],
      "name": "GetOwners",
      "outputs": [
        {
          "internalType": "address[]",
          "name": "",
          "type": "address[]"
        }
      ],
      "stateMutability": "view",
      "type": "function",
      "constant": true
    },
    {
      "inputs": [
        {
          "internalType": "address",
          "name": "_address",
          "type": "address"
        }
      ],
      "name": "GetUserEvents",
      "outputs": [
        {
          "internalType": "uint256[]",
          "name": "",
          "type": "uint256[]"
        }
      ],
      "stateMutability": "view",
      "type": "function",
      "constant": true
    },
    {
      "inputs": [
        {
          "internalType": "uint256",
          "name": "_ticketCount",
          "type": "uint256"
        },
        {
          "internalType": "uint256",
          "name": "_price",
          "type": "uint256"
        },
        {
          "internalType": "bytes32",
          "name": "_date",
          "type": "bytes32"
        },
        {
          "internalType": "bytes32",
          "name": "_name",
          "type": "bytes32"
        },
        {
          "internalType": "bytes",
          "name": "_location",
          "type": "bytes"
        },
        {
          "internalType": "bytes32",
          "name": "_city",
          "type": "bytes32"
        },
        {
          "internalType": "bytes",
          "name": "_description",
          "type": "bytes"
        },
        {
          "internalType": "bytes10",
          "name": "_category",
          "type": "bytes10"
        },
        {
          "internalType": "bytes8",
          "name": "_time",
          "type": "bytes8"
        },
        {
          "internalType": "bool",
          "name": "_isActive",
          "type": "bool"
        }
      ],
      "name": "CreateEvent",
      "outputs": [],
      "stateMutability": "nonpayable",
      "type": "function"
    },
    {
      "inputs": [
        {
          "internalType": "uint256",
          "name": "id",
          "type": "uint256"
        }
      ],
      "name": "GetEvent",
      "outputs": [
        {
          "internalType": "uint256",
          "name": "",
          "type": "uint256"
        },
        {
          "internalType": "uint256",
          "name": "",
          "type": "uint256"
        },
        {
          "internalType": "uint256",
          "name": "",
          "type": "uint256"
        },
        {
          "internalType": "bytes32",
          "name": "",
          "type": "bytes32"
        },
        {
          "internalType": "bytes32",
          "name": "",
          "type": "bytes32"
        },
        {
          "internalType": "bytes32",
          "name": "",
          "type": "bytes32"
        },
        {
          "internalType": "bytes10",
          "name": "",
          "type": "bytes10"
        },
        {
          "internalType": "bytes8",
          "name": "",
          "type": "bytes8"
        },
        {
          "internalType": "bytes",
          "name": "",
          "type": "bytes"
        },
        {
          "internalType": "bytes",
          "name": "",
          "type": "bytes"
        },
        {
          "internalType": "bool",
          "name": "",
          "type": "bool"
        }
      ],
      "stateMutability": "view",
      "type": "function",
      "constant": true
    },
    {
      "inputs": [],
      "name": "GetEvents",
      "outputs": [
        {
          "components": [
            {
              "internalType": "uint256",
              "name": "id",
              "type": "uint256"
            },
            {
              "internalType": "uint256",
              "name": "ticketCount",
              "type": "uint256"
            },
            {
              "internalType": "uint256",
              "name": "price",
              "type": "uint256"
            },
            {
              "internalType": "bytes32",
              "name": "date",
              "type": "bytes32"
            },
            {
              "internalType": "bytes32",
              "name": "name",
              "type": "bytes32"
            },
            {
              "internalType": "bytes32",
              "name": "city",
              "type": "bytes32"
            },
            {
              "internalType": "bytes10",
              "name": "category",
              "type": "bytes10"
            },
            {
              "internalType": "bytes8",
              "name": "time",
              "type": "bytes8"
            },
            {
              "internalType": "bytes",
              "name": "location",
              "type": "bytes"
            },
            {
              "internalType": "bytes",
              "name": "description",
              "type": "bytes"
            },
            {
              "internalType": "bool",
              "name": "isActive",
              "type": "bool"
            }
          ],
          "internalType": "struct Ticket.EventInfo[]",
          "name": "",
          "type": "tuple[]"
        }
      ],
      "stateMutability": "view",
      "type": "function",
      "constant": true
    },
    {
      "inputs": [
        {
          "internalType": "uint256",
          "name": "id",
          "type": "uint256"
        }
      ],
      "name": "DeleteEvent",
      "outputs": [],
      "stateMutability": "nonpayable",
      "type": "function"
    },
    {
      "inputs": [
        {
          "internalType": "uint256",
          "name": "id",
          "type": "uint256"
        },
        {
          "internalType": "uint256",
          "name": "_ticketCount",
          "type": "uint256"
        },
        {
          "internalType": "uint256",
          "name": "_price",
          "type": "uint256"
        },
        {
          "internalType": "bytes32",
          "name": "_date",
          "type": "bytes32"
        },
        {
          "internalType": "bytes32",
          "name": "_name",
          "type": "bytes32"
        },
        {
          "internalType": "bytes",
          "name": "_location",
          "type": "bytes"
        },
        {
          "internalType": "bytes32",
          "name": "_city",
          "type": "bytes32"
        },
        {
          "internalType": "bytes",
          "name": "_description",
          "type": "bytes"
        },
        {
          "internalType": "bytes10",
          "name": "_category",
          "type": "bytes10"
        },
        {
          "internalType": "bytes8",
          "name": "_time",
          "type": "bytes8"
        },
        {
          "internalType": "bool",
          "name": "_isActive",
          "type": "bool"
        }
      ],
      "name": "EditEvent",
      "outputs": [],
      "stateMutability": "nonpayable",
      "type": "function"
    },
    {
      "inputs": [
        {
          "internalType": "uint256",
          "name": "id",
          "type": "uint256"
        },
        {
          "internalType": "bytes24",
          "name": "time",
          "type": "bytes24"
        }
      ],
      "name": "BuyTicket",
      "outputs": [],
      "stateMutability": "payable",
      "type": "function",
      "payable": true
    },
    {
      "inputs": [
        {
          "internalType": "address payable",
          "name": "_to",
          "type": "address"
        }
      ],
      "name": "Withdraw",
      "outputs": [],
      "stateMutability": "nonpayable",
      "type": "function"
    },
    {
      "inputs": [
        {
          "internalType": "address",
          "name": "_newOwner",
          "type": "address"
        }
      ],
      "name": "AddOwner",
      "outputs": [],
      "stateMutability": "nonpayable",
      "type": "function"
    },
    {
      "inputs": [
        {
          "internalType": "address",
          "name": "_owner",
          "type": "address"
        },
        {
          "internalType": "uint256",
          "name": "index",
          "type": "uint256"
        }
      ],
      "name": "DeleteOwner",
      "outputs": [],
      "stateMutability": "nonpayable",
      "type": "function"
    },
    {
      "inputs": [
        {
          "internalType": "address",
          "name": "_address",
          "type": "address"
        }
      ],
      "name": "IsOwner",
      "outputs": [
        {
          "internalType": "bool",
          "name": "",
          "type": "bool"
        }
      ],
      "stateMutability": "view",
      "type": "function",
      "constant": true
    }
  ],
  "bytecode": "0x60806040523480156200001157600080fd5b5060405162003d2138038062003d21833981810160405281019062000037919062000320565b60005b81518110156200025f57600082828151811062000080577f4e487b7100000000000000000000000000000000000000000000000000000000600052603260045260246000fd5b60200260200101519050600073ffffffffffffffffffffffffffffffffffffffff168173ffffffffffffffffffffffffffffffffffffffff161415620000fd576040517f08c379a0000000000000000000000000000000000000000000000000000000008152600401620000f490620003b3565b60405180910390fd5b600260008273ffffffffffffffffffffffffffffffffffffffff1673ffffffffffffffffffffffffffffffffffffffff16815260200190815260200160002060009054906101000a900460ff16156200018d576040517f08c379a00000000000000000000000000000000000000000000000000000000081526004016200018490620003d5565b60405180910390fd5b6001600260008373ffffffffffffffffffffffffffffffffffffffff1673ffffffffffffffffffffffffffffffffffffffff16815260200190815260200160002060006101000a81548160ff0219169083151502179055506000819080600181540180825580915050600190039060005260206000200160009091909190916101000a81548173ffffffffffffffffffffffffffffffffffffffff021916908373ffffffffffffffffffffffffffffffffffffffff1602179055505080806200025690620004d4565b9150506200003a565b5050620005fd565b60006200027e620002788462000420565b620003f7565b905080838252602082019050828560208602820111156200029e57600080fd5b60005b85811015620002d25781620002b78882620002dc565b845260208401935060208301925050600181019050620002a1565b5050509392505050565b600081519050620002ed81620005e3565b92915050565b600082601f8301126200030557600080fd5b81516200031784826020860162000267565b91505092915050565b6000602082840312156200033357600080fd5b600082015167ffffffffffffffff8111156200034e57600080fd5b6200035c84828501620002f3565b91505092915050565b600062000374600d836200044f565b9150620003818262000591565b602082019050919050565b60006200039b6014836200044f565b9150620003a882620005ba565b602082019050919050565b60006020820190508181036000830152620003ce8162000365565b9050919050565b60006020820190508181036000830152620003f0816200038c565b9050919050565b60006200040362000416565b90506200041182826200049e565b919050565b6000604051905090565b600067ffffffffffffffff8211156200043e576200043d62000551565b5b602082029050602081019050919050565b600082825260208201905092915050565b60006200046d8262000474565b9050919050565b600073ffffffffffffffffffffffffffffffffffffffff82169050919050565b6000819050919050565b620004a98262000580565b810181811067ffffffffffffffff82111715620004cb57620004ca62000551565b5b80604052505050565b6000620004e18262000494565b91507fffffffffffffffffffffffffffffffffffffffffffffffffffffffffffffffff82141562000517576200051662000522565b5b600182019050919050565b7f4e487b7100000000000000000000000000000000000000000000000000000000600052601160045260246000fd5b7f4e487b7100000000000000000000000000000000000000000000000000000000600052604160045260246000fd5b6000601f19601f8301169050919050565b7f696e76616c6964206f776e657200000000000000000000000000000000000000600082015250565b7f6f776e65722065786973747320616c7265616479000000000000000000000000600082015250565b620005ee8162000460565b8114620005fa57600080fd5b50565b613714806200060d6000396000f3fe6080604052600436106100fe5760003560e01c8063ad16c2fb11610095578063d3ec9ef711610064578063d3ec9ef714610390578063dd0860a8146103b9578063dec1b294146103f6578063e3bf21441461041f578063f676115114610448576100fe565b8063ad16c2fb1461029a578063bbd8bc62146102e1578063bdfc98931461030c578063cceb67e314610349576100fe565b80638f14b869116100d15780638f14b869146101ed578063938af89814610209578063a07bccdb14610234578063ac1e9ef414610271576100fe565b8063025e7c27146101035780630b791430146101405780632f54bf6e1461018757806348c8ba26146101c4575b600080fd5b34801561010f57600080fd5b5061012a600480360381019061012591906126be565b610471565b6040516101379190612de3565b60405180910390f35b34801561014c57600080fd5b50610167600480360381019061016291906126be565b6104b0565b60405161017e9b9a99989796959493929190613030565b60405180910390f35b34801561019357600080fd5b506101ae60048036038101906101a99190612630565b610651565b6040516101bb9190612e64565b60405180910390f35b3480156101d057600080fd5b506101eb60048036038101906101e691906126be565b610671565b005b610207600480360381019061020291906126e7565b6107d6565b005b34801561021557600080fd5b5061021e610a27565b60405161022b9190612dfe565b60405180910390f35b34801561024057600080fd5b5061025b60048036038101906102569190612630565b610b41565b6040516102689190612e42565b60405180910390f35b34801561027d57600080fd5b5061029860048036038101906102939190612630565b610bd8565b005b3480156102a657600080fd5b506102c160048036038101906102bc91906126be565b610e79565b6040516102d89b9a99989796959493929190613030565b60405180910390f35b3480156102ed57600080fd5b506102f661100a565b6040516103039190612e20565b60405180910390f35b34801561031857600080fd5b50610333600480360381019061032e9190612682565b61127b565b6040516103409190612f7a565b60405180910390f35b34801561035557600080fd5b50610370600480360381019061036b91906126be565b6112ac565b6040516103879b9a99989796959493929190613030565b60405180910390f35b34801561039c57600080fd5b506103b760048036038101906103b2919061282e565b611550565b005b3480156103c557600080fd5b506103e060048036038101906103db9190612630565b611b9f565b6040516103ed9190612e64565b60405180910390f35b34801561040257600080fd5b5061041d60048036038101906104189190612723565b611bf5565b005b34801561042b57600080fd5b5061044660048036038101906104419190612682565b611fa4565b005b34801561045457600080fd5b5061046f600480360381019061046a9190612659565b612347565b005b6000818154811061048157600080fd5b906000526020600020016000915054906101000a900473ffffffffffffffffffffffffffffffffffffffff1681565b600181815481106104c057600080fd5b90600052602060002090600a02016000915090508060000154908060010154908060020154908060030154908060040154908060050154908060060160009054906101000a900460b01b9080600601600a9054906101000a900460c01b9080600701805461052d90613406565b80601f016020809104026020016040519081016040528092919081815260200182805461055990613406565b80156105a65780601f1061057b576101008083540402835291602001916105a6565b820191906000526020600020905b81548152906001019060200180831161058957829003601f168201915b5050505050908060080180546105bb90613406565b80601f01602080910402602001604051908101604052809291908181526020018280546105e790613406565b80156106345780601f1061060957610100808354040283529160200191610634565b820191906000526020600020905b81548152906001019060200180831161061757829003601f168201915b5050505050908060090160009054906101000a900460ff1690508b565b60026020528060005260406000206000915054906101000a900460ff1681565b600260003373ffffffffffffffffffffffffffffffffffffffff1673ffffffffffffffffffffffffffffffffffffffff16815260200190815260200160002060009054906101000a900460ff166106fd576040517f08c379a00000000000000000000000000000000000000000000000000000000081526004016106f490612f5a565b60405180910390fd5b6003600082815260200190815260200160002060090160009054906101000a900460ff16610760576040517f08c379a000000000000000000000000000000000000000000000000000000000815260040161075790612e9a565b60405180910390fd5b60006003600083815260200190815260200160002060090160006101000a81548160ff021916908315150217905550803373ffffffffffffffffffffffffffffffffffffffff167f9f75cf47ba8d14010ea5f2eda156fd87978dcf97d56ce98c4a27a3629027341f60405160405180910390a350565b600060036000848152602001908152602001600020600101541161082f576040517f08c379a000000000000000000000000000000000000000000000000000000000815260040161082690612f3a565b60405180910390fd5b3460036000848152602001908152602001600020600201541115610888576040517f08c379a000000000000000000000000000000000000000000000000000000000815260040161087f90612eba565b60405180910390fd5b600460003373ffffffffffffffffffffffffffffffffffffffff1673ffffffffffffffffffffffffffffffffffffffff168152602001908152602001600020829080600181540180825580915050600190039060005260206000200160009091909190915055600360008381526020019081526020016000206001016000815480929190610915906133dc565b919050555060018083610928919061327e565b8154811061095f577f4e487b7100000000000000000000000000000000000000000000000000000000600052603260045260246000fd5b90600052602060002090600a02016001016000815480929190610981906133dc565b919050555060006003600084815260200190815260200160002060010154116109d45760006003600084815260200190815260200160002060090160006101000a81548160ff0219169083151502179055505b813373ffffffffffffffffffffffffffffffffffffffff167f5089ff26e7b984934ec9ecf38ba21867d425f981aabe42c53ed3181959734cb183604051610a1b9190612e7f565b60405180910390a35050565b6060600260003373ffffffffffffffffffffffffffffffffffffffff1673ffffffffffffffffffffffffffffffffffffffff16815260200190815260200160002060009054906101000a900460ff16610ab5576040517f08c379a0000000000000000000000000000000000000000000000000000000008152600401610aac90612f5a565b60405180910390fd5b6000805480602002602001604051908101604052809291908181526020018280548015610b3757602002820191906000526020600020905b8160009054906101000a900473ffffffffffffffffffffffffffffffffffffffff1673ffffffffffffffffffffffffffffffffffffffff1681526020019060010190808311610aed575b5050505050905090565b6060600460008373ffffffffffffffffffffffffffffffffffffffff1673ffffffffffffffffffffffffffffffffffffffff168152602001908152602001600020805480602002602001604051908101604052809291908181526020018280548015610bcc57602002820191906000526020600020905b815481526020019060010190808311610bb8575b50505050509050919050565b600260003373ffffffffffffffffffffffffffffffffffffffff1673ffffffffffffffffffffffffffffffffffffffff16815260200190815260200160002060009054906101000a900460ff16610c64576040517f08c379a0000000000000000000000000000000000000000000000000000000008152600401610c5b90612f5a565b60405180910390fd5b600073ffffffffffffffffffffffffffffffffffffffff168173ffffffffffffffffffffffffffffffffffffffff161415610cd4576040517f08c379a0000000000000000000000000000000000000000000000000000000008152600401610ccb90612eda565b60405180910390fd5b600260008273ffffffffffffffffffffffffffffffffffffffff1673ffffffffffffffffffffffffffffffffffffffff16815260200190815260200160002060009054906101000a900460ff1615610d61576040517f08c379a0000000000000000000000000000000000000000000000000000000008152600401610d5890612efa565b60405180910390fd5b6001600260008373ffffffffffffffffffffffffffffffffffffffff1673ffffffffffffffffffffffffffffffffffffffff16815260200190815260200160002060006101000a81548160ff0219169083151502179055506000819080600181540180825580915050600190039060005260206000200160009091909190916101000a81548173ffffffffffffffffffffffffffffffffffffffff021916908373ffffffffffffffffffffffffffffffffffffffff1602179055508073ffffffffffffffffffffffffffffffffffffffff163373ffffffffffffffffffffffffffffffffffffffff167f16d390bfcd7f768e993e75948075b6927bc51a6ed5ba13ca1289f63cb8149e0860405160405180910390a350565b60036020528060005260406000206000915090508060000154908060010154908060020154908060030154908060040154908060050154908060060160009054906101000a900460b01b9080600601600a9054906101000a900460c01b90806007018054610ee690613406565b80601f0160208091040260200160405190810160405280929190818152602001828054610f1290613406565b8015610f5f5780601f10610f3457610100808354040283529160200191610f5f565b820191906000526020600020905b815481529060010190602001808311610f4257829003601f168201915b505050505090806008018054610f7490613406565b80601f0160208091040260200160405190810160405280929190818152602001828054610fa090613406565b8015610fed5780601f10610fc257610100808354040283529160200191610fed565b820191906000526020600020905b815481529060010190602001808311610fd057829003601f168201915b5050505050908060090160009054906101000a900460ff1690508b565b60606001805480602002602001604051908101604052809291908181526020016000905b8282101561127257838290600052602060002090600a0201604051806101600160405290816000820154815260200160018201548152602001600282015481526020016003820154815260200160048201548152602001600582015481526020016006820160009054906101000a900460b01b75ffffffffffffffffffffffffffffffffffffffffffff191675ffffffffffffffffffffffffffffffffffffffffffff1916815260200160068201600a9054906101000a900460c01b77ffffffffffffffffffffffffffffffffffffffffffffffff191677ffffffffffffffffffffffffffffffffffffffffffffffff1916815260200160078201805461113490613406565b80601f016020809104026020016040519081016040528092919081815260200182805461116090613406565b80156111ad5780601f10611182576101008083540402835291602001916111ad565b820191906000526020600020905b81548152906001019060200180831161119057829003601f168201915b505050505081526020016008820180546111c690613406565b80601f01602080910402602001604051908101604052809291908181526020018280546111f290613406565b801561123f5780601f106112145761010080835404028352916020019161123f565b820191906000526020600020905b81548152906001019060200180831161122257829003601f168201915b505050505081526020016009820160009054906101000a900460ff1615151515815250508152602001906001019061102e565b50505050905090565b6004602052816000526040600020818154811061129757600080fd5b90600052602060002001600091509150505481565b600080600080600080600080606080600080600360008e8152602001908152602001600020604051806101600160405290816000820154815260200160018201548152602001600282015481526020016003820154815260200160048201548152602001600582015481526020016006820160009054906101000a900460b01b75ffffffffffffffffffffffffffffffffffffffffffff191675ffffffffffffffffffffffffffffffffffffffffffff1916815260200160068201600a9054906101000a900460c01b77ffffffffffffffffffffffffffffffffffffffffffffffff191677ffffffffffffffffffffffffffffffffffffffffffffffff191681526020016007820180546113bf90613406565b80601f01602080910402602001604051908101604052809291908181526020018280546113eb90613406565b80156114385780601f1061140d57610100808354040283529160200191611438565b820191906000526020600020905b81548152906001019060200180831161141b57829003601f168201915b5050505050815260200160088201805461145190613406565b80601f016020809104026020016040519081016040528092919081815260200182805461147d90613406565b80156114ca5780601f1061149f576101008083540402835291602001916114ca565b820191906000526020600020905b8154815290600101906020018083116114ad57829003601f168201915b505050505081526020016009820160009054906101000a900460ff1615151515815250509050806000015181602001518260400151836060015184608001518560a001518660c001518760e001518861010001518961012001518a61014001519b509b509b509b509b509b509b509b509b509b509b505091939597999b90929496989a50565b600260003373ffffffffffffffffffffffffffffffffffffffff1673ffffffffffffffffffffffffffffffffffffffff16815260200190815260200160002060009054906101000a900460ff166115dc576040517f08c379a00000000000000000000000000000000000000000000000000000000081526004016115d390612f5a565b60405180910390fd5b89600360008d81526020019081526020016000206001018190555088600360008d81526020019081526020016000206002018190555087600360008d81526020019081526020016000206003018190555086600360008d81526020019081526020016000206004018190555085600360008d8152602001908152602001600020600701908051906020019061167292919061247d565b5084600360008d81526020019081526020016000206005018190555083600360008d815260200190815260200160002060080190805190602001906116b892919061247d565b5082600360008d815260200190815260200160002060060160006101000a81548169ffffffffffffffffffff021916908360b01c021790555081600360008d8152602001908152602001600020600601600a6101000a81548167ffffffffffffffff021916908360c01c021790555080600360008d815260200190815260200160002060090160006101000a81548160ff021916908315150217905550896001808d611764919061327e565b8154811061179b577f4e487b7100000000000000000000000000000000000000000000000000000000600052603260045260246000fd5b90600052602060002090600a020160010181905550886001808d6117bf919061327e565b815481106117f6577f4e487b7100000000000000000000000000000000000000000000000000000000600052603260045260246000fd5b90600052602060002090600a020160020181905550876001808d61181a919061327e565b81548110611851577f4e487b7100000000000000000000000000000000000000000000000000000000600052603260045260246000fd5b90600052602060002090600a020160030181905550866001808d611875919061327e565b815481106118ac577f4e487b7100000000000000000000000000000000000000000000000000000000600052603260045260246000fd5b90600052602060002090600a020160040181905550856001808d6118d0919061327e565b81548110611907577f4e487b7100000000000000000000000000000000000000000000000000000000600052603260045260246000fd5b90600052602060002090600a0201600701908051906020019061192b92919061247d565b50846001808d61193b919061327e565b81548110611972577f4e487b7100000000000000000000000000000000000000000000000000000000600052603260045260246000fd5b90600052602060002090600a020160050181905550836001808d611996919061327e565b815481106119cd577f4e487b7100000000000000000000000000000000000000000000000000000000600052603260045260246000fd5b90600052602060002090600a020160080190805190602001906119f192919061247d565b50826001808d611a01919061327e565b81548110611a38577f4e487b7100000000000000000000000000000000000000000000000000000000600052603260045260246000fd5b90600052602060002090600a020160060160006101000a81548169ffffffffffffffffffff021916908360b01c0217905550816001808d611a79919061327e565b81548110611ab0577f4e487b7100000000000000000000000000000000000000000000000000000000600052603260045260246000fd5b90600052602060002090600a0201600601600a6101000a81548167ffffffffffffffff021916908360c01c0217905550806001808d611aef919061327e565b81548110611b26577f4e487b7100000000000000000000000000000000000000000000000000000000600052603260045260246000fd5b90600052602060002090600a020160090160006101000a81548160ff0219169083151502179055508a3373ffffffffffffffffffffffffffffffffffffffff167fd753a37b2c8dddd96ff531876ed175cc6e8ea9b3c7e5ded022ed1f4920af2ae960405160405180910390a35050505050505050505050565b6000600260008373ffffffffffffffffffffffffffffffffffffffff1673ffffffffffffffffffffffffffffffffffffffff16815260200190815260200160002060009054906101000a900460ff169050919050565b600260003373ffffffffffffffffffffffffffffffffffffffff1673ffffffffffffffffffffffffffffffffffffffff16815260200190815260200160002060009054906101000a900460ff16611c81576040517f08c379a0000000000000000000000000000000000000000000000000000000008152600401611c7890612f5a565b60405180910390fd5b600060018080549050611c949190613228565b905060006040518061016001604052808381526020018d81526020018c81526020018b81526020018a81526020018881526020018675ffffffffffffffffffffffffffffffffffffffffffff191681526020018577ffffffffffffffffffffffffffffffffffffffffffffffff1916815260200189815260200187815260200184151581525090508060036000848152602001908152602001600020600082015181600001556020820151816001015560408201518160020155606082015181600301556080820151816004015560a0820151816005015560c08201518160060160006101000a81548169ffffffffffffffffffff021916908360b01c021790555060e082015181600601600a6101000a81548167ffffffffffffffff021916908360c01c0217905550610100820151816007019080519060200190611ddb92919061247d565b50610120820151816008019080519060200190611df992919061247d565b506101408201518160090160006101000a81548160ff02191690831515021790555090505060018190806001815401808255809150506001900390600052602060002090600a0201600090919091909150600082015181600001556020820151816001015560408201518160020155606082015181600301556080820151816004015560a0820151816005015560c08201518160060160006101000a81548169ffffffffffffffffffff021916908360b01c021790555060e082015181600601600a6101000a81548167ffffffffffffffff021916908360c01c0217905550610100820151816007019080519060200190611ef592919061247d565b50610120820151816008019080519060200190611f1392919061247d565b506101408201518160090160006101000a81548160ff0219169083151502179055505050813373ffffffffffffffffffffffffffffffffffffffff167f9fb9920c00a6782a435c365a93e14495a7a7b2a1bc08a81d00b21f1c2ffcf3078e8e8e8e8e8e8e8e8d604051611f8e99989796959493929190612f95565b60405180910390a3505050505050505050505050565b600260003373ffffffffffffffffffffffffffffffffffffffff1673ffffffffffffffffffffffffffffffffffffffff16815260200190815260200160002060009054906101000a900460ff16612030576040517f08c379a000000000000000000000000000000000000000000000000000000000815260040161202790612f5a565b60405180910390fd5b600073ffffffffffffffffffffffffffffffffffffffff168273ffffffffffffffffffffffffffffffffffffffff1614156120a0576040517f08c379a000000000000000000000000000000000000000000000000000000000815260040161209790612eda565b60405180910390fd5b600260008373ffffffffffffffffffffffffffffffffffffffff1673ffffffffffffffffffffffffffffffffffffffff16815260200190815260200160002060009054906101000a900460ff1661212c576040517f08c379a000000000000000000000000000000000000000000000000000000000815260040161212390612f1a565b60405180910390fd5b6000600260008473ffffffffffffffffffffffffffffffffffffffff1673ffffffffffffffffffffffffffffffffffffffff16815260200190815260200160002060006101000a81548160ff02191690831515021790555060006001600080549050612198919061327e565b815481106121cf577f4e487b7100000000000000000000000000000000000000000000000000000000600052603260045260246000fd5b9060005260206000200160009054906101000a900473ffffffffffffffffffffffffffffffffffffffff1660008281548110612234577f4e487b7100000000000000000000000000000000000000000000000000000000600052603260045260246000fd5b9060005260206000200160006101000a81548173ffffffffffffffffffffffffffffffffffffffff021916908373ffffffffffffffffffffffffffffffffffffffff16021790555060008054806122b4577f4e487b7100000000000000000000000000000000000000000000000000000000600052603160045260246000fd5b6001900381819060005260206000200160006101000a81549073ffffffffffffffffffffffffffffffffffffffff021916905590558173ffffffffffffffffffffffffffffffffffffffff163373ffffffffffffffffffffffffffffffffffffffff167faa2f779dd42ed572be732a547777489345cbcfa6ced22183c0d33b3fbedefebc60405160405180910390a35050565b600260003373ffffffffffffffffffffffffffffffffffffffff1673ffffffffffffffffffffffffffffffffffffffff16815260200190815260200160002060009054906101000a900460ff166123d3576040517f08c379a00000000000000000000000000000000000000000000000000000000081526004016123ca90612f5a565b60405180910390fd5b60004790508173ffffffffffffffffffffffffffffffffffffffff166108fc829081150290604051600060405180830381858888f1935050505015801561241e573d6000803e3d6000fd5b508173ffffffffffffffffffffffffffffffffffffffff163373ffffffffffffffffffffffffffffffffffffffff167ff940e3851549e5c2062f065152e2151c57f5902a4d0de0f053e7f80205e4aabf60405160405180910390a35050565b82805461248990613406565b90600052602060002090601f0160209004810192826124ab57600085556124f2565b82601f106124c457805160ff19168380011785556124f2565b828001600101855582156124f2579182015b828111156124f15782518255916020019190600101906124d6565b5b5090506124ff9190612503565b5090565b5b8082111561251c576000816000905550600101612504565b5090565b600061253361252e8461310e565b6130e9565b90508281526020810184848401111561254b57600080fd5b61255684828561339a565b509392505050565b60008135905061256d81613626565b92915050565b6000813590506125828161363d565b92915050565b60008135905061259781613654565b92915050565b6000813590506125ac8161366b565b92915050565b6000813590506125c181613682565b92915050565b6000813590506125d681613699565b92915050565b6000813590506125eb816136b0565b92915050565b600082601f83011261260257600080fd5b8135612612848260208601612520565b91505092915050565b60008135905061262a816136c7565b92915050565b60006020828403121561264257600080fd5b60006126508482850161255e565b91505092915050565b60006020828403121561266b57600080fd5b600061267984828501612573565b91505092915050565b6000806040838503121561269557600080fd5b60006126a38582860161255e565b92505060206126b48582860161261b565b9150509250929050565b6000602082840312156126d057600080fd5b60006126de8482850161261b565b91505092915050565b600080604083850312156126fa57600080fd5b60006127088582860161261b565b9250506020612719858286016125b2565b9150509250929050565b6000806000806000806000806000806101408b8d03121561274357600080fd5b60006127518d828e0161261b565b9a505060206127628d828e0161261b565b99505060406127738d828e016125c7565b98505060606127848d828e016125c7565b97505060808b013567ffffffffffffffff8111156127a157600080fd5b6127ad8d828e016125f1565b96505060a06127be8d828e016125c7565b95505060c08b013567ffffffffffffffff8111156127db57600080fd5b6127e78d828e016125f1565b94505060e06127f88d828e0161259d565b93505061010061280a8d828e016125dc565b92505061012061281c8d828e01612588565b9150509295989b9194979a5092959850565b60008060008060008060008060008060006101608c8e03121561285057600080fd5b600061285e8e828f0161261b565b9b5050602061286f8e828f0161261b565b9a505060406128808e828f0161261b565b99505060606128918e828f016125c7565b98505060806128a28e828f016125c7565b97505060a08c013567ffffffffffffffff8111156128bf57600080fd5b6128cb8e828f016125f1565b96505060c06128dc8e828f016125c7565b95505060e08c013567ffffffffffffffff8111156128f957600080fd5b6129058e828f016125f1565b9450506101006129178e828f0161259d565b9350506101206129298e828f016125dc565b92505061014061293b8e828f01612588565b9150509295989b509295989b9093969950565b600061295a8383612992565b60208301905092915050565b60006129728383612ccf565b905092915050565b60006129868383612dc5565b60208301905092915050565b61299b816132b2565b82525050565b6129aa816132b2565b82525050565b60006129bb8261316f565b6129c581856131c2565b93506129d08361313f565b8060005b83811015612a015781516129e8888261294e565b97506129f38361319b565b9250506001810190506129d4565b5085935050505092915050565b6000612a198261317a565b612a2381856131d3565b935083602082028501612a358561314f565b8060005b85811015612a715784840389528151612a528582612966565b9450612a5d836131a8565b925060208a01995050600181019050612a39565b50829750879550505050505092915050565b6000612a8e82613185565b612a9881856131e4565b9350612aa38361315f565b8060005b83811015612ad4578151612abb888261297a565b9750612ac6836131b5565b925050600181019050612aa7565b5085935050505092915050565b612aea816132d6565b82525050565b612af9816132d6565b82525050565b612b08816132e2565b82525050565b612b17816132e2565b82525050565b612b268161330e565b82525050565b612b358161333a565b82525050565b612b448161333a565b82525050565b612b5381613344565b82525050565b612b6281613344565b82525050565b6000612b7382613190565b612b7d81856131f5565b9350612b8d8185602086016133a9565b612b96816134f6565b840191505092915050565b6000612bac82613190565b612bb68185613206565b9350612bc68185602086016133a9565b612bcf816134f6565b840191505092915050565b6000612be7601983613217565b9150612bf282613507565b602082019050919050565b6000612c0a601a83613217565b9150612c1582613530565b602082019050919050565b6000612c2d600d83613217565b9150612c3882613559565b602082019050919050565b6000612c50601483613217565b9150612c5b82613582565b602082019050919050565b6000612c73601183613217565b9150612c7e826135ab565b602082019050919050565b6000612c96601183613217565b9150612ca1826135d4565b602082019050919050565b6000612cb9601283613217565b9150612cc4826135fd565b602082019050919050565b600061016083016000830151612ce86000860182612dc5565b506020830151612cfb6020860182612dc5565b506040830151612d0e6040860182612dc5565b506060830151612d216060860182612b2c565b506080830151612d346080860182612b2c565b5060a0830151612d4760a0860182612b2c565b5060c0830151612d5a60c0860182612aff565b5060e0830151612d6d60e0860182612b4a565b50610100830151848203610100860152612d878282612b68565b915050610120830151848203610120860152612da38282612b68565b915050610140830151612dba610140860182612ae1565b508091505092915050565b612dce81613390565b82525050565b612ddd81613390565b82525050565b6000602082019050612df860008301846129a1565b92915050565b60006020820190508181036000830152612e1881846129b0565b905092915050565b60006020820190508181036000830152612e3a8184612a0e565b905092915050565b60006020820190508181036000830152612e5c8184612a83565b905092915050565b6000602082019050612e796000830184612af0565b92915050565b6000602082019050612e946000830184612b1d565b92915050565b60006020820190508181036000830152612eb381612bda565b9050919050565b60006020820190508181036000830152612ed381612bfd565b9050919050565b60006020820190508181036000830152612ef381612c20565b9050919050565b60006020820190508181036000830152612f1381612c43565b9050919050565b60006020820190508181036000830152612f3381612c66565b9050919050565b60006020820190508181036000830152612f5381612c89565b9050919050565b60006020820190508181036000830152612f7381612cac565b9050919050565b6000602082019050612f8f6000830184612dd4565b92915050565b600061012082019050612fab600083018c612dd4565b612fb8602083018b612dd4565b612fc5604083018a612b3b565b612fd26060830189612b3b565b8181036080830152612fe48188612ba1565b9050612ff360a0830187612b3b565b81810360c08301526130058186612ba1565b905061301460e0830185612b0e565b613022610100830184612af0565b9a9950505050505050505050565b600061016082019050613046600083018e612dd4565b613053602083018d612dd4565b613060604083018c612dd4565b61306d606083018b612b3b565b61307a608083018a612b3b565b61308760a0830189612b3b565b61309460c0830188612b0e565b6130a160e0830187612b59565b8181036101008301526130b48186612ba1565b90508181036101208301526130c98185612ba1565b90506130d9610140830184612af0565b9c9b505050505050505050505050565b60006130f3613104565b90506130ff8282613438565b919050565b6000604051905090565b600067ffffffffffffffff821115613129576131286134c7565b5b613132826134f6565b9050602081019050919050565b6000819050602082019050919050565b6000819050602082019050919050565b6000819050602082019050919050565b600081519050919050565b600081519050919050565b600081519050919050565b600081519050919050565b6000602082019050919050565b6000602082019050919050565b6000602082019050919050565b600082825260208201905092915050565b600082825260208201905092915050565b600082825260208201905092915050565b600082825260208201905092915050565b600082825260208201905092915050565b600082825260208201905092915050565b600061323382613390565b915061323e83613390565b9250827fffffffffffffffffffffffffffffffffffffffffffffffffffffffffffffffff0382111561327357613272613469565b5b828201905092915050565b600061328982613390565b915061329483613390565b9250828210156132a7576132a6613469565b5b828203905092915050565b60006132bd82613370565b9050919050565b60006132cf82613370565b9050919050565b60008115159050919050565b60007fffffffffffffffffffff0000000000000000000000000000000000000000000082169050919050565b60007fffffffffffffffffffffffffffffffffffffffffffffffff000000000000000082169050919050565b6000819050919050565b60007fffffffffffffffff00000000000000000000000000000000000000000000000082169050919050565b600073ffffffffffffffffffffffffffffffffffffffff82169050919050565b6000819050919050565b82818337600083830152505050565b60005b838110156133c75780820151818401526020810190506133ac565b838111156133d6576000848401525b50505050565b60006133e782613390565b915060008214156133fb576133fa613469565b5b600182039050919050565b6000600282049050600182168061341e57607f821691505b6020821081141561343257613431613498565b5b50919050565b613441826134f6565b810181811067ffffffffffffffff821117156134605761345f6134c7565b5b80604052505050565b7f4e487b7100000000000000000000000000000000000000000000000000000000600052601160045260246000fd5b7f4e487b7100000000000000000000000000000000000000000000000000000000600052602260045260246000fd5b7f4e487b7100000000000000000000000000000000000000000000000000000000600052604160045260246000fd5b6000601f19601f8301169050919050565b7f4576656e742069732064656c6574656420616c72656164792100000000000000600082015250565b7f506c6561736520636865636b207469636b657420707269636521000000000000600082015250565b7f696e76616c6964206f776e657200000000000000000000000000000000000000600082015250565b7f6f776e65722065786973747320616c7265616479000000000000000000000000600082015250565b7f6f776e6572206e6f742065786973747321000000000000000000000000000000600082015250565b7f416c6c207469636b65747320736f6c6421000000000000000000000000000000600082015250565b7f596f7520617265206e6f74206f776e6572210000000000000000000000000000600082015250565b61362f816132b2565b811461363a57600080fd5b50565b613646816132c4565b811461365157600080fd5b50565b61365d816132d6565b811461366857600080fd5b50565b613674816132e2565b811461367f57600080fd5b50565b61368b8161330e565b811461369657600080fd5b50565b6136a28161333a565b81146136ad57600080fd5b50565b6136b981613344565b81146136c457600080fd5b50565b6136d081613390565b81146136db57600080fd5b5056fea26469706673582212206919ab71b39bdeff260e4cf89d8d16e928b505bfff09d15e825b0cfcb2de4be664736f6c63430008010033",
  "immutableReferences": {},
  "source": "// SPDX-License-Identifier: MIT\r\npragma solidity ^0.8.1;\r\n\r\ncontract Ticket {\r\n    struct EventInfo {\r\n        uint id;\r\n        uint ticketCount;\r\n        uint price;\r\n        bytes32 date;\r\n        bytes32 name;\r\n        bytes32 city;\r\n        bytes10 category;\r\n        bytes8 time;\r\n        bytes location;\r\n        bytes description;\r\n        bool isActive;\r\n    }\r\n    \r\n    address[] public owners;\r\n    EventInfo[] public events;\r\n    mapping(address => bool) public isOwner;\r\n    mapping(uint => EventInfo) public findEvent;\r\n    mapping(address => uint[]) public userEvents;\r\n    \r\n    event createEvent(address indexed owner, uint indexed id, uint _ticketCount, uint _price, bytes32 _date, bytes32 _name, bytes _location, bytes32 _city, bytes _description, bytes10 _category, bool _isActive);\r\n    event deleteEvent(address indexed owner, uint indexed id);\r\n    event editEvent(address indexed owner, uint indexed id);\r\n    event buyTicket(address indexed sender, uint indexed id, bytes24 time);\r\n    event withdraw(address indexed _from, address indexed _to);\r\n    event addOwner(address indexed sender, address indexed newOwner);\r\n    event deleteOwner(address indexed sender, address indexed deletedAddress);\r\n    \r\n    constructor(address[] memory _owners) {\r\n        for(uint i = 0; i < _owners.length; i++) {\r\n            address owner = _owners[i];\r\n            require(owner != address(0), \"invalid owner\");\r\n            require(!isOwner[owner], \"owner exists already\");\r\n            \r\n            isOwner[owner] = true;\r\n            owners.push(owner);\r\n        }\r\n    }\r\n    \r\n    modifier onlyOwner() {\r\n        require(isOwner[msg.sender], \"You are not owner!\");\r\n        _;\r\n    }\r\n\r\n    function GetOwners() external view onlyOwner returns(address[] memory)  {\r\n        return owners;\r\n    }\r\n\r\n    function GetUserEvents(address _address) external view returns(uint[] memory) {\r\n        return userEvents[_address];\r\n    }\r\n    \r\n    function CreateEvent(uint _ticketCount, uint _price, bytes32 _date, bytes32 _name, bytes memory _location, bytes32 _city, bytes memory _description, bytes10 _category, bytes8 _time, bool _isActive) external onlyOwner {\r\n        uint id = events.length + 1;\r\n        EventInfo memory _event = EventInfo(id, _ticketCount, _price, _date, _name, _city, _category, _time, _location, _description, _isActive);\r\n        findEvent[id] = _event;\r\n        events.push(_event);\r\n        emit createEvent(msg.sender, id, _ticketCount, _price, _date, _name, _location, _city, _description, _category, _isActive);\r\n    }\r\n    \r\n    function GetEvent(uint id) public view returns(uint, uint, uint, bytes32, bytes32, bytes32, bytes10, bytes8, bytes memory, bytes memory, bool) {\r\n        EventInfo memory _event = findEvent[id]; \r\n        return (_event.id, _event.ticketCount, _event.price, _event.date, _event.name,  _event.city, _event.category, _event.time, _event.location, _event.description, _event.isActive);\r\n    }\r\n\r\n    function GetEvents() external view returns(EventInfo[] memory) {\r\n        return events;\r\n    }\r\n    \r\n    function DeleteEvent(uint id) public onlyOwner{\r\n        require(findEvent[id].isActive, \"Event is deleted already!\");\r\n        findEvent[id].isActive = false;\r\n        emit deleteEvent(msg.sender, id);\r\n    }\r\n    \r\n    function EditEvent(uint id, uint _ticketCount, uint _price, bytes32 _date, bytes32 _name, bytes memory _location, bytes32 _city, bytes memory _description, bytes10 _category, bytes8 _time, bool _isActive) external onlyOwner {\r\n        findEvent[id].ticketCount = _ticketCount;\r\n        findEvent[id].price = _price;\r\n        findEvent[id].date = _date;\r\n        findEvent[id].name = _name;\r\n        findEvent[id].location = _location;\r\n        findEvent[id].city = _city;\r\n        findEvent[id].description = _description;\r\n        findEvent[id].category = _category;\r\n        findEvent[id].time = _time;\r\n        findEvent[id].isActive = _isActive;\r\n        events[id - 1].ticketCount = _ticketCount;\r\n        events[id - 1].price = _price;\r\n        events[id - 1].date = _date;\r\n        events[id - 1].name = _name;\r\n        events[id - 1].location = _location;\r\n        events[id - 1].city = _city;\r\n        events[id - 1].description = _description;\r\n        events[id - 1].category = _category;\r\n        events[id - 1].time = _time;\r\n        events[id - 1].isActive = _isActive;\r\n        emit editEvent(msg.sender, id);\r\n    }\r\n    \r\n    function BuyTicket(uint id, bytes24 time) external payable {\r\n        require(findEvent[id].ticketCount > 0, \"All tickets sold!\");\r\n        require(findEvent[id].price <= msg.value, \"Please check ticket price!\");\r\n        userEvents[msg.sender].push(id);\r\n        findEvent[id].ticketCount--;\r\n        events[id - 1].ticketCount--;\r\n        if (findEvent[id].ticketCount <= 0) {\r\n            findEvent[id].isActive = false;\r\n        }\r\n        emit buyTicket(msg.sender, id, time);\r\n    }\r\n    \r\n    function Withdraw(address payable _to) public onlyOwner {\r\n        uint balance = address(this).balance;\r\n        _to.transfer(balance);\r\n        emit withdraw(msg.sender, _to);\r\n    }\r\n    \r\n    function AddOwner(address _newOwner) external onlyOwner {\r\n        require(_newOwner != address(0), \"invalid owner\");\r\n        require(!isOwner[_newOwner], \"owner exists already\");\r\n        isOwner[_newOwner] = true;\r\n        owners.push(_newOwner);\r\n        emit addOwner(msg.sender, _newOwner);\r\n    }\r\n    \r\n    function DeleteOwner(address _owner, uint index) external onlyOwner {\r\n        require(_owner != address(0), \"invalid owner\");\r\n        require(isOwner[_owner], \"owner not exists!\");\r\n        isOwner[_owner] = false;\r\n        owners[index] = owners[owners.length - 1];\r\n        owners.pop();\r\n        emit deleteOwner(msg.sender, _owner);\r\n    }\r\n\r\n    function IsOwner(address _address) external view returns(bool) {\r\n        return isOwner[_address];\r\n    }\r\n}\r\n",
  "sourcePath": "C:/Users/User/Desktop/Solidity Projects/TicketSite/contracts/Ticket.sol",
  "compiler": {
    "name": "solc",
    "version": "0.8.1+commit.df193b15.Emscripten.clang"
  },
  "schemaVersion": "3.4.1",
  "updatedAt": "2022-01-01T23:18:49.867Z",
  "networkType": "ethereum",
  "devdoc": {
    "kind": "dev",
    "methods": {},
    "version": 1
  },
  "userdoc": {
    "kind": "user",
    "methods": {},
    "version": 1
  }
}