{
  "contractName": "Ticket",
  "abi": [
    {
      "inputs": [
        {
          "internalType": "address[]",
          "name": "_owners",
          "type": "address[]"
        }
      ],
      "stateMutability": "nonpayable",
      "type": "constructor"
    },
    {
      "anonymous": false,
      "inputs": [
        {
          "indexed": true,
          "internalType": "address",
          "name": "sender",
          "type": "address"
        },
        {
          "indexed": true,
          "internalType": "address",
          "name": "newOwner",
          "type": "address"
        }
      ],
      "name": "addOwner",
      "type": "event"
    },
    {
      "anonymous": false,
      "inputs": [
        {
          "indexed": true,
          "internalType": "address",
          "name": "sender",
          "type": "address"
        },
        {
          "indexed": true,
          "internalType": "uint256",
          "name": "id",
          "type": "uint256"
        }
      ],
      "name": "buyTicket",
      "type": "event"
    },
    {
      "anonymous": false,
      "inputs": [
        {
          "indexed": true,
          "internalType": "address",
          "name": "owner",
          "type": "address"
        },
        {
          "indexed": true,
          "internalType": "uint256",
          "name": "id",
          "type": "uint256"
        },
        {
          "indexed": false,
          "internalType": "uint256",
          "name": "_ticketCount",
          "type": "uint256"
        },
        {
          "indexed": false,
          "internalType": "uint256",
          "name": "_price",
          "type": "uint256"
        },
        {
          "indexed": false,
          "internalType": "string",
          "name": "_date",
          "type": "string"
        },
        {
          "indexed": false,
          "internalType": "string",
          "name": "_name",
          "type": "string"
        },
        {
          "indexed": false,
          "internalType": "string",
          "name": "_location",
          "type": "string"
        },
        {
          "indexed": false,
          "internalType": "string",
          "name": "_description",
          "type": "string"
        },
        {
          "indexed": false,
          "internalType": "bool",
          "name": "_isActive",
          "type": "bool"
        }
      ],
      "name": "createEvent",
      "type": "event"
    },
    {
      "anonymous": false,
      "inputs": [
        {
          "indexed": true,
          "internalType": "address",
          "name": "owner",
          "type": "address"
        },
        {
          "indexed": true,
          "internalType": "uint256",
          "name": "id",
          "type": "uint256"
        }
      ],
      "name": "deleteEvent",
      "type": "event"
    },
    {
      "anonymous": false,
      "inputs": [
        {
          "indexed": true,
          "internalType": "address",
          "name": "sender",
          "type": "address"
        },
        {
          "indexed": true,
          "internalType": "address",
          "name": "deletedAddress",
          "type": "address"
        }
      ],
      "name": "deleteOwner",
      "type": "event"
    },
    {
      "anonymous": false,
      "inputs": [
        {
          "indexed": true,
          "internalType": "address",
          "name": "owner",
          "type": "address"
        },
        {
          "indexed": true,
          "internalType": "uint256",
          "name": "id",
          "type": "uint256"
        }
      ],
      "name": "editEvent",
      "type": "event"
    },
    {
      "anonymous": false,
      "inputs": [
        {
          "indexed": true,
          "internalType": "address",
          "name": "_from",
          "type": "address"
        },
        {
          "indexed": true,
          "internalType": "address",
          "name": "_to",
          "type": "address"
        }
      ],
      "name": "withdraw",
      "type": "event"
    },
    {
      "inputs": [
        {
          "internalType": "uint256",
          "name": "",
          "type": "uint256"
        }
      ],
      "name": "events",
      "outputs": [
        {
          "internalType": "uint256",
          "name": "id",
          "type": "uint256"
        },
        {
          "internalType": "uint256",
          "name": "ticketCount",
          "type": "uint256"
        },
        {
          "internalType": "uint256",
          "name": "price",
          "type": "uint256"
        },
        {
          "internalType": "string",
          "name": "date",
          "type": "string"
        },
        {
          "internalType": "string",
          "name": "name",
          "type": "string"
        },
        {
          "internalType": "string",
          "name": "location",
          "type": "string"
        },
        {
          "internalType": "string",
          "name": "description",
          "type": "string"
        },
        {
          "internalType": "bool",
          "name": "isActive",
          "type": "bool"
        }
      ],
      "stateMutability": "view",
      "type": "function",
      "constant": true
    },
    {
      "inputs": [
        {
          "internalType": "uint256",
          "name": "",
          "type": "uint256"
        }
      ],
      "name": "findEvent",
      "outputs": [
        {
          "internalType": "uint256",
          "name": "id",
          "type": "uint256"
        },
        {
          "internalType": "uint256",
          "name": "ticketCount",
          "type": "uint256"
        },
        {
          "internalType": "uint256",
          "name": "price",
          "type": "uint256"
        },
        {
          "internalType": "string",
          "name": "date",
          "type": "string"
        },
        {
          "internalType": "string",
          "name": "name",
          "type": "string"
        },
        {
          "internalType": "string",
          "name": "location",
          "type": "string"
        },
        {
          "internalType": "string",
          "name": "description",
          "type": "string"
        },
        {
          "internalType": "bool",
          "name": "isActive",
          "type": "bool"
        }
      ],
      "stateMutability": "view",
      "type": "function",
      "constant": true
    },
    {
      "inputs": [
        {
          "internalType": "address",
          "name": "",
          "type": "address"
        }
      ],
      "name": "isOwner",
      "outputs": [
        {
          "internalType": "bool",
          "name": "",
          "type": "bool"
        }
      ],
      "stateMutability": "view",
      "type": "function",
      "constant": true
    },
    {
      "inputs": [
        {
          "internalType": "uint256",
          "name": "",
          "type": "uint256"
        }
      ],
      "name": "owners",
      "outputs": [
        {
          "internalType": "address",
          "name": "",
          "type": "address"
        }
      ],
      "stateMutability": "view",
      "type": "function",
      "constant": true
    },
    {
      "inputs": [
        {
          "internalType": "address",
          "name": "",
          "type": "address"
        },
        {
          "internalType": "uint256",
          "name": "",
          "type": "uint256"
        }
      ],
      "name": "userEvents",
      "outputs": [
        {
          "internalType": "uint256",
          "name": "",
          "type": "uint256"
        }
      ],
      "stateMutability": "view",
      "type": "function",
      "constant": true
    },
    {
      "inputs": [],
      "name": "GetOwners",
      "outputs": [
        {
          "internalType": "address[]",
          "name": "",
          "type": "address[]"
        }
      ],
      "stateMutability": "view",
      "type": "function",
      "constant": true
    },
    {
      "inputs": [
        {
          "internalType": "uint256",
          "name": "_ticketCount",
          "type": "uint256"
        },
        {
          "internalType": "uint256",
          "name": "_price",
          "type": "uint256"
        },
        {
          "internalType": "string",
          "name": "_date",
          "type": "string"
        },
        {
          "internalType": "string",
          "name": "_name",
          "type": "string"
        },
        {
          "internalType": "string",
          "name": "_location",
          "type": "string"
        },
        {
          "internalType": "string",
          "name": "_description",
          "type": "string"
        },
        {
          "internalType": "bool",
          "name": "_isActive",
          "type": "bool"
        }
      ],
      "name": "CreateEvent",
      "outputs": [],
      "stateMutability": "nonpayable",
      "type": "function"
    },
    {
      "inputs": [
        {
          "internalType": "uint256",
          "name": "id",
          "type": "uint256"
        }
      ],
      "name": "GetEvent",
      "outputs": [
        {
          "components": [
            {
              "internalType": "uint256",
              "name": "id",
              "type": "uint256"
            },
            {
              "internalType": "uint256",
              "name": "ticketCount",
              "type": "uint256"
            },
            {
              "internalType": "uint256",
              "name": "price",
              "type": "uint256"
            },
            {
              "internalType": "string",
              "name": "date",
              "type": "string"
            },
            {
              "internalType": "string",
              "name": "name",
              "type": "string"
            },
            {
              "internalType": "string",
              "name": "location",
              "type": "string"
            },
            {
              "internalType": "string",
              "name": "description",
              "type": "string"
            },
            {
              "internalType": "bool",
              "name": "isActive",
              "type": "bool"
            }
          ],
          "internalType": "struct Ticket.EventInfo",
          "name": "",
          "type": "tuple"
        }
      ],
      "stateMutability": "view",
      "type": "function",
      "constant": true
    },
    {
      "inputs": [
        {
          "internalType": "uint256",
          "name": "id",
          "type": "uint256"
        }
      ],
      "name": "DeleteEvent",
      "outputs": [],
      "stateMutability": "nonpayable",
      "type": "function"
    },
    {
      "inputs": [
        {
          "internalType": "uint256",
          "name": "id",
          "type": "uint256"
        },
        {
          "internalType": "uint256",
          "name": "_ticketCount",
          "type": "uint256"
        },
        {
          "internalType": "uint256",
          "name": "_price",
          "type": "uint256"
        },
        {
          "internalType": "string",
          "name": "_date",
          "type": "string"
        },
        {
          "internalType": "string",
          "name": "_name",
          "type": "string"
        },
        {
          "internalType": "string",
          "name": "_location",
          "type": "string"
        },
        {
          "internalType": "string",
          "name": "_description",
          "type": "string"
        },
        {
          "internalType": "bool",
          "name": "_isActive",
          "type": "bool"
        }
      ],
      "name": "EditEvent",
      "outputs": [],
      "stateMutability": "nonpayable",
      "type": "function"
    },
    {
      "inputs": [
        {
          "internalType": "uint256",
          "name": "id",
          "type": "uint256"
        }
      ],
      "name": "BuyTicket",
      "outputs": [],
      "stateMutability": "payable",
      "type": "function",
      "payable": true
    },
    {
      "inputs": [
        {
          "internalType": "address payable",
          "name": "_to",
          "type": "address"
        }
      ],
      "name": "Withdraw",
      "outputs": [],
      "stateMutability": "nonpayable",
      "type": "function"
    },
    {
      "inputs": [
        {
          "internalType": "address",
          "name": "_newOwner",
          "type": "address"
        }
      ],
      "name": "AddOwner",
      "outputs": [],
      "stateMutability": "nonpayable",
      "type": "function"
    },
    {
      "inputs": [
        {
          "internalType": "address",
          "name": "_owner",
          "type": "address"
        },
        {
          "internalType": "uint256",
          "name": "index",
          "type": "uint256"
        }
      ],
      "name": "DeleteOwner",
      "outputs": [],
      "stateMutability": "nonpayable",
      "type": "function"
    }
  ],
  "bytecode": "0x60806040523480156200001157600080fd5b506040516200316438038062003164833981810160405281019062000037919062000320565b60005b81518110156200025f57600082828151811062000080577f4e487b7100000000000000000000000000000000000000000000000000000000600052603260045260246000fd5b60200260200101519050600073ffffffffffffffffffffffffffffffffffffffff168173ffffffffffffffffffffffffffffffffffffffff161415620000fd576040517f08c379a0000000000000000000000000000000000000000000000000000000008152600401620000f490620003b3565b60405180910390fd5b600260008273ffffffffffffffffffffffffffffffffffffffff1673ffffffffffffffffffffffffffffffffffffffff16815260200190815260200160002060009054906101000a900460ff16156200018d576040517f08c379a00000000000000000000000000000000000000000000000000000000081526004016200018490620003d5565b60405180910390fd5b6001600260008373ffffffffffffffffffffffffffffffffffffffff1673ffffffffffffffffffffffffffffffffffffffff16815260200190815260200160002060006101000a81548160ff0219169083151502179055506000819080600181540180825580915050600190039060005260206000200160009091909190916101000a81548173ffffffffffffffffffffffffffffffffffffffff021916908373ffffffffffffffffffffffffffffffffffffffff1602179055505080806200025690620004d4565b9150506200003a565b5050620005fd565b60006200027e620002788462000420565b620003f7565b905080838252602082019050828560208602820111156200029e57600080fd5b60005b85811015620002d25781620002b78882620002dc565b845260208401935060208301925050600181019050620002a1565b5050509392505050565b600081519050620002ed81620005e3565b92915050565b600082601f8301126200030557600080fd5b81516200031784826020860162000267565b91505092915050565b6000602082840312156200033357600080fd5b600082015167ffffffffffffffff8111156200034e57600080fd5b6200035c84828501620002f3565b91505092915050565b600062000374600d836200044f565b9150620003818262000591565b602082019050919050565b60006200039b6014836200044f565b9150620003a882620005ba565b602082019050919050565b60006020820190508181036000830152620003ce8162000365565b9050919050565b60006020820190508181036000830152620003f0816200038c565b9050919050565b60006200040362000416565b90506200041182826200049e565b919050565b6000604051905090565b600067ffffffffffffffff8211156200043e576200043d62000551565b5b602082029050602081019050919050565b600082825260208201905092915050565b60006200046d8262000474565b9050919050565b600073ffffffffffffffffffffffffffffffffffffffff82169050919050565b6000819050919050565b620004a98262000580565b810181811067ffffffffffffffff82111715620004cb57620004ca62000551565b5b80604052505050565b6000620004e18262000494565b91507fffffffffffffffffffffffffffffffffffffffffffffffffffffffffffffffff82141562000517576200051662000522565b5b600182019050919050565b7f4e487b7100000000000000000000000000000000000000000000000000000000600052601160045260246000fd5b7f4e487b7100000000000000000000000000000000000000000000000000000000600052604160045260246000fd5b6000601f19601f8301169050919050565b7f696e76616c6964206f776e657200000000000000000000000000000000000000600082015250565b7f6f776e65722065786973747320616c7265616479000000000000000000000000600082015250565b620005ee8162000460565b8114620005fa57600080fd5b50565b612b57806200060d6000396000f3fe6080604052600436106100dd5760003560e01c8063938af8981161007f578063bdfc989311610059578063bdfc9893146102cf578063cceb67e31461030c578063e3bf214414610349578063f676115114610372576100dd565b8063938af89814610237578063ac1e9ef414610262578063ad16c2fb1461028b576100dd565b806348c8ba26116100bb57806348c8ba26146101a05780637045c891146101c9578063731fe8da146101f257806376acb5e81461021b576100dd565b8063025e7c27146100e25780630b7914301461011f5780632f54bf6e14610163575b600080fd5b3480156100ee57600080fd5b5061010960048036038101906101049190611eca565b61039b565b60405161011691906123ff565b60405180910390f35b34801561012b57600080fd5b5061014660048036038101906101419190611eca565b6103da565b60405161015a9897969594939291906125ff565b60405180910390f35b34801561016f57600080fd5b5061018a60048036038101906101859190611e3c565b61065f565b604051610197919061243c565b60405180910390f35b3480156101ac57600080fd5b506101c760048036038101906101c29190611eca565b61067f565b005b3480156101d557600080fd5b506101f060048036038101906101eb9190611ff1565b6107e4565b005b3480156101fe57600080fd5b5061021960048036038101906102149190611ef3565b6109ce565b005b61023560048036038101906102309190611eca565b610cbe565b005b34801561024357600080fd5b5061024c610ead565b604051610259919061241a565b60405180910390f35b34801561026e57600080fd5b5061028960048036038101906102849190611e3c565b610fc7565b005b34801561029757600080fd5b506102b260048036038101906102ad9190611eca565b611268565b6040516102c69897969594939291906125ff565b60405180910390f35b3480156102db57600080fd5b506102f660048036038101906102f19190611e8e565b6114dd565b6040516103039190612559565b60405180910390f35b34801561031857600080fd5b50610333600480360381019061032e9190611eca565b61150e565b6040516103409190612537565b60405180910390f35b34801561035557600080fd5b50610370600480360381019061036b9190611e8e565b6117bd565b005b34801561037e57600080fd5b5061039960048036038101906103949190611e65565b611b60565b005b600081815481106103ab57600080fd5b906000526020600020016000915054906101000a900473ffffffffffffffffffffffffffffffffffffffff1681565b600181815481106103ea57600080fd5b906000526020600020906008020160009150905080600001549080600101549080600201549080600301805461041f906128a5565b80601f016020809104026020016040519081016040528092919081815260200182805461044b906128a5565b80156104985780601f1061046d57610100808354040283529160200191610498565b820191906000526020600020905b81548152906001019060200180831161047b57829003601f168201915b5050505050908060040180546104ad906128a5565b80601f01602080910402602001604051908101604052809291908181526020018280546104d9906128a5565b80156105265780601f106104fb57610100808354040283529160200191610526565b820191906000526020600020905b81548152906001019060200180831161050957829003601f168201915b50505050509080600501805461053b906128a5565b80601f0160208091040260200160405190810160405280929190818152602001828054610567906128a5565b80156105b45780601f10610589576101008083540402835291602001916105b4565b820191906000526020600020905b81548152906001019060200180831161059757829003601f168201915b5050505050908060060180546105c9906128a5565b80601f01602080910402602001604051908101604052809291908181526020018280546105f5906128a5565b80156106425780601f1061061757610100808354040283529160200191610642565b820191906000526020600020905b81548152906001019060200180831161062557829003601f168201915b5050505050908060070160009054906101000a900460ff16905088565b60026020528060005260406000206000915054906101000a900460ff1681565b600260003373ffffffffffffffffffffffffffffffffffffffff1673ffffffffffffffffffffffffffffffffffffffff16815260200190815260200160002060009054906101000a900460ff1661070b576040517f08c379a000000000000000000000000000000000000000000000000000000000815260040161070290612517565b60405180910390fd5b6003600082815260200190815260200160002060070160009054906101000a900460ff1661076e576040517f08c379a000000000000000000000000000000000000000000000000000000000815260040161076590612457565b60405180910390fd5b60006003600083815260200190815260200160002060070160006101000a81548160ff021916908315150217905550803373ffffffffffffffffffffffffffffffffffffffff167f9f75cf47ba8d14010ea5f2eda156fd87978dcf97d56ce98c4a27a3629027341f60405160405180910390a350565b600260003373ffffffffffffffffffffffffffffffffffffffff1673ffffffffffffffffffffffffffffffffffffffff16815260200190815260200160002060009054906101000a900460ff16610870576040517f08c379a000000000000000000000000000000000000000000000000000000000815260040161086790612517565b60405180910390fd5b86600360008a81526020019081526020016000206001018190555085600360008a81526020019081526020016000206002018190555084600360008a815260200190815260200160002060030190805190602001906108d0929190611c96565b5083600360008a815260200190815260200160002060040190805190602001906108fb929190611c96565b5082600360008a81526020019081526020016000206005019080519060200190610926929190611c96565b5081600360008a81526020019081526020016000206006019080519060200190610951929190611c96565b5080600360008a815260200190815260200160002060070160006101000a81548160ff021916908315150217905550873373ffffffffffffffffffffffffffffffffffffffff167fd753a37b2c8dddd96ff531876ed175cc6e8ea9b3c7e5ded022ed1f4920af2ae960405160405180910390a35050505050505050565b600260003373ffffffffffffffffffffffffffffffffffffffff1673ffffffffffffffffffffffffffffffffffffffff16815260200190815260200160002060009054906101000a900460ff16610a5a576040517f08c379a0000000000000000000000000000000000000000000000000000000008152600401610a5190612517565b60405180910390fd5b600060018080549050610a6d9190612755565b905060006040518061010001604052808381526020018a8152602001898152602001888152602001878152602001868152602001858152602001841515815250905080600360008481526020019081526020016000206000820151816000015560208201518160010155604082015181600201556060820151816003019080519060200190610afd929190611c96565b506080820151816004019080519060200190610b1a929190611c96565b5060a0820151816005019080519060200190610b37929190611c96565b5060c0820151816006019080519060200190610b54929190611c96565b5060e08201518160070160006101000a81548160ff02191690831515021790555090505060018190806001815401808255809150506001900390600052602060002090600802016000909190919091506000820151816000015560208201518160010155604082015181600201556060820151816003019080519060200190610bde929190611c96565b506080820151816004019080519060200190610bfb929190611c96565b5060a0820151816005019080519060200190610c18929190611c96565b5060c0820151816006019080519060200190610c35929190611c96565b5060e08201518160070160006101000a81548160ff0219169083151502179055505050813373ffffffffffffffffffffffffffffffffffffffff167f12a17235901f6d7356ba0dd85124747e82931472f24fe368896bfd09803959be8b8b8b8b8b8b8b604051610cab9796959493929190612574565b60405180910390a3505050505050505050565b6000600360008381526020019081526020016000206001015411610d17576040517f08c379a0000000000000000000000000000000000000000000000000000000008152600401610d0e906124f7565b60405180910390fd5b3460036000838152602001908152602001600020600201541115610d70576040517f08c379a0000000000000000000000000000000000000000000000000000000008152600401610d6790612477565b60405180910390fd5b600460003373ffffffffffffffffffffffffffffffffffffffff1673ffffffffffffffffffffffffffffffffffffffff16815260200190815260200160002060036000838152602001908152602001600020600001549080600181540180825580915050600190039060005260206000200160009091909190915055600360008281526020019081526020016000206001016000815480929190610e139061287b565b91905055506000600360008381526020019081526020016000206001015411610e665760006003600083815260200190815260200160002060070160006101000a81548160ff0219169083151502179055505b803373ffffffffffffffffffffffffffffffffffffffff167f66a5ef2f642955d6f2287037a21d7c8b5af2b7a5a4ea4276577f4991da3749b360405160405180910390a350565b6060600260003373ffffffffffffffffffffffffffffffffffffffff1673ffffffffffffffffffffffffffffffffffffffff16815260200190815260200160002060009054906101000a900460ff16610f3b576040517f08c379a0000000000000000000000000000000000000000000000000000000008152600401610f3290612517565b60405180910390fd5b6000805480602002602001604051908101604052809291908181526020018280548015610fbd57602002820191906000526020600020905b8160009054906101000a900473ffffffffffffffffffffffffffffffffffffffff1673ffffffffffffffffffffffffffffffffffffffff1681526020019060010190808311610f73575b5050505050905090565b600260003373ffffffffffffffffffffffffffffffffffffffff1673ffffffffffffffffffffffffffffffffffffffff16815260200190815260200160002060009054906101000a900460ff16611053576040517f08c379a000000000000000000000000000000000000000000000000000000000815260040161104a90612517565b60405180910390fd5b600073ffffffffffffffffffffffffffffffffffffffff168173ffffffffffffffffffffffffffffffffffffffff1614156110c3576040517f08c379a00000000000000000000000000000000000000000000000000000000081526004016110ba90612497565b60405180910390fd5b600260008273ffffffffffffffffffffffffffffffffffffffff1673ffffffffffffffffffffffffffffffffffffffff16815260200190815260200160002060009054906101000a900460ff1615611150576040517f08c379a0000000000000000000000000000000000000000000000000000000008152600401611147906124b7565b60405180910390fd5b6001600260008373ffffffffffffffffffffffffffffffffffffffff1673ffffffffffffffffffffffffffffffffffffffff16815260200190815260200160002060006101000a81548160ff0219169083151502179055506000819080600181540180825580915050600190039060005260206000200160009091909190916101000a81548173ffffffffffffffffffffffffffffffffffffffff021916908373ffffffffffffffffffffffffffffffffffffffff1602179055508073ffffffffffffffffffffffffffffffffffffffff163373ffffffffffffffffffffffffffffffffffffffff167f16d390bfcd7f768e993e75948075b6927bc51a6ed5ba13ca1289f63cb8149e0860405160405180910390a350565b600360205280600052604060002060009150905080600001549080600101549080600201549080600301805461129d906128a5565b80601f01602080910402602001604051908101604052809291908181526020018280546112c9906128a5565b80156113165780601f106112eb57610100808354040283529160200191611316565b820191906000526020600020905b8154815290600101906020018083116112f957829003601f168201915b50505050509080600401805461132b906128a5565b80601f0160208091040260200160405190810160405280929190818152602001828054611357906128a5565b80156113a45780601f10611379576101008083540402835291602001916113a4565b820191906000526020600020905b81548152906001019060200180831161138757829003601f168201915b5050505050908060050180546113b9906128a5565b80601f01602080910402602001604051908101604052809291908181526020018280546113e5906128a5565b80156114325780601f1061140757610100808354040283529160200191611432565b820191906000526020600020905b81548152906001019060200180831161141557829003601f168201915b505050505090806006018054611447906128a5565b80601f0160208091040260200160405190810160405280929190818152602001828054611473906128a5565b80156114c05780601f10611495576101008083540402835291602001916114c0565b820191906000526020600020905b8154815290600101906020018083116114a357829003601f168201915b5050505050908060070160009054906101000a900460ff16905088565b600460205281600052604060002081815481106114f957600080fd5b90600052602060002001600091509150505481565b611516611d1c565b6003600083815260200190815260200160002060405180610100016040529081600082015481526020016001820154815260200160028201548152602001600382018054611563906128a5565b80601f016020809104026020016040519081016040528092919081815260200182805461158f906128a5565b80156115dc5780601f106115b1576101008083540402835291602001916115dc565b820191906000526020600020905b8154815290600101906020018083116115bf57829003601f168201915b505050505081526020016004820180546115f5906128a5565b80601f0160208091040260200160405190810160405280929190818152602001828054611621906128a5565b801561166e5780601f106116435761010080835404028352916020019161166e565b820191906000526020600020905b81548152906001019060200180831161165157829003601f168201915b50505050508152602001600582018054611687906128a5565b80601f01602080910402602001604051908101604052809291908181526020018280546116b3906128a5565b80156117005780601f106116d557610100808354040283529160200191611700565b820191906000526020600020905b8154815290600101906020018083116116e357829003601f168201915b50505050508152602001600682018054611719906128a5565b80601f0160208091040260200160405190810160405280929190818152602001828054611745906128a5565b80156117925780601f1061176757610100808354040283529160200191611792565b820191906000526020600020905b81548152906001019060200180831161177557829003601f168201915b505050505081526020016007820160009054906101000a900460ff1615151515815250509050919050565b600260003373ffffffffffffffffffffffffffffffffffffffff1673ffffffffffffffffffffffffffffffffffffffff16815260200190815260200160002060009054906101000a900460ff16611849576040517f08c379a000000000000000000000000000000000000000000000000000000000815260040161184090612517565b60405180910390fd5b600073ffffffffffffffffffffffffffffffffffffffff168273ffffffffffffffffffffffffffffffffffffffff1614156118b9576040517f08c379a00000000000000000000000000000000000000000000000000000000081526004016118b090612497565b60405180910390fd5b600260008373ffffffffffffffffffffffffffffffffffffffff1673ffffffffffffffffffffffffffffffffffffffff16815260200190815260200160002060009054906101000a900460ff16611945576040517f08c379a000000000000000000000000000000000000000000000000000000000815260040161193c906124d7565b60405180910390fd5b6000600260008473ffffffffffffffffffffffffffffffffffffffff1673ffffffffffffffffffffffffffffffffffffffff16815260200190815260200160002060006101000a81548160ff021916908315150217905550600060016000805490506119b191906127ab565b815481106119e8577f4e487b7100000000000000000000000000000000000000000000000000000000600052603260045260246000fd5b9060005260206000200160009054906101000a900473ffffffffffffffffffffffffffffffffffffffff1660008281548110611a4d577f4e487b7100000000000000000000000000000000000000000000000000000000600052603260045260246000fd5b9060005260206000200160006101000a81548173ffffffffffffffffffffffffffffffffffffffff021916908373ffffffffffffffffffffffffffffffffffffffff1602179055506000805480611acd577f4e487b7100000000000000000000000000000000000000000000000000000000600052603160045260246000fd5b6001900381819060005260206000200160006101000a81549073ffffffffffffffffffffffffffffffffffffffff021916905590558173ffffffffffffffffffffffffffffffffffffffff163373ffffffffffffffffffffffffffffffffffffffff167faa2f779dd42ed572be732a547777489345cbcfa6ced22183c0d33b3fbedefebc60405160405180910390a35050565b600260003373ffffffffffffffffffffffffffffffffffffffff1673ffffffffffffffffffffffffffffffffffffffff16815260200190815260200160002060009054906101000a900460ff16611bec576040517f08c379a0000000000000000000000000000000000000000000000000000000008152600401611be390612517565b60405180910390fd5b60004790508173ffffffffffffffffffffffffffffffffffffffff166108fc829081150290604051600060405180830381858888f19350505050158015611c37573d6000803e3d6000fd5b508173ffffffffffffffffffffffffffffffffffffffff163373ffffffffffffffffffffffffffffffffffffffff167ff940e3851549e5c2062f065152e2151c57f5902a4d0de0f053e7f80205e4aabf60405160405180910390a35050565b828054611ca2906128a5565b90600052602060002090601f016020900481019282611cc45760008555611d0b565b82601f10611cdd57805160ff1916838001178555611d0b565b82800160010185558215611d0b579182015b82811115611d0a578251825591602001919060010190611cef565b5b509050611d189190611d63565b5090565b604051806101000160405280600081526020016000815260200160008152602001606081526020016060815260200160608152602001606081526020016000151581525090565b5b80821115611d7c576000816000905550600101611d64565b5090565b6000611d93611d8e846126be565b612699565b905082815260208101848484011115611dab57600080fd5b611db6848285612839565b509392505050565b600081359050611dcd81612ac5565b92915050565b600081359050611de281612adc565b92915050565b600081359050611df781612af3565b92915050565b600082601f830112611e0e57600080fd5b8135611e1e848260208601611d80565b91505092915050565b600081359050611e3681612b0a565b92915050565b600060208284031215611e4e57600080fd5b6000611e5c84828501611dbe565b91505092915050565b600060208284031215611e7757600080fd5b6000611e8584828501611dd3565b91505092915050565b60008060408385031215611ea157600080fd5b6000611eaf85828601611dbe565b9250506020611ec085828601611e27565b9150509250929050565b600060208284031215611edc57600080fd5b6000611eea84828501611e27565b91505092915050565b600080600080600080600060e0888a031215611f0e57600080fd5b6000611f1c8a828b01611e27565b9750506020611f2d8a828b01611e27565b965050604088013567ffffffffffffffff811115611f4a57600080fd5b611f568a828b01611dfd565b955050606088013567ffffffffffffffff811115611f7357600080fd5b611f7f8a828b01611dfd565b945050608088013567ffffffffffffffff811115611f9c57600080fd5b611fa88a828b01611dfd565b93505060a088013567ffffffffffffffff811115611fc557600080fd5b611fd18a828b01611dfd565b92505060c0611fe28a828b01611de8565b91505092959891949750929550565b600080600080600080600080610100898b03121561200e57600080fd5b600061201c8b828c01611e27565b985050602061202d8b828c01611e27565b975050604061203e8b828c01611e27565b965050606089013567ffffffffffffffff81111561205b57600080fd5b6120678b828c01611dfd565b955050608089013567ffffffffffffffff81111561208457600080fd5b6120908b828c01611dfd565b94505060a089013567ffffffffffffffff8111156120ad57600080fd5b6120b98b828c01611dfd565b93505060c089013567ffffffffffffffff8111156120d657600080fd5b6120e28b828c01611dfd565b92505060e06120f38b828c01611de8565b9150509295985092959890939650565b600061210f838361211b565b60208301905092915050565b612124816127df565b82525050565b612133816127df565b82525050565b6000612144826126ff565b61214e8185612722565b9350612159836126ef565b8060005b8381101561218a5781516121718882612103565b975061217c83612715565b92505060018101905061215d565b5085935050505092915050565b6121a081612803565b82525050565b6121af81612803565b82525050565b60006121c08261270a565b6121ca8185612733565b93506121da818560208601612848565b6121e381612995565b840191505092915050565b60006121f98261270a565b6122038185612744565b9350612213818560208601612848565b61221c81612995565b840191505092915050565b6000612234601983612744565b915061223f826129a6565b602082019050919050565b6000612257601a83612744565b9150612262826129cf565b602082019050919050565b600061227a600d83612744565b9150612285826129f8565b602082019050919050565b600061229d601483612744565b91506122a882612a21565b602082019050919050565b60006122c0601183612744565b91506122cb82612a4a565b602082019050919050565b60006122e3601183612744565b91506122ee82612a73565b602082019050919050565b6000612306601283612744565b915061231182612a9c565b602082019050919050565b60006101008301600083015161233560008601826123e1565b50602083015161234860208601826123e1565b50604083015161235b60408601826123e1565b506060830151848203606086015261237382826121b5565b9150506080830151848203608086015261238d82826121b5565b91505060a083015184820360a08601526123a782826121b5565b91505060c083015184820360c08601526123c182826121b5565b91505060e08301516123d660e0860182612197565b508091505092915050565b6123ea8161282f565b82525050565b6123f98161282f565b82525050565b6000602082019050612414600083018461212a565b92915050565b600060208201905081810360008301526124348184612139565b905092915050565b600060208201905061245160008301846121a6565b92915050565b6000602082019050818103600083015261247081612227565b9050919050565b600060208201905081810360008301526124908161224a565b9050919050565b600060208201905081810360008301526124b08161226d565b9050919050565b600060208201905081810360008301526124d081612290565b9050919050565b600060208201905081810360008301526124f0816122b3565b9050919050565b60006020820190508181036000830152612510816122d6565b9050919050565b60006020820190508181036000830152612530816122f9565b9050919050565b60006020820190508181036000830152612551818461231c565b905092915050565b600060208201905061256e60008301846123f0565b92915050565b600060e082019050612589600083018a6123f0565b61259660208301896123f0565b81810360408301526125a881886121ee565b905081810360608301526125bc81876121ee565b905081810360808301526125d081866121ee565b905081810360a08301526125e481856121ee565b90506125f360c08301846121a6565b98975050505050505050565b600061010082019050612615600083018b6123f0565b612622602083018a6123f0565b61262f60408301896123f0565b818103606083015261264181886121ee565b9050818103608083015261265581876121ee565b905081810360a083015261266981866121ee565b905081810360c083015261267d81856121ee565b905061268c60e08301846121a6565b9998505050505050505050565b60006126a36126b4565b90506126af82826128d7565b919050565b6000604051905090565b600067ffffffffffffffff8211156126d9576126d8612966565b5b6126e282612995565b9050602081019050919050565b6000819050602082019050919050565b600081519050919050565b600081519050919050565b6000602082019050919050565b600082825260208201905092915050565b600082825260208201905092915050565b600082825260208201905092915050565b60006127608261282f565b915061276b8361282f565b9250827fffffffffffffffffffffffffffffffffffffffffffffffffffffffffffffffff038211156127a05761279f612908565b5b828201905092915050565b60006127b68261282f565b91506127c18361282f565b9250828210156127d4576127d3612908565b5b828203905092915050565b60006127ea8261280f565b9050919050565b60006127fc8261280f565b9050919050565b60008115159050919050565b600073ffffffffffffffffffffffffffffffffffffffff82169050919050565b6000819050919050565b82818337600083830152505050565b60005b8381101561286657808201518184015260208101905061284b565b83811115612875576000848401525b50505050565b60006128868261282f565b9150600082141561289a57612899612908565b5b600182039050919050565b600060028204905060018216806128bd57607f821691505b602082108114156128d1576128d0612937565b5b50919050565b6128e082612995565b810181811067ffffffffffffffff821117156128ff576128fe612966565b5b80604052505050565b7f4e487b7100000000000000000000000000000000000000000000000000000000600052601160045260246000fd5b7f4e487b7100000000000000000000000000000000000000000000000000000000600052602260045260246000fd5b7f4e487b7100000000000000000000000000000000000000000000000000000000600052604160045260246000fd5b6000601f19601f8301169050919050565b7f4576656e742069732064656c6574656420616c72656164792100000000000000600082015250565b7f506c6561736520636865636b207469636b657420707269636521000000000000600082015250565b7f696e76616c6964206f776e657200000000000000000000000000000000000000600082015250565b7f6f776e65722065786973747320616c7265616479000000000000000000000000600082015250565b7f6f776e6572206e6f742065786973747321000000000000000000000000000000600082015250565b7f416c6c207469636b65747320736f6c6421000000000000000000000000000000600082015250565b7f596f7520617265206e6f74206f776e6572210000000000000000000000000000600082015250565b612ace816127df565b8114612ad957600080fd5b50565b612ae5816127f1565b8114612af057600080fd5b50565b612afc81612803565b8114612b0757600080fd5b50565b612b138161282f565b8114612b1e57600080fd5b5056fea26469706673582212203206788572cdd7a66099f7c2f59da8dbaa81e214b5d8eac35f497e040954366b64736f6c63430008010033",
  "immutableReferences": {},
  "source": "// SPDX-License-Identifier: MIT\r\npragma solidity ^0.8.1;\r\n\r\ncontract Ticket {\r\n    struct EventInfo {\r\n        uint id;\r\n        uint ticketCount;\r\n        uint price;\r\n        string date;\r\n        string name;\r\n        string location;\r\n        string description;\r\n        bool isActive;\r\n    }\r\n    \r\n    address[] public owners;\r\n    EventInfo[] public events;\r\n    mapping(address => bool) public isOwner;\r\n    mapping(uint => EventInfo) public findEvent;\r\n    mapping(address => uint[]) public userEvents;\r\n    \r\n    event createEvent(address indexed owner, uint indexed id, uint _ticketCount, uint _price, string _date, string _name, string _location, string _description, bool _isActive);\r\n    event deleteEvent(address indexed owner, uint indexed id);\r\n    event editEvent(address indexed owner, uint indexed id);\r\n    event buyTicket(address indexed sender, uint indexed id);\r\n    event withdraw(address indexed _from, address indexed _to);\r\n    event addOwner(address indexed sender, address indexed newOwner);\r\n    event deleteOwner(address indexed sender, address indexed deletedAddress);\r\n    \r\n    constructor(address[] memory _owners) {\r\n        for(uint i = 0; i < _owners.length; i++) {\r\n            address owner = _owners[i];\r\n            require(owner != address(0), \"invalid owner\");\r\n            require(!isOwner[owner], \"owner exists already\");\r\n            \r\n            isOwner[owner] = true;\r\n            owners.push(owner);\r\n        }\r\n    }\r\n    \r\n    modifier onlyOwner() {\r\n        require(isOwner[msg.sender], \"You are not owner!\");\r\n        _;\r\n    }\r\n\r\n    function GetOwners() external view onlyOwner returns(address[] memory)  {\r\n        return owners;\r\n    } \r\n    \r\n    function CreateEvent(uint _ticketCount, uint _price, string memory _date, string memory _name, string memory _location, string memory _description, bool _isActive) external onlyOwner {\r\n        uint id = events.length + 1;\r\n        EventInfo memory _event = EventInfo(id, _ticketCount, _price, _date, _name, _location, _description, _isActive);\r\n        findEvent[id] = _event;\r\n        events.push(_event);\r\n        emit createEvent(msg.sender, id, _ticketCount, _price, _date, _name, _location, _description, _isActive);\r\n    }\r\n    \r\n    function GetEvent(uint id) public view returns(EventInfo memory) {\r\n        return findEvent[id];\r\n    }\r\n    \r\n    function DeleteEvent(uint id) public onlyOwner{\r\n        require(findEvent[id].isActive, \"Event is deleted already!\");\r\n        findEvent[id].isActive = false;\r\n        emit deleteEvent(msg.sender, id);\r\n    }\r\n    \r\n    function EditEvent(uint id, uint _ticketCount, uint _price, string memory _date, string memory _name, string memory _location, string memory _description, bool _isActive) external onlyOwner {\r\n        findEvent[id].ticketCount = _ticketCount;\r\n        findEvent[id].price = _price;\r\n        findEvent[id].date = _date;\r\n        findEvent[id].name = _name;\r\n        findEvent[id].location = _location;\r\n        findEvent[id].description = _description;\r\n        findEvent[id].isActive = _isActive;\r\n        emit editEvent(msg.sender, id);\r\n    }\r\n    \r\n    function BuyTicket(uint id) external payable {\r\n        require(findEvent[id].ticketCount > 0, \"All tickets sold!\");\r\n        require(findEvent[id].price <= msg.value, \"Please check ticket price!\");\r\n        userEvents[msg.sender].push(findEvent[id].id);\r\n        findEvent[id].ticketCount--;\r\n        if (findEvent[id].ticketCount <= 0) {\r\n            findEvent[id].isActive = false;\r\n        }\r\n        emit buyTicket(msg.sender, id);\r\n    }\r\n    \r\n    function Withdraw(address payable _to) public onlyOwner {\r\n        uint balance = address(this).balance;\r\n        _to.transfer(balance);\r\n        emit withdraw(msg.sender, _to);\r\n    }\r\n    \r\n    function AddOwner(address _newOwner) external onlyOwner {\r\n        require(_newOwner != address(0), \"invalid owner\");\r\n        require(!isOwner[_newOwner], \"owner exists already\");\r\n        isOwner[_newOwner] = true;\r\n        owners.push(_newOwner);\r\n        emit addOwner(msg.sender, _newOwner);\r\n    }\r\n    \r\n    function DeleteOwner(address _owner, uint index) external onlyOwner {\r\n        require(_owner != address(0), \"invalid owner\");\r\n        require(isOwner[_owner], \"owner not exists!\");\r\n        isOwner[_owner] = false;\r\n        owners[index] = owners[owners.length - 1];\r\n        owners.pop();\r\n        emit deleteOwner(msg.sender, _owner);\r\n    }\r\n}\r\n",
  "sourcePath": "C:/Users/User/Desktop/Solidity Projects/TicketSite/contracts/Ticket.sol",
  "compiler": {
    "name": "solc",
    "version": "0.8.1+commit.df193b15.Emscripten.clang"
  },
  "schemaVersion": "3.4.1",
  "updatedAt": "2021-08-12T13:40:05.685Z",
  "networkType": "ethereum",
  "devdoc": {
    "kind": "dev",
    "methods": {},
    "version": 1
  },
  "userdoc": {
    "kind": "user",
    "methods": {},
    "version": 1
  }
}