{
  "contractName": "Ticket",
  "abi": [
    {
      "inputs": [
        {
          "internalType": "address[]",
          "name": "_owners",
          "type": "address[]"
        }
      ],
      "stateMutability": "nonpayable",
      "type": "constructor"
    },
    {
      "anonymous": false,
      "inputs": [
        {
          "indexed": true,
          "internalType": "address",
          "name": "sender",
          "type": "address"
        },
        {
          "indexed": true,
          "internalType": "address",
          "name": "newOwner",
          "type": "address"
        }
      ],
      "name": "addOwner",
      "type": "event"
    },
    {
      "anonymous": false,
      "inputs": [
        {
          "indexed": true,
          "internalType": "address",
          "name": "sender",
          "type": "address"
        },
        {
          "indexed": true,
          "internalType": "uint256",
          "name": "id",
          "type": "uint256"
        }
      ],
      "name": "buyTicket",
      "type": "event"
    },
    {
      "anonymous": false,
      "inputs": [
        {
          "indexed": true,
          "internalType": "address",
          "name": "owner",
          "type": "address"
        },
        {
          "indexed": true,
          "internalType": "uint256",
          "name": "id",
          "type": "uint256"
        },
        {
          "indexed": false,
          "internalType": "uint256",
          "name": "_ticketCount",
          "type": "uint256"
        },
        {
          "indexed": false,
          "internalType": "uint256",
          "name": "_price",
          "type": "uint256"
        },
        {
          "indexed": false,
          "internalType": "bytes32",
          "name": "_date",
          "type": "bytes32"
        },
        {
          "indexed": false,
          "internalType": "bytes32",
          "name": "_name",
          "type": "bytes32"
        },
        {
          "indexed": false,
          "internalType": "bytes32",
          "name": "_location",
          "type": "bytes32"
        },
        {
          "indexed": false,
          "internalType": "bytes32",
          "name": "_city",
          "type": "bytes32"
        },
        {
          "indexed": false,
          "internalType": "bytes32",
          "name": "_description",
          "type": "bytes32"
        },
        {
          "indexed": false,
          "internalType": "bytes32",
          "name": "_category",
          "type": "bytes32"
        },
        {
          "indexed": false,
          "internalType": "bool",
          "name": "_isActive",
          "type": "bool"
        }
      ],
      "name": "createEvent",
      "type": "event"
    },
    {
      "anonymous": false,
      "inputs": [
        {
          "indexed": true,
          "internalType": "address",
          "name": "owner",
          "type": "address"
        },
        {
          "indexed": true,
          "internalType": "uint256",
          "name": "id",
          "type": "uint256"
        }
      ],
      "name": "deleteEvent",
      "type": "event"
    },
    {
      "anonymous": false,
      "inputs": [
        {
          "indexed": true,
          "internalType": "address",
          "name": "sender",
          "type": "address"
        },
        {
          "indexed": true,
          "internalType": "address",
          "name": "deletedAddress",
          "type": "address"
        }
      ],
      "name": "deleteOwner",
      "type": "event"
    },
    {
      "anonymous": false,
      "inputs": [
        {
          "indexed": true,
          "internalType": "address",
          "name": "owner",
          "type": "address"
        },
        {
          "indexed": true,
          "internalType": "uint256",
          "name": "id",
          "type": "uint256"
        }
      ],
      "name": "editEvent",
      "type": "event"
    },
    {
      "anonymous": false,
      "inputs": [
        {
          "indexed": true,
          "internalType": "address",
          "name": "_from",
          "type": "address"
        },
        {
          "indexed": true,
          "internalType": "address",
          "name": "_to",
          "type": "address"
        }
      ],
      "name": "withdraw",
      "type": "event"
    },
    {
      "inputs": [
        {
          "internalType": "uint256",
          "name": "",
          "type": "uint256"
        }
      ],
      "name": "events",
      "outputs": [
        {
          "internalType": "uint256",
          "name": "id",
          "type": "uint256"
        },
        {
          "internalType": "uint256",
          "name": "ticketCount",
          "type": "uint256"
        },
        {
          "internalType": "uint256",
          "name": "price",
          "type": "uint256"
        },
        {
          "internalType": "bytes32",
          "name": "date",
          "type": "bytes32"
        },
        {
          "internalType": "bytes32",
          "name": "name",
          "type": "bytes32"
        },
        {
          "internalType": "bytes32",
          "name": "location",
          "type": "bytes32"
        },
        {
          "internalType": "bytes32",
          "name": "city",
          "type": "bytes32"
        },
        {
          "internalType": "bytes32",
          "name": "description",
          "type": "bytes32"
        },
        {
          "internalType": "bytes32",
          "name": "category",
          "type": "bytes32"
        },
        {
          "internalType": "bool",
          "name": "isActive",
          "type": "bool"
        }
      ],
      "stateMutability": "view",
      "type": "function",
      "constant": true
    },
    {
      "inputs": [
        {
          "internalType": "uint256",
          "name": "",
          "type": "uint256"
        }
      ],
      "name": "findEvent",
      "outputs": [
        {
          "internalType": "uint256",
          "name": "id",
          "type": "uint256"
        },
        {
          "internalType": "uint256",
          "name": "ticketCount",
          "type": "uint256"
        },
        {
          "internalType": "uint256",
          "name": "price",
          "type": "uint256"
        },
        {
          "internalType": "bytes32",
          "name": "date",
          "type": "bytes32"
        },
        {
          "internalType": "bytes32",
          "name": "name",
          "type": "bytes32"
        },
        {
          "internalType": "bytes32",
          "name": "location",
          "type": "bytes32"
        },
        {
          "internalType": "bytes32",
          "name": "city",
          "type": "bytes32"
        },
        {
          "internalType": "bytes32",
          "name": "description",
          "type": "bytes32"
        },
        {
          "internalType": "bytes32",
          "name": "category",
          "type": "bytes32"
        },
        {
          "internalType": "bool",
          "name": "isActive",
          "type": "bool"
        }
      ],
      "stateMutability": "view",
      "type": "function",
      "constant": true
    },
    {
      "inputs": [
        {
          "internalType": "address",
          "name": "",
          "type": "address"
        }
      ],
      "name": "isOwner",
      "outputs": [
        {
          "internalType": "bool",
          "name": "",
          "type": "bool"
        }
      ],
      "stateMutability": "view",
      "type": "function",
      "constant": true
    },
    {
      "inputs": [
        {
          "internalType": "uint256",
          "name": "",
          "type": "uint256"
        }
      ],
      "name": "owners",
      "outputs": [
        {
          "internalType": "address",
          "name": "",
          "type": "address"
        }
      ],
      "stateMutability": "view",
      "type": "function",
      "constant": true
    },
    {
      "inputs": [
        {
          "internalType": "address",
          "name": "",
          "type": "address"
        },
        {
          "internalType": "uint256",
          "name": "",
          "type": "uint256"
        }
      ],
      "name": "userEvents",
      "outputs": [
        {
          "internalType": "uint256",
          "name": "",
          "type": "uint256"
        }
      ],
      "stateMutability": "view",
      "type": "function",
      "constant": true
    },
    {
      "inputs": [],
      "name": "GetOwners",
      "outputs": [
        {
          "internalType": "address[]",
          "name": "",
          "type": "address[]"
        }
      ],
      "stateMutability": "view",
      "type": "function",
      "constant": true
    },
    {
      "inputs": [
        {
          "internalType": "address",
          "name": "_address",
          "type": "address"
        }
      ],
      "name": "GetUserEvents",
      "outputs": [
        {
          "internalType": "uint256[]",
          "name": "",
          "type": "uint256[]"
        }
      ],
      "stateMutability": "view",
      "type": "function",
      "constant": true
    },
    {
      "inputs": [
        {
          "internalType": "uint256",
          "name": "_ticketCount",
          "type": "uint256"
        },
        {
          "internalType": "uint256",
          "name": "_price",
          "type": "uint256"
        },
        {
          "internalType": "bytes32",
          "name": "_date",
          "type": "bytes32"
        },
        {
          "internalType": "bytes32",
          "name": "_name",
          "type": "bytes32"
        },
        {
          "internalType": "bytes32",
          "name": "_location",
          "type": "bytes32"
        },
        {
          "internalType": "bytes32",
          "name": "_city",
          "type": "bytes32"
        },
        {
          "internalType": "bytes32",
          "name": "_description",
          "type": "bytes32"
        },
        {
          "internalType": "bytes32",
          "name": "_category",
          "type": "bytes32"
        },
        {
          "internalType": "bool",
          "name": "_isActive",
          "type": "bool"
        }
      ],
      "name": "CreateEvent",
      "outputs": [],
      "stateMutability": "nonpayable",
      "type": "function"
    },
    {
      "inputs": [
        {
          "internalType": "uint256",
          "name": "id",
          "type": "uint256"
        }
      ],
      "name": "GetEvent",
      "outputs": [
        {
          "internalType": "uint256",
          "name": "",
          "type": "uint256"
        },
        {
          "internalType": "uint256",
          "name": "",
          "type": "uint256"
        },
        {
          "internalType": "uint256",
          "name": "",
          "type": "uint256"
        },
        {
          "internalType": "bytes32",
          "name": "",
          "type": "bytes32"
        },
        {
          "internalType": "bytes32",
          "name": "",
          "type": "bytes32"
        },
        {
          "internalType": "bytes32",
          "name": "",
          "type": "bytes32"
        },
        {
          "internalType": "bytes32",
          "name": "",
          "type": "bytes32"
        },
        {
          "internalType": "bytes32",
          "name": "",
          "type": "bytes32"
        },
        {
          "internalType": "bytes32",
          "name": "",
          "type": "bytes32"
        },
        {
          "internalType": "bool",
          "name": "",
          "type": "bool"
        }
      ],
      "stateMutability": "view",
      "type": "function",
      "constant": true
    },
    {
      "inputs": [],
      "name": "GetEvents",
      "outputs": [
        {
          "components": [
            {
              "internalType": "uint256",
              "name": "id",
              "type": "uint256"
            },
            {
              "internalType": "uint256",
              "name": "ticketCount",
              "type": "uint256"
            },
            {
              "internalType": "uint256",
              "name": "price",
              "type": "uint256"
            },
            {
              "internalType": "bytes32",
              "name": "date",
              "type": "bytes32"
            },
            {
              "internalType": "bytes32",
              "name": "name",
              "type": "bytes32"
            },
            {
              "internalType": "bytes32",
              "name": "location",
              "type": "bytes32"
            },
            {
              "internalType": "bytes32",
              "name": "city",
              "type": "bytes32"
            },
            {
              "internalType": "bytes32",
              "name": "description",
              "type": "bytes32"
            },
            {
              "internalType": "bytes32",
              "name": "category",
              "type": "bytes32"
            },
            {
              "internalType": "bool",
              "name": "isActive",
              "type": "bool"
            }
          ],
          "internalType": "struct Ticket.EventInfo[]",
          "name": "",
          "type": "tuple[]"
        }
      ],
      "stateMutability": "view",
      "type": "function",
      "constant": true
    },
    {
      "inputs": [
        {
          "internalType": "uint256",
          "name": "id",
          "type": "uint256"
        }
      ],
      "name": "DeleteEvent",
      "outputs": [],
      "stateMutability": "nonpayable",
      "type": "function"
    },
    {
      "inputs": [
        {
          "internalType": "uint256",
          "name": "id",
          "type": "uint256"
        },
        {
          "internalType": "uint256",
          "name": "_ticketCount",
          "type": "uint256"
        },
        {
          "internalType": "uint256",
          "name": "_price",
          "type": "uint256"
        },
        {
          "internalType": "bytes32",
          "name": "_date",
          "type": "bytes32"
        },
        {
          "internalType": "bytes32",
          "name": "_name",
          "type": "bytes32"
        },
        {
          "internalType": "bytes32",
          "name": "_location",
          "type": "bytes32"
        },
        {
          "internalType": "bytes32",
          "name": "_city",
          "type": "bytes32"
        },
        {
          "internalType": "bytes32",
          "name": "_description",
          "type": "bytes32"
        },
        {
          "internalType": "bytes32",
          "name": "_category",
          "type": "bytes32"
        },
        {
          "internalType": "bool",
          "name": "_isActive",
          "type": "bool"
        }
      ],
      "name": "EditEvent",
      "outputs": [],
      "stateMutability": "nonpayable",
      "type": "function"
    },
    {
      "inputs": [
        {
          "internalType": "uint256",
          "name": "id",
          "type": "uint256"
        }
      ],
      "name": "BuyTicket",
      "outputs": [],
      "stateMutability": "payable",
      "type": "function",
      "payable": true
    },
    {
      "inputs": [
        {
          "internalType": "address payable",
          "name": "_to",
          "type": "address"
        }
      ],
      "name": "Withdraw",
      "outputs": [],
      "stateMutability": "nonpayable",
      "type": "function"
    },
    {
      "inputs": [
        {
          "internalType": "address",
          "name": "_newOwner",
          "type": "address"
        }
      ],
      "name": "AddOwner",
      "outputs": [],
      "stateMutability": "nonpayable",
      "type": "function"
    },
    {
      "inputs": [
        {
          "internalType": "address",
          "name": "_owner",
          "type": "address"
        },
        {
          "internalType": "uint256",
          "name": "index",
          "type": "uint256"
        }
      ],
      "name": "DeleteOwner",
      "outputs": [],
      "stateMutability": "nonpayable",
      "type": "function"
    }
  ],
  "bytecode": "0x60806040523480156200001157600080fd5b5060405162002c2838038062002c28833981810160405281019062000037919062000320565b60005b81518110156200025f57600082828151811062000080577f4e487b7100000000000000000000000000000000000000000000000000000000600052603260045260246000fd5b60200260200101519050600073ffffffffffffffffffffffffffffffffffffffff168173ffffffffffffffffffffffffffffffffffffffff161415620000fd576040517f08c379a0000000000000000000000000000000000000000000000000000000008152600401620000f490620003b3565b60405180910390fd5b600260008273ffffffffffffffffffffffffffffffffffffffff1673ffffffffffffffffffffffffffffffffffffffff16815260200190815260200160002060009054906101000a900460ff16156200018d576040517f08c379a00000000000000000000000000000000000000000000000000000000081526004016200018490620003d5565b60405180910390fd5b6001600260008373ffffffffffffffffffffffffffffffffffffffff1673ffffffffffffffffffffffffffffffffffffffff16815260200190815260200160002060006101000a81548160ff0219169083151502179055506000819080600181540180825580915050600190039060005260206000200160009091909190916101000a81548173ffffffffffffffffffffffffffffffffffffffff021916908373ffffffffffffffffffffffffffffffffffffffff1602179055505080806200025690620004d4565b9150506200003a565b5050620005fd565b60006200027e620002788462000420565b620003f7565b905080838252602082019050828560208602820111156200029e57600080fd5b60005b85811015620002d25781620002b78882620002dc565b845260208401935060208301925050600181019050620002a1565b5050509392505050565b600081519050620002ed81620005e3565b92915050565b600082601f8301126200030557600080fd5b81516200031784826020860162000267565b91505092915050565b6000602082840312156200033357600080fd5b600082015167ffffffffffffffff8111156200034e57600080fd5b6200035c84828501620002f3565b91505092915050565b600062000374600d836200044f565b9150620003818262000591565b602082019050919050565b60006200039b6014836200044f565b9150620003a882620005ba565b602082019050919050565b60006020820190508181036000830152620003ce8162000365565b9050919050565b60006020820190508181036000830152620003f0816200038c565b9050919050565b60006200040362000416565b90506200041182826200049e565b919050565b6000604051905090565b600067ffffffffffffffff8211156200043e576200043d62000551565b5b602082029050602081019050919050565b600082825260208201905092915050565b60006200046d8262000474565b9050919050565b600073ffffffffffffffffffffffffffffffffffffffff82169050919050565b6000819050919050565b620004a98262000580565b810181811067ffffffffffffffff82111715620004cb57620004ca62000551565b5b80604052505050565b6000620004e18262000494565b91507fffffffffffffffffffffffffffffffffffffffffffffffffffffffffffffffff82141562000517576200051662000522565b5b600182019050919050565b7f4e487b7100000000000000000000000000000000000000000000000000000000600052601160045260246000fd5b7f4e487b7100000000000000000000000000000000000000000000000000000000600052604160045260246000fd5b6000601f19601f8301169050919050565b7f696e76616c6964206f776e657200000000000000000000000000000000000000600082015250565b7f6f776e65722065786973747320616c7265616479000000000000000000000000600082015250565b620005ee8162000460565b8114620005fa57600080fd5b50565b61261b806200060d6000396000f3fe6080604052600436106100f35760003560e01c8063a07bccdb1161008a578063bdfc989311610059578063bdfc989314610351578063cceb67e31461038e578063e3bf2144146103d4578063f6761151146103fd576100f3565b8063a07bccdb1461027a578063ac1e9ef4146102b7578063ad16c2fb146102e0578063bbd8bc6214610326576100f3565b806348c8ba26116100c657806348c8ba26146101e15780636cbfb6531461020a57806376acb5e814610233578063938af8981461024f576100f3565b8063025e7c27146100f85780630b791430146101355780632f54bf6e1461017b5780634035f62e146101b8575b600080fd5b34801561010457600080fd5b5061011f600480360381019061011a9190611a2a565b610426565b60405161012c9190611f90565b60405180910390f35b34801561014157600080fd5b5061015c60048036038101906101579190611a2a565b610465565b6040516101729a999897969594939291906121b4565b60405180910390f35b34801561018757600080fd5b506101a2600480360381019061019d919061199c565b6104d6565b6040516101af9190612011565b60405180910390f35b3480156101c457600080fd5b506101df60048036038101906101da9190611b19565b6104f6565b005b3480156101ed57600080fd5b5061020860048036038101906102039190611a2a565b6106d8565b005b34801561021657600080fd5b50610231600480360381019061022c9190611a53565b61083d565b005b61024d60048036038101906102489190611a2a565b610ad3565b005b34801561025b57600080fd5b50610264610d18565b6040516102719190611fab565b60405180910390f35b34801561028657600080fd5b506102a1600480360381019061029c919061199c565b610e32565b6040516102ae9190611fef565b60405180910390f35b3480156102c357600080fd5b506102de60048036038101906102d9919061199c565b610ec9565b005b3480156102ec57600080fd5b5061030760048036038101906103029190611a2a565b61116a565b60405161031d9a999897969594939291906121b4565b60405180910390f35b34801561033257600080fd5b5061033b6111cb565b6040516103489190611fcd565b60405180910390f35b34801561035d57600080fd5b50610378600480360381019061037391906119ee565b61132c565b604051610385919061210c565b60405180910390f35b34801561039a57600080fd5b506103b560048036038101906103b09190611a2a565b61135d565b6040516103cb9a999897969594939291906121b4565b60405180910390f35b3480156103e057600080fd5b506103fb60048036038101906103f691906119ee565b61145a565b005b34801561040957600080fd5b50610424600480360381019061041f91906119c5565b6117fd565b005b6000818154811061043657600080fd5b906000526020600020016000915054906101000a900473ffffffffffffffffffffffffffffffffffffffff1681565b6001818154811061047557600080fd5b90600052602060002090600a02016000915090508060000154908060010154908060020154908060030154908060040154908060050154908060060154908060070154908060080154908060090160009054906101000a900460ff1690508a565b60026020528060005260406000206000915054906101000a900460ff1681565b600260003373ffffffffffffffffffffffffffffffffffffffff1673ffffffffffffffffffffffffffffffffffffffff16815260200190815260200160002060009054906101000a900460ff16610582576040517f08c379a0000000000000000000000000000000000000000000000000000000008152600401610579906120ec565b60405180910390fd5b88600360008c81526020019081526020016000206001018190555087600360008c81526020019081526020016000206002018190555086600360008c81526020019081526020016000206003018190555085600360008c81526020019081526020016000206004018190555084600360008c81526020019081526020016000206005018190555083600360008c81526020019081526020016000206006018190555082600360008c81526020019081526020016000206007018190555081600360008c81526020019081526020016000206008018190555080600360008c815260200190815260200160002060090160006101000a81548160ff021916908315150217905550893373ffffffffffffffffffffffffffffffffffffffff167fd753a37b2c8dddd96ff531876ed175cc6e8ea9b3c7e5ded022ed1f4920af2ae960405160405180910390a350505050505050505050565b600260003373ffffffffffffffffffffffffffffffffffffffff1673ffffffffffffffffffffffffffffffffffffffff16815260200190815260200160002060009054906101000a900460ff16610764576040517f08c379a000000000000000000000000000000000000000000000000000000000815260040161075b906120ec565b60405180910390fd5b6003600082815260200190815260200160002060090160009054906101000a900460ff166107c7576040517f08c379a00000000000000000000000000000000000000000000000000000000081526004016107be9061202c565b60405180910390fd5b60006003600083815260200190815260200160002060090160006101000a81548160ff021916908315150217905550803373ffffffffffffffffffffffffffffffffffffffff167f9f75cf47ba8d14010ea5f2eda156fd87978dcf97d56ce98c4a27a3629027341f60405160405180910390a350565b600260003373ffffffffffffffffffffffffffffffffffffffff1673ffffffffffffffffffffffffffffffffffffffff16815260200190815260200160002060009054906101000a900460ff166108c9576040517f08c379a00000000000000000000000000000000000000000000000000000000081526004016108c0906120ec565b60405180910390fd5b6000600180805490506108dc919061230c565b905060006040518061014001604052808381526020018c81526020018b81526020018a815260200189815260200188815260200187815260200186815260200185815260200184151581525090508060036000848152602001908152602001600020600082015181600001556020820151816001015560408201518160020155606082015181600301556080820151816004015560a0820151816005015560c0820151816006015560e0820151816007015561010082015181600801556101208201518160090160006101000a81548160ff02191690831515021790555090505060018190806001815401808255809150506001900390600052602060002090600a0201600090919091909150600082015181600001556020820151816001015560408201518160020155606082015181600301556080820151816004015560a0820151816005015560c0820151816006015560e0820151816007015561010082015181600801556101208201518160090160006101000a81548160ff0219169083151502179055505050813373ffffffffffffffffffffffffffffffffffffffff167fb5918b87a8c5f1a37470e63f9f8c7b1cb99fc430d8f4bdf8735e0197f8180c398d8d8d8d8d8d8d8d8d604051610abe99989796959493929190612127565b60405180910390a35050505050505050505050565b6000600360008381526020019081526020016000206001015411610b2c576040517f08c379a0000000000000000000000000000000000000000000000000000000008152600401610b23906120cc565b60405180910390fd5b3460036000838152602001908152602001600020600201541115610b85576040517f08c379a0000000000000000000000000000000000000000000000000000000008152600401610b7c9061204c565b60405180910390fd5b600460003373ffffffffffffffffffffffffffffffffffffffff1673ffffffffffffffffffffffffffffffffffffffff168152602001908152602001600020819080600181540180825580915050600190039060005260206000200160009091909190915055600360008281526020019081526020016000206001016000815480929190610c12906123fa565b919050555060018082610c259190612362565b81548110610c5c577f4e487b7100000000000000000000000000000000000000000000000000000000600052603260045260246000fd5b90600052602060002090600a02016001016000815480929190610c7e906123fa565b91905055506000600360008381526020019081526020016000206001015411610cd15760006003600083815260200190815260200160002060090160006101000a81548160ff0219169083151502179055505b803373ffffffffffffffffffffffffffffffffffffffff167f66a5ef2f642955d6f2287037a21d7c8b5af2b7a5a4ea4276577f4991da3749b360405160405180910390a350565b6060600260003373ffffffffffffffffffffffffffffffffffffffff1673ffffffffffffffffffffffffffffffffffffffff16815260200190815260200160002060009054906101000a900460ff16610da6576040517f08c379a0000000000000000000000000000000000000000000000000000000008152600401610d9d906120ec565b60405180910390fd5b6000805480602002602001604051908101604052809291908181526020018280548015610e2857602002820191906000526020600020905b8160009054906101000a900473ffffffffffffffffffffffffffffffffffffffff1673ffffffffffffffffffffffffffffffffffffffff1681526020019060010190808311610dde575b5050505050905090565b6060600460008373ffffffffffffffffffffffffffffffffffffffff1673ffffffffffffffffffffffffffffffffffffffff168152602001908152602001600020805480602002602001604051908101604052809291908181526020018280548015610ebd57602002820191906000526020600020905b815481526020019060010190808311610ea9575b50505050509050919050565b600260003373ffffffffffffffffffffffffffffffffffffffff1673ffffffffffffffffffffffffffffffffffffffff16815260200190815260200160002060009054906101000a900460ff16610f55576040517f08c379a0000000000000000000000000000000000000000000000000000000008152600401610f4c906120ec565b60405180910390fd5b600073ffffffffffffffffffffffffffffffffffffffff168173ffffffffffffffffffffffffffffffffffffffff161415610fc5576040517f08c379a0000000000000000000000000000000000000000000000000000000008152600401610fbc9061206c565b60405180910390fd5b600260008273ffffffffffffffffffffffffffffffffffffffff1673ffffffffffffffffffffffffffffffffffffffff16815260200190815260200160002060009054906101000a900460ff1615611052576040517f08c379a00000000000000000000000000000000000000000000000000000000081526004016110499061208c565b60405180910390fd5b6001600260008373ffffffffffffffffffffffffffffffffffffffff1673ffffffffffffffffffffffffffffffffffffffff16815260200190815260200160002060006101000a81548160ff0219169083151502179055506000819080600181540180825580915050600190039060005260206000200160009091909190916101000a81548173ffffffffffffffffffffffffffffffffffffffff021916908373ffffffffffffffffffffffffffffffffffffffff1602179055508073ffffffffffffffffffffffffffffffffffffffff163373ffffffffffffffffffffffffffffffffffffffff167f16d390bfcd7f768e993e75948075b6927bc51a6ed5ba13ca1289f63cb8149e0860405160405180910390a350565b60036020528060005260406000206000915090508060000154908060010154908060020154908060030154908060040154908060050154908060060154908060070154908060080154908060090160009054906101000a900460ff1690508a565b6060600260003373ffffffffffffffffffffffffffffffffffffffff1673ffffffffffffffffffffffffffffffffffffffff16815260200190815260200160002060009054906101000a900460ff16611259576040517f08c379a0000000000000000000000000000000000000000000000000000000008152600401611250906120ec565b60405180910390fd5b6001805480602002602001604051908101604052809291908181526020016000905b8282101561132357838290600052602060002090600a0201604051806101400160405290816000820154815260200160018201548152602001600282015481526020016003820154815260200160048201548152602001600582015481526020016006820154815260200160078201548152602001600882015481526020016009820160009054906101000a900460ff1615151515815250508152602001906001019061127b565b50505050905090565b6004602052816000526040600020818154811061134857600080fd5b90600052602060002001600091509150505481565b6000806000806000806000806000806000600360008d8152602001908152602001600020604051806101400160405290816000820154815260200160018201548152602001600282015481526020016003820154815260200160048201548152602001600582015481526020016006820154815260200160078201548152602001600882015481526020016009820160009054906101000a900460ff1615151515815250509050806000015181602001518260400151836060015184608001518560a001518660c001518760e001518861010001518961012001519a509a509a509a509a509a509a509a509a509a50509193959799509193959799565b600260003373ffffffffffffffffffffffffffffffffffffffff1673ffffffffffffffffffffffffffffffffffffffff16815260200190815260200160002060009054906101000a900460ff166114e6576040517f08c379a00000000000000000000000000000000000000000000000000000000081526004016114dd906120ec565b60405180910390fd5b600073ffffffffffffffffffffffffffffffffffffffff168273ffffffffffffffffffffffffffffffffffffffff161415611556576040517f08c379a000000000000000000000000000000000000000000000000000000000815260040161154d9061206c565b60405180910390fd5b600260008373ffffffffffffffffffffffffffffffffffffffff1673ffffffffffffffffffffffffffffffffffffffff16815260200190815260200160002060009054906101000a900460ff166115e2576040517f08c379a00000000000000000000000000000000000000000000000000000000081526004016115d9906120ac565b60405180910390fd5b6000600260008473ffffffffffffffffffffffffffffffffffffffff1673ffffffffffffffffffffffffffffffffffffffff16815260200190815260200160002060006101000a81548160ff0219169083151502179055506000600160008054905061164e9190612362565b81548110611685577f4e487b7100000000000000000000000000000000000000000000000000000000600052603260045260246000fd5b9060005260206000200160009054906101000a900473ffffffffffffffffffffffffffffffffffffffff16600082815481106116ea577f4e487b7100000000000000000000000000000000000000000000000000000000600052603260045260246000fd5b9060005260206000200160006101000a81548173ffffffffffffffffffffffffffffffffffffffff021916908373ffffffffffffffffffffffffffffffffffffffff160217905550600080548061176a577f4e487b7100000000000000000000000000000000000000000000000000000000600052603160045260246000fd5b6001900381819060005260206000200160006101000a81549073ffffffffffffffffffffffffffffffffffffffff021916905590558173ffffffffffffffffffffffffffffffffffffffff163373ffffffffffffffffffffffffffffffffffffffff167faa2f779dd42ed572be732a547777489345cbcfa6ced22183c0d33b3fbedefebc60405160405180910390a35050565b600260003373ffffffffffffffffffffffffffffffffffffffff1673ffffffffffffffffffffffffffffffffffffffff16815260200190815260200160002060009054906101000a900460ff16611889576040517f08c379a0000000000000000000000000000000000000000000000000000000008152600401611880906120ec565b60405180910390fd5b60004790508173ffffffffffffffffffffffffffffffffffffffff166108fc829081150290604051600060405180830381858888f193505050501580156118d4573d6000803e3d6000fd5b508173ffffffffffffffffffffffffffffffffffffffff163373ffffffffffffffffffffffffffffffffffffffff167ff940e3851549e5c2062f065152e2151c57f5902a4d0de0f053e7f80205e4aabf60405160405180910390a35050565b60008135905061194281612572565b92915050565b60008135905061195781612589565b92915050565b60008135905061196c816125a0565b92915050565b600081359050611981816125b7565b92915050565b600081359050611996816125ce565b92915050565b6000602082840312156119ae57600080fd5b60006119bc84828501611933565b91505092915050565b6000602082840312156119d757600080fd5b60006119e584828501611948565b91505092915050565b60008060408385031215611a0157600080fd5b6000611a0f85828601611933565b9250506020611a2085828601611987565b9150509250929050565b600060208284031215611a3c57600080fd5b6000611a4a84828501611987565b91505092915050565b60008060008060008060008060006101208a8c031215611a7257600080fd5b6000611a808c828d01611987565b9950506020611a918c828d01611987565b9850506040611aa28c828d01611972565b9750506060611ab38c828d01611972565b9650506080611ac48c828d01611972565b95505060a0611ad58c828d01611972565b94505060c0611ae68c828d01611972565b93505060e0611af78c828d01611972565b925050610100611b098c828d0161195d565b9150509295985092959850929598565b6000806000806000806000806000806101408b8d031215611b3957600080fd5b6000611b478d828e01611987565b9a50506020611b588d828e01611987565b9950506040611b698d828e01611987565b9850506060611b7a8d828e01611972565b9750506080611b8b8d828e01611972565b96505060a0611b9c8d828e01611972565b95505060c0611bad8d828e01611972565b94505060e0611bbe8d828e01611972565b935050610100611bd08d828e01611972565b925050610120611be28d828e0161195d565b9150509295989b9194979a5092959850565b6000611c008383611c3d565b60208301905092915050565b6000611c188383611ea6565b6101408301905092915050565b6000611c318383611f72565b60208301905092915050565b611c4681612396565b82525050565b611c5581612396565b82525050565b6000611c6682612280565b611c7081856122c8565b9350611c7b83612250565b8060005b83811015611cac578151611c938882611bf4565b9750611c9e836122a1565b925050600181019050611c7f565b5085935050505092915050565b6000611cc48261228b565b611cce81856122d9565b9350611cd983612260565b8060005b83811015611d0a578151611cf18882611c0c565b9750611cfc836122ae565b925050600181019050611cdd565b5085935050505092915050565b6000611d2282612296565b611d2c81856122ea565b9350611d3783612270565b8060005b83811015611d68578151611d4f8882611c25565b9750611d5a836122bb565b925050600181019050611d3b565b5085935050505092915050565b611d7e816123ba565b82525050565b611d8d816123ba565b82525050565b611d9c816123c6565b82525050565b611dab816123c6565b82525050565b6000611dbe6019836122fb565b9150611dc982612453565b602082019050919050565b6000611de1601a836122fb565b9150611dec8261247c565b602082019050919050565b6000611e04600d836122fb565b9150611e0f826124a5565b602082019050919050565b6000611e276014836122fb565b9150611e32826124ce565b602082019050919050565b6000611e4a6011836122fb565b9150611e55826124f7565b602082019050919050565b6000611e6d6011836122fb565b9150611e7882612520565b602082019050919050565b6000611e906012836122fb565b9150611e9b82612549565b602082019050919050565b61014082016000820151611ebd6000850182611f72565b506020820151611ed06020850182611f72565b506040820151611ee36040850182611f72565b506060820151611ef66060850182611d93565b506080820151611f096080850182611d93565b5060a0820151611f1c60a0850182611d93565b5060c0820151611f2f60c0850182611d93565b5060e0820151611f4260e0850182611d93565b50610100820151611f57610100850182611d93565b50610120820151611f6c610120850182611d75565b50505050565b611f7b816123f0565b82525050565b611f8a816123f0565b82525050565b6000602082019050611fa56000830184611c4c565b92915050565b60006020820190508181036000830152611fc58184611c5b565b905092915050565b60006020820190508181036000830152611fe78184611cb9565b905092915050565b600060208201905081810360008301526120098184611d17565b905092915050565b60006020820190506120266000830184611d84565b92915050565b6000602082019050818103600083015261204581611db1565b9050919050565b6000602082019050818103600083015261206581611dd4565b9050919050565b6000602082019050818103600083015261208581611df7565b9050919050565b600060208201905081810360008301526120a581611e1a565b9050919050565b600060208201905081810360008301526120c581611e3d565b9050919050565b600060208201905081810360008301526120e581611e60565b9050919050565b6000602082019050818103600083015261210581611e83565b9050919050565b60006020820190506121216000830184611f81565b92915050565b60006101208201905061213d600083018c611f81565b61214a602083018b611f81565b612157604083018a611da2565b6121646060830189611da2565b6121716080830188611da2565b61217e60a0830187611da2565b61218b60c0830186611da2565b61219860e0830185611da2565b6121a6610100830184611d84565b9a9950505050505050505050565b6000610140820190506121ca600083018d611f81565b6121d7602083018c611f81565b6121e4604083018b611f81565b6121f1606083018a611da2565b6121fe6080830189611da2565b61220b60a0830188611da2565b61221860c0830187611da2565b61222560e0830186611da2565b612233610100830185611da2565b612241610120830184611d84565b9b9a5050505050505050505050565b6000819050602082019050919050565b6000819050602082019050919050565b6000819050602082019050919050565b600081519050919050565b600081519050919050565b600081519050919050565b6000602082019050919050565b6000602082019050919050565b6000602082019050919050565b600082825260208201905092915050565b600082825260208201905092915050565b600082825260208201905092915050565b600082825260208201905092915050565b6000612317826123f0565b9150612322836123f0565b9250827fffffffffffffffffffffffffffffffffffffffffffffffffffffffffffffffff0382111561235757612356612424565b5b828201905092915050565b600061236d826123f0565b9150612378836123f0565b92508282101561238b5761238a612424565b5b828203905092915050565b60006123a1826123d0565b9050919050565b60006123b3826123d0565b9050919050565b60008115159050919050565b6000819050919050565b600073ffffffffffffffffffffffffffffffffffffffff82169050919050565b6000819050919050565b6000612405826123f0565b9150600082141561241957612418612424565b5b600182039050919050565b7f4e487b7100000000000000000000000000000000000000000000000000000000600052601160045260246000fd5b7f4576656e742069732064656c6574656420616c72656164792100000000000000600082015250565b7f506c6561736520636865636b207469636b657420707269636521000000000000600082015250565b7f696e76616c6964206f776e657200000000000000000000000000000000000000600082015250565b7f6f776e65722065786973747320616c7265616479000000000000000000000000600082015250565b7f6f776e6572206e6f742065786973747321000000000000000000000000000000600082015250565b7f416c6c207469636b65747320736f6c6421000000000000000000000000000000600082015250565b7f596f7520617265206e6f74206f776e6572210000000000000000000000000000600082015250565b61257b81612396565b811461258657600080fd5b50565b612592816123a8565b811461259d57600080fd5b50565b6125a9816123ba565b81146125b457600080fd5b50565b6125c0816123c6565b81146125cb57600080fd5b50565b6125d7816123f0565b81146125e257600080fd5b5056fea264697066735822122027a53852786648c56fdb4fea05e67283a1f89f04498316fcc48e0243ee62581b64736f6c63430008010033",
  "immutableReferences": {},
  "source": "// SPDX-License-Identifier: MIT\r\npragma solidity ^0.8.1;\r\n\r\ncontract Ticket {\r\n    struct EventInfo {\r\n        uint id;\r\n        uint ticketCount;\r\n        uint price;\r\n        bytes32 date;\r\n        bytes32 name;\r\n        bytes32 location;\r\n        bytes32 city;\r\n        bytes32 description;\r\n        bytes32 category;\r\n        bool isActive;\r\n    }\r\n    \r\n    address[] public owners;\r\n    EventInfo[] public events;\r\n    mapping(address => bool) public isOwner;\r\n    mapping(uint => EventInfo) public findEvent;\r\n    mapping(address => uint[]) public userEvents;\r\n    \r\n    event createEvent(address indexed owner, uint indexed id, uint _ticketCount, uint _price, bytes32 _date, bytes32 _name, bytes32 _location, bytes32 _city, bytes32 _description, bytes32 _category, bool _isActive);\r\n    event deleteEvent(address indexed owner, uint indexed id);\r\n    event editEvent(address indexed owner, uint indexed id);\r\n    event buyTicket(address indexed sender, uint indexed id);\r\n    event withdraw(address indexed _from, address indexed _to);\r\n    event addOwner(address indexed sender, address indexed newOwner);\r\n    event deleteOwner(address indexed sender, address indexed deletedAddress);\r\n    \r\n    constructor(address[] memory _owners) {\r\n        for(uint i = 0; i < _owners.length; i++) {\r\n            address owner = _owners[i];\r\n            require(owner != address(0), \"invalid owner\");\r\n            require(!isOwner[owner], \"owner exists already\");\r\n            \r\n            isOwner[owner] = true;\r\n            owners.push(owner);\r\n        }\r\n    }\r\n    \r\n    modifier onlyOwner() {\r\n        require(isOwner[msg.sender], \"You are not owner!\");\r\n        _;\r\n    }\r\n\r\n    function GetOwners() external view onlyOwner returns(address[] memory)  {\r\n        return owners;\r\n    }\r\n\r\n    function GetUserEvents(address _address) external view returns(uint[] memory) {\r\n        return userEvents[_address];\r\n    }\r\n    \r\n    function CreateEvent(uint _ticketCount, uint _price, bytes32 _date, bytes32 _name, bytes32 _location, bytes32 _city, bytes32 _description, bytes32 _category, bool _isActive) external onlyOwner {\r\n        uint id = events.length + 1;\r\n        EventInfo memory _event = EventInfo(id, _ticketCount, _price, _date, _name, _location, _city, _description, _category, _isActive);\r\n        findEvent[id] = _event;\r\n        events.push(_event);\r\n        emit createEvent(msg.sender, id, _ticketCount, _price, _date, _name, _location, _city, _description, _category, _isActive);\r\n    }\r\n    \r\n    function GetEvent(uint id) public view returns(uint, uint, uint, bytes32, bytes32, bytes32, bytes32, bytes32, bytes32, bool) {\r\n        EventInfo memory _event = findEvent[id]; \r\n        return (_event.id, _event.ticketCount, _event.price, _event.date, _event.name, _event.location, _event.city, _event.description, _event.category, _event.isActive);\r\n    }\r\n\r\n    function GetEvents() external view onlyOwner returns(EventInfo[] memory) {\r\n        return events;\r\n    }\r\n    \r\n    function DeleteEvent(uint id) public onlyOwner{\r\n        require(findEvent[id].isActive, \"Event is deleted already!\");\r\n        findEvent[id].isActive = false;\r\n        emit deleteEvent(msg.sender, id);\r\n    }\r\n    \r\n    function EditEvent(uint id, uint _ticketCount, uint _price, bytes32 _date, bytes32 _name, bytes32 _location, bytes32 _city, bytes32 _description, bytes32 _category, bool _isActive) external onlyOwner {\r\n        findEvent[id].ticketCount = _ticketCount;\r\n        findEvent[id].price = _price;\r\n        findEvent[id].date = _date;\r\n        findEvent[id].name = _name;\r\n        findEvent[id].location = _location;\r\n        findEvent[id].city = _city;\r\n        findEvent[id].description = _description;\r\n        findEvent[id].category = _category;\r\n        findEvent[id].isActive = _isActive;\r\n        emit editEvent(msg.sender, id);\r\n    }\r\n    \r\n    function BuyTicket(uint id) external payable {\r\n        require(findEvent[id].ticketCount > 0, \"All tickets sold!\");\r\n        require(findEvent[id].price <= msg.value, \"Please check ticket price!\");\r\n        userEvents[msg.sender].push(id);\r\n        findEvent[id].ticketCount--;\r\n        events[id - 1].ticketCount--;\r\n        if (findEvent[id].ticketCount <= 0) {\r\n            findEvent[id].isActive = false;\r\n        }\r\n        emit buyTicket(msg.sender, id);\r\n    }\r\n    \r\n    function Withdraw(address payable _to) public onlyOwner {\r\n        uint balance = address(this).balance;\r\n        _to.transfer(balance);\r\n        emit withdraw(msg.sender, _to);\r\n    }\r\n    \r\n    function AddOwner(address _newOwner) external onlyOwner {\r\n        require(_newOwner != address(0), \"invalid owner\");\r\n        require(!isOwner[_newOwner], \"owner exists already\");\r\n        isOwner[_newOwner] = true;\r\n        owners.push(_newOwner);\r\n        emit addOwner(msg.sender, _newOwner);\r\n    }\r\n    \r\n    function DeleteOwner(address _owner, uint index) external onlyOwner {\r\n        require(_owner != address(0), \"invalid owner\");\r\n        require(isOwner[_owner], \"owner not exists!\");\r\n        isOwner[_owner] = false;\r\n        owners[index] = owners[owners.length - 1];\r\n        owners.pop();\r\n        emit deleteOwner(msg.sender, _owner);\r\n    }\r\n}\r\n",
  "sourcePath": "C:/Users/User/Desktop/Solidity Projects/TicketSite/contracts/Ticket.sol",
  "compiler": {
    "name": "solc",
    "version": "0.8.1+commit.df193b15.Emscripten.clang"
  },
  "schemaVersion": "3.4.1",
  "updatedAt": "2021-12-17T23:30:50.241Z",
  "networkType": "ethereum",
  "devdoc": {
    "kind": "dev",
    "methods": {},
    "version": 1
  },
  "userdoc": {
    "kind": "user",
    "methods": {},
    "version": 1
  }
}