{
  "contractName": "Ticket",
  "abi": [
    {
      "inputs": [
        {
          "internalType": "address[]",
          "name": "_owners",
          "type": "address[]"
        }
      ],
      "stateMutability": "nonpayable",
      "type": "constructor"
    },
    {
      "anonymous": false,
      "inputs": [
        {
          "indexed": true,
          "internalType": "address",
          "name": "sender",
          "type": "address"
        },
        {
          "indexed": true,
          "internalType": "address",
          "name": "newOwner",
          "type": "address"
        }
      ],
      "name": "addOwner",
      "type": "event"
    },
    {
      "anonymous": false,
      "inputs": [
        {
          "indexed": true,
          "internalType": "address",
          "name": "sender",
          "type": "address"
        },
        {
          "indexed": true,
          "internalType": "uint256",
          "name": "id",
          "type": "uint256"
        }
      ],
      "name": "buyTicket",
      "type": "event"
    },
    {
      "anonymous": false,
      "inputs": [
        {
          "indexed": true,
          "internalType": "address",
          "name": "owner",
          "type": "address"
        },
        {
          "indexed": true,
          "internalType": "uint256",
          "name": "id",
          "type": "uint256"
        },
        {
          "indexed": false,
          "internalType": "uint256",
          "name": "_ticketCount",
          "type": "uint256"
        },
        {
          "indexed": false,
          "internalType": "uint256",
          "name": "_price",
          "type": "uint256"
        },
        {
          "indexed": false,
          "internalType": "bytes32",
          "name": "_date",
          "type": "bytes32"
        },
        {
          "indexed": false,
          "internalType": "bytes32",
          "name": "_name",
          "type": "bytes32"
        },
        {
          "indexed": false,
          "internalType": "bytes32",
          "name": "_location",
          "type": "bytes32"
        },
        {
          "indexed": false,
          "internalType": "bytes32",
          "name": "_description",
          "type": "bytes32"
        },
        {
          "indexed": false,
          "internalType": "bool",
          "name": "_isActive",
          "type": "bool"
        }
      ],
      "name": "createEvent",
      "type": "event"
    },
    {
      "anonymous": false,
      "inputs": [
        {
          "indexed": true,
          "internalType": "address",
          "name": "owner",
          "type": "address"
        },
        {
          "indexed": true,
          "internalType": "uint256",
          "name": "id",
          "type": "uint256"
        }
      ],
      "name": "deleteEvent",
      "type": "event"
    },
    {
      "anonymous": false,
      "inputs": [
        {
          "indexed": true,
          "internalType": "address",
          "name": "sender",
          "type": "address"
        },
        {
          "indexed": true,
          "internalType": "address",
          "name": "deletedAddress",
          "type": "address"
        }
      ],
      "name": "deleteOwner",
      "type": "event"
    },
    {
      "anonymous": false,
      "inputs": [
        {
          "indexed": true,
          "internalType": "address",
          "name": "owner",
          "type": "address"
        },
        {
          "indexed": true,
          "internalType": "uint256",
          "name": "id",
          "type": "uint256"
        }
      ],
      "name": "editEvent",
      "type": "event"
    },
    {
      "anonymous": false,
      "inputs": [
        {
          "indexed": true,
          "internalType": "address",
          "name": "_from",
          "type": "address"
        },
        {
          "indexed": true,
          "internalType": "address",
          "name": "_to",
          "type": "address"
        }
      ],
      "name": "withdraw",
      "type": "event"
    },
    {
      "inputs": [
        {
          "internalType": "uint256",
          "name": "",
          "type": "uint256"
        }
      ],
      "name": "events",
      "outputs": [
        {
          "internalType": "uint256",
          "name": "id",
          "type": "uint256"
        },
        {
          "internalType": "uint256",
          "name": "ticketCount",
          "type": "uint256"
        },
        {
          "internalType": "uint256",
          "name": "price",
          "type": "uint256"
        },
        {
          "internalType": "bytes32",
          "name": "date",
          "type": "bytes32"
        },
        {
          "internalType": "bytes32",
          "name": "name",
          "type": "bytes32"
        },
        {
          "internalType": "bytes32",
          "name": "location",
          "type": "bytes32"
        },
        {
          "internalType": "bytes32",
          "name": "description",
          "type": "bytes32"
        },
        {
          "internalType": "bool",
          "name": "isActive",
          "type": "bool"
        }
      ],
      "stateMutability": "view",
      "type": "function",
      "constant": true
    },
    {
      "inputs": [
        {
          "internalType": "uint256",
          "name": "",
          "type": "uint256"
        }
      ],
      "name": "findEvent",
      "outputs": [
        {
          "internalType": "uint256",
          "name": "id",
          "type": "uint256"
        },
        {
          "internalType": "uint256",
          "name": "ticketCount",
          "type": "uint256"
        },
        {
          "internalType": "uint256",
          "name": "price",
          "type": "uint256"
        },
        {
          "internalType": "bytes32",
          "name": "date",
          "type": "bytes32"
        },
        {
          "internalType": "bytes32",
          "name": "name",
          "type": "bytes32"
        },
        {
          "internalType": "bytes32",
          "name": "location",
          "type": "bytes32"
        },
        {
          "internalType": "bytes32",
          "name": "description",
          "type": "bytes32"
        },
        {
          "internalType": "bool",
          "name": "isActive",
          "type": "bool"
        }
      ],
      "stateMutability": "view",
      "type": "function",
      "constant": true
    },
    {
      "inputs": [
        {
          "internalType": "address",
          "name": "",
          "type": "address"
        }
      ],
      "name": "isOwner",
      "outputs": [
        {
          "internalType": "bool",
          "name": "",
          "type": "bool"
        }
      ],
      "stateMutability": "view",
      "type": "function",
      "constant": true
    },
    {
      "inputs": [
        {
          "internalType": "uint256",
          "name": "",
          "type": "uint256"
        }
      ],
      "name": "owners",
      "outputs": [
        {
          "internalType": "address",
          "name": "",
          "type": "address"
        }
      ],
      "stateMutability": "view",
      "type": "function",
      "constant": true
    },
    {
      "inputs": [
        {
          "internalType": "address",
          "name": "",
          "type": "address"
        },
        {
          "internalType": "uint256",
          "name": "",
          "type": "uint256"
        }
      ],
      "name": "userEvents",
      "outputs": [
        {
          "internalType": "uint256",
          "name": "",
          "type": "uint256"
        }
      ],
      "stateMutability": "view",
      "type": "function",
      "constant": true
    },
    {
      "inputs": [],
      "name": "GetOwners",
      "outputs": [
        {
          "internalType": "address[]",
          "name": "",
          "type": "address[]"
        }
      ],
      "stateMutability": "view",
      "type": "function",
      "constant": true
    },
    {
      "inputs": [
        {
          "internalType": "address",
          "name": "_address",
          "type": "address"
        }
      ],
      "name": "GetUserEvents",
      "outputs": [
        {
          "internalType": "uint256[]",
          "name": "",
          "type": "uint256[]"
        }
      ],
      "stateMutability": "view",
      "type": "function",
      "constant": true
    },
    {
      "inputs": [
        {
          "internalType": "uint256",
          "name": "_ticketCount",
          "type": "uint256"
        },
        {
          "internalType": "uint256",
          "name": "_price",
          "type": "uint256"
        },
        {
          "internalType": "bytes32",
          "name": "_date",
          "type": "bytes32"
        },
        {
          "internalType": "bytes32",
          "name": "_name",
          "type": "bytes32"
        },
        {
          "internalType": "bytes32",
          "name": "_location",
          "type": "bytes32"
        },
        {
          "internalType": "bytes32",
          "name": "_description",
          "type": "bytes32"
        },
        {
          "internalType": "bool",
          "name": "_isActive",
          "type": "bool"
        }
      ],
      "name": "CreateEvent",
      "outputs": [],
      "stateMutability": "nonpayable",
      "type": "function"
    },
    {
      "inputs": [
        {
          "internalType": "uint256",
          "name": "id",
          "type": "uint256"
        }
      ],
      "name": "GetEvent",
      "outputs": [
        {
          "internalType": "uint256",
          "name": "",
          "type": "uint256"
        },
        {
          "internalType": "uint256",
          "name": "",
          "type": "uint256"
        },
        {
          "internalType": "uint256",
          "name": "",
          "type": "uint256"
        },
        {
          "internalType": "bytes32",
          "name": "",
          "type": "bytes32"
        },
        {
          "internalType": "bytes32",
          "name": "",
          "type": "bytes32"
        },
        {
          "internalType": "bytes32",
          "name": "",
          "type": "bytes32"
        },
        {
          "internalType": "bytes32",
          "name": "",
          "type": "bytes32"
        },
        {
          "internalType": "bool",
          "name": "",
          "type": "bool"
        }
      ],
      "stateMutability": "view",
      "type": "function",
      "constant": true
    },
    {
      "inputs": [],
      "name": "GetEvents",
      "outputs": [
        {
          "components": [
            {
              "internalType": "uint256",
              "name": "id",
              "type": "uint256"
            },
            {
              "internalType": "uint256",
              "name": "ticketCount",
              "type": "uint256"
            },
            {
              "internalType": "uint256",
              "name": "price",
              "type": "uint256"
            },
            {
              "internalType": "bytes32",
              "name": "date",
              "type": "bytes32"
            },
            {
              "internalType": "bytes32",
              "name": "name",
              "type": "bytes32"
            },
            {
              "internalType": "bytes32",
              "name": "location",
              "type": "bytes32"
            },
            {
              "internalType": "bytes32",
              "name": "description",
              "type": "bytes32"
            },
            {
              "internalType": "bool",
              "name": "isActive",
              "type": "bool"
            }
          ],
          "internalType": "struct Ticket.EventInfo[]",
          "name": "",
          "type": "tuple[]"
        }
      ],
      "stateMutability": "view",
      "type": "function",
      "constant": true
    },
    {
      "inputs": [
        {
          "internalType": "uint256",
          "name": "id",
          "type": "uint256"
        }
      ],
      "name": "DeleteEvent",
      "outputs": [],
      "stateMutability": "nonpayable",
      "type": "function"
    },
    {
      "inputs": [
        {
          "internalType": "uint256",
          "name": "id",
          "type": "uint256"
        },
        {
          "internalType": "uint256",
          "name": "_ticketCount",
          "type": "uint256"
        },
        {
          "internalType": "uint256",
          "name": "_price",
          "type": "uint256"
        },
        {
          "internalType": "bytes32",
          "name": "_date",
          "type": "bytes32"
        },
        {
          "internalType": "bytes32",
          "name": "_name",
          "type": "bytes32"
        },
        {
          "internalType": "bytes32",
          "name": "_location",
          "type": "bytes32"
        },
        {
          "internalType": "bytes32",
          "name": "_description",
          "type": "bytes32"
        },
        {
          "internalType": "bool",
          "name": "_isActive",
          "type": "bool"
        }
      ],
      "name": "EditEvent",
      "outputs": [],
      "stateMutability": "nonpayable",
      "type": "function"
    },
    {
      "inputs": [
        {
          "internalType": "uint256",
          "name": "id",
          "type": "uint256"
        }
      ],
      "name": "BuyTicket",
      "outputs": [],
      "stateMutability": "payable",
      "type": "function",
      "payable": true
    },
    {
      "inputs": [
        {
          "internalType": "address payable",
          "name": "_to",
          "type": "address"
        }
      ],
      "name": "Withdraw",
      "outputs": [],
      "stateMutability": "nonpayable",
      "type": "function"
    },
    {
      "inputs": [
        {
          "internalType": "address",
          "name": "_newOwner",
          "type": "address"
        }
      ],
      "name": "AddOwner",
      "outputs": [],
      "stateMutability": "nonpayable",
      "type": "function"
    },
    {
      "inputs": [
        {
          "internalType": "address",
          "name": "_owner",
          "type": "address"
        },
        {
          "internalType": "uint256",
          "name": "index",
          "type": "uint256"
        }
      ],
      "name": "DeleteOwner",
      "outputs": [],
      "stateMutability": "nonpayable",
      "type": "function"
    }
  ],
  "bytecode": "0x60806040523480156200001157600080fd5b5060405162002aa038038062002aa0833981810160405281019062000037919062000320565b60005b81518110156200025f57600082828151811062000080577f4e487b7100000000000000000000000000000000000000000000000000000000600052603260045260246000fd5b60200260200101519050600073ffffffffffffffffffffffffffffffffffffffff168173ffffffffffffffffffffffffffffffffffffffff161415620000fd576040517f08c379a0000000000000000000000000000000000000000000000000000000008152600401620000f490620003b3565b60405180910390fd5b600260008273ffffffffffffffffffffffffffffffffffffffff1673ffffffffffffffffffffffffffffffffffffffff16815260200190815260200160002060009054906101000a900460ff16156200018d576040517f08c379a00000000000000000000000000000000000000000000000000000000081526004016200018490620003d5565b60405180910390fd5b6001600260008373ffffffffffffffffffffffffffffffffffffffff1673ffffffffffffffffffffffffffffffffffffffff16815260200190815260200160002060006101000a81548160ff0219169083151502179055506000819080600181540180825580915050600190039060005260206000200160009091909190916101000a81548173ffffffffffffffffffffffffffffffffffffffff021916908373ffffffffffffffffffffffffffffffffffffffff1602179055505080806200025690620004d4565b9150506200003a565b5050620005fd565b60006200027e620002788462000420565b620003f7565b905080838252602082019050828560208602820111156200029e57600080fd5b60005b85811015620002d25781620002b78882620002dc565b845260208401935060208301925050600181019050620002a1565b5050509392505050565b600081519050620002ed81620005e3565b92915050565b600082601f8301126200030557600080fd5b81516200031784826020860162000267565b91505092915050565b6000602082840312156200033357600080fd5b600082015167ffffffffffffffff8111156200034e57600080fd5b6200035c84828501620002f3565b91505092915050565b600062000374600d836200044f565b9150620003818262000591565b602082019050919050565b60006200039b6014836200044f565b9150620003a882620005ba565b602082019050919050565b60006020820190508181036000830152620003ce8162000365565b9050919050565b60006020820190508181036000830152620003f0816200038c565b9050919050565b60006200040362000416565b90506200041182826200049e565b919050565b6000604051905090565b600067ffffffffffffffff8211156200043e576200043d62000551565b5b602082029050602081019050919050565b600082825260208201905092915050565b60006200046d8262000474565b9050919050565b600073ffffffffffffffffffffffffffffffffffffffff82169050919050565b6000819050919050565b620004a98262000580565b810181811067ffffffffffffffff82111715620004cb57620004ca62000551565b5b80604052505050565b6000620004e18262000494565b91507fffffffffffffffffffffffffffffffffffffffffffffffffffffffffffffffff82141562000517576200051662000522565b5b600182019050919050565b7f4e487b7100000000000000000000000000000000000000000000000000000000600052601160045260246000fd5b7f4e487b7100000000000000000000000000000000000000000000000000000000600052604160045260246000fd5b6000601f19601f8301169050919050565b7f696e76616c6964206f776e657200000000000000000000000000000000000000600082015250565b7f6f776e65722065786973747320616c7265616479000000000000000000000000600082015250565b620005ee8162000460565b8114620005fa57600080fd5b50565b612493806200060d6000396000f3fe6080604052600436106100f35760003560e01c8063a07bccdb1161008a578063bdfc989311610059578063bdfc98931461034d578063cceb67e31461038a578063e3bf2144146103ce578063f6761151146103f7576100f3565b8063a07bccdb14610278578063ac1e9ef4146102b5578063ad16c2fb146102de578063bbd8bc6214610322576100f3565b806348c8ba26116100c657806348c8ba26146101df57806376acb5e8146102085780637795f31814610224578063938af8981461024d576100f3565b8063025e7c27146100f85780630b79143014610135578063236adf58146101795780632f54bf6e146101a2575b600080fd5b34801561010457600080fd5b5061011f600480360381019061011a9190611959565b610420565b60405161012c9190611e44565b60405180910390f35b34801561014157600080fd5b5061015c60048036038101906101579190611959565b61045f565b60405161017098979695949392919061204a565b60405180910390f35b34801561018557600080fd5b506101a0600480360381019061019b9190611a20565b6104c4565b005b3480156101ae57600080fd5b506101c960048036038101906101c491906118cb565b61066e565b6040516101d69190611ec5565b60405180910390f35b3480156101eb57600080fd5b5061020660048036038101906102019190611959565b61068e565b005b610222600480360381019061021d9190611959565b6107f3565b005b34801561023057600080fd5b5061024b60048036038101906102469190611982565b610a38565b005b34801561025957600080fd5b50610262610c90565b60405161026f9190611e5f565b60405180910390f35b34801561028457600080fd5b5061029f600480360381019061029a91906118cb565b610daa565b6040516102ac9190611ea3565b60405180910390f35b3480156102c157600080fd5b506102dc60048036038101906102d791906118cb565b610e41565b005b3480156102ea57600080fd5b5061030560048036038101906103009190611959565b6110e2565b60405161031998979695949392919061204a565b60405180910390f35b34801561032e57600080fd5b50610337611137565b6040516103449190611e81565b60405180910390f35b34801561035957600080fd5b50610374600480360381019061036f919061191d565b611284565b6040516103819190611fc0565b60405180910390f35b34801561039657600080fd5b506103b160048036038101906103ac9190611959565b6112b5565b6040516103c598979695949392919061204a565b60405180910390f35b3480156103da57600080fd5b506103f560048036038101906103f0919061191d565b611389565b005b34801561040357600080fd5b5061041e600480360381019061041991906118f4565b61172c565b005b6000818154811061043057600080fd5b906000526020600020016000915054906101000a900473ffffffffffffffffffffffffffffffffffffffff1681565b6001818154811061046f57600080fd5b90600052602060002090600802016000915090508060000154908060010154908060020154908060030154908060040154908060050154908060060154908060070160009054906101000a900460ff16905088565b600260003373ffffffffffffffffffffffffffffffffffffffff1673ffffffffffffffffffffffffffffffffffffffff16815260200190815260200160002060009054906101000a900460ff16610550576040517f08c379a000000000000000000000000000000000000000000000000000000000815260040161054790611fa0565b60405180910390fd5b86600360008a81526020019081526020016000206001018190555085600360008a81526020019081526020016000206002018190555084600360008a81526020019081526020016000206003018190555083600360008a81526020019081526020016000206004018190555082600360008a81526020019081526020016000206005018190555081600360008a81526020019081526020016000206006018190555080600360008a815260200190815260200160002060070160006101000a81548160ff021916908315150217905550873373ffffffffffffffffffffffffffffffffffffffff167fd753a37b2c8dddd96ff531876ed175cc6e8ea9b3c7e5ded022ed1f4920af2ae960405160405180910390a35050505050505050565b60026020528060005260406000206000915054906101000a900460ff1681565b600260003373ffffffffffffffffffffffffffffffffffffffff1673ffffffffffffffffffffffffffffffffffffffff16815260200190815260200160002060009054906101000a900460ff1661071a576040517f08c379a000000000000000000000000000000000000000000000000000000000815260040161071190611fa0565b60405180910390fd5b6003600082815260200190815260200160002060070160009054906101000a900460ff1661077d576040517f08c379a000000000000000000000000000000000000000000000000000000000815260040161077490611ee0565b60405180910390fd5b60006003600083815260200190815260200160002060070160006101000a81548160ff021916908315150217905550803373ffffffffffffffffffffffffffffffffffffffff167f9f75cf47ba8d14010ea5f2eda156fd87978dcf97d56ce98c4a27a3629027341f60405160405180910390a350565b600060036000838152602001908152602001600020600101541161084c576040517f08c379a000000000000000000000000000000000000000000000000000000000815260040161084390611f80565b60405180910390fd5b34600360008381526020019081526020016000206002015411156108a5576040517f08c379a000000000000000000000000000000000000000000000000000000000815260040161089c90611f00565b60405180910390fd5b600460003373ffffffffffffffffffffffffffffffffffffffff1673ffffffffffffffffffffffffffffffffffffffff16815260200190815260200160002081908060018154018082558091505060019003906000526020600020016000909190919091505560036000828152602001908152602001600020600101600081548092919061093290612272565b91905055506001808261094591906121da565b8154811061097c577f4e487b7100000000000000000000000000000000000000000000000000000000600052603260045260246000fd5b9060005260206000209060080201600101600081548092919061099e90612272565b919050555060006003600083815260200190815260200160002060010154116109f15760006003600083815260200190815260200160002060070160006101000a81548160ff0219169083151502179055505b803373ffffffffffffffffffffffffffffffffffffffff167f66a5ef2f642955d6f2287037a21d7c8b5af2b7a5a4ea4276577f4991da3749b360405160405180910390a350565b600260003373ffffffffffffffffffffffffffffffffffffffff1673ffffffffffffffffffffffffffffffffffffffff16815260200190815260200160002060009054906101000a900460ff16610ac4576040517f08c379a0000000000000000000000000000000000000000000000000000000008152600401610abb90611fa0565b60405180910390fd5b600060018080549050610ad79190612184565b905060006040518061010001604052808381526020018a815260200189815260200188815260200187815260200186815260200185815260200184151581525090508060036000848152602001908152602001600020600082015181600001556020820151816001015560408201518160020155606082015181600301556080820151816004015560a0820151816005015560c0820151816006015560e08201518160070160006101000a81548160ff0219169083151502179055509050506001819080600181540180825580915050600190039060005260206000209060080201600090919091909150600082015181600001556020820151816001015560408201518160020155606082015181600301556080820151816004015560a0820151816005015560c0820151816006015560e08201518160070160006101000a81548160ff0219169083151502179055505050813373ffffffffffffffffffffffffffffffffffffffff167fbaa21be49fc515fed662d6af0d2101d60d42ebaceee7916022c7e15b5b0192348b8b8b8b8b8b8b604051610c7d9796959493929190611fdb565b60405180910390a3505050505050505050565b6060600260003373ffffffffffffffffffffffffffffffffffffffff1673ffffffffffffffffffffffffffffffffffffffff16815260200190815260200160002060009054906101000a900460ff16610d1e576040517f08c379a0000000000000000000000000000000000000000000000000000000008152600401610d1590611fa0565b60405180910390fd5b6000805480602002602001604051908101604052809291908181526020018280548015610da057602002820191906000526020600020905b8160009054906101000a900473ffffffffffffffffffffffffffffffffffffffff1673ffffffffffffffffffffffffffffffffffffffff1681526020019060010190808311610d56575b5050505050905090565b6060600460008373ffffffffffffffffffffffffffffffffffffffff1673ffffffffffffffffffffffffffffffffffffffff168152602001908152602001600020805480602002602001604051908101604052809291908181526020018280548015610e3557602002820191906000526020600020905b815481526020019060010190808311610e21575b50505050509050919050565b600260003373ffffffffffffffffffffffffffffffffffffffff1673ffffffffffffffffffffffffffffffffffffffff16815260200190815260200160002060009054906101000a900460ff16610ecd576040517f08c379a0000000000000000000000000000000000000000000000000000000008152600401610ec490611fa0565b60405180910390fd5b600073ffffffffffffffffffffffffffffffffffffffff168173ffffffffffffffffffffffffffffffffffffffff161415610f3d576040517f08c379a0000000000000000000000000000000000000000000000000000000008152600401610f3490611f20565b60405180910390fd5b600260008273ffffffffffffffffffffffffffffffffffffffff1673ffffffffffffffffffffffffffffffffffffffff16815260200190815260200160002060009054906101000a900460ff1615610fca576040517f08c379a0000000000000000000000000000000000000000000000000000000008152600401610fc190611f40565b60405180910390fd5b6001600260008373ffffffffffffffffffffffffffffffffffffffff1673ffffffffffffffffffffffffffffffffffffffff16815260200190815260200160002060006101000a81548160ff0219169083151502179055506000819080600181540180825580915050600190039060005260206000200160009091909190916101000a81548173ffffffffffffffffffffffffffffffffffffffff021916908373ffffffffffffffffffffffffffffffffffffffff1602179055508073ffffffffffffffffffffffffffffffffffffffff163373ffffffffffffffffffffffffffffffffffffffff167f16d390bfcd7f768e993e75948075b6927bc51a6ed5ba13ca1289f63cb8149e0860405160405180910390a350565b60036020528060005260406000206000915090508060000154908060010154908060020154908060030154908060040154908060050154908060060154908060070160009054906101000a900460ff16905088565b6060600260003373ffffffffffffffffffffffffffffffffffffffff1673ffffffffffffffffffffffffffffffffffffffff16815260200190815260200160002060009054906101000a900460ff166111c5576040517f08c379a00000000000000000000000000000000000000000000000000000000081526004016111bc90611fa0565b60405180910390fd5b6001805480602002602001604051908101604052809291908181526020016000905b8282101561127b578382906000526020600020906008020160405180610100016040529081600082015481526020016001820154815260200160028201548152602001600382015481526020016004820154815260200160058201548152602001600682015481526020016007820160009054906101000a900460ff161515151581525050815260200190600101906111e7565b50505050905090565b600460205281600052604060002081815481106112a057600080fd5b90600052602060002001600091509150505481565b6000806000806000806000806000600360008b815260200190815260200160002060405180610100016040529081600082015481526020016001820154815260200160028201548152602001600382015481526020016004820154815260200160058201548152602001600682015481526020016007820160009054906101000a900460ff1615151515815250509050806000015181602001518260400151836060015184608001518560a001518660c001518760e001519850985098509850985098509850985050919395975091939597565b600260003373ffffffffffffffffffffffffffffffffffffffff1673ffffffffffffffffffffffffffffffffffffffff16815260200190815260200160002060009054906101000a900460ff16611415576040517f08c379a000000000000000000000000000000000000000000000000000000000815260040161140c90611fa0565b60405180910390fd5b600073ffffffffffffffffffffffffffffffffffffffff168273ffffffffffffffffffffffffffffffffffffffff161415611485576040517f08c379a000000000000000000000000000000000000000000000000000000000815260040161147c90611f20565b60405180910390fd5b600260008373ffffffffffffffffffffffffffffffffffffffff1673ffffffffffffffffffffffffffffffffffffffff16815260200190815260200160002060009054906101000a900460ff16611511576040517f08c379a000000000000000000000000000000000000000000000000000000000815260040161150890611f60565b60405180910390fd5b6000600260008473ffffffffffffffffffffffffffffffffffffffff1673ffffffffffffffffffffffffffffffffffffffff16815260200190815260200160002060006101000a81548160ff0219169083151502179055506000600160008054905061157d91906121da565b815481106115b4577f4e487b7100000000000000000000000000000000000000000000000000000000600052603260045260246000fd5b9060005260206000200160009054906101000a900473ffffffffffffffffffffffffffffffffffffffff1660008281548110611619577f4e487b7100000000000000000000000000000000000000000000000000000000600052603260045260246000fd5b9060005260206000200160006101000a81548173ffffffffffffffffffffffffffffffffffffffff021916908373ffffffffffffffffffffffffffffffffffffffff1602179055506000805480611699577f4e487b7100000000000000000000000000000000000000000000000000000000600052603160045260246000fd5b6001900381819060005260206000200160006101000a81549073ffffffffffffffffffffffffffffffffffffffff021916905590558173ffffffffffffffffffffffffffffffffffffffff163373ffffffffffffffffffffffffffffffffffffffff167faa2f779dd42ed572be732a547777489345cbcfa6ced22183c0d33b3fbedefebc60405160405180910390a35050565b600260003373ffffffffffffffffffffffffffffffffffffffff1673ffffffffffffffffffffffffffffffffffffffff16815260200190815260200160002060009054906101000a900460ff166117b8576040517f08c379a00000000000000000000000000000000000000000000000000000000081526004016117af90611fa0565b60405180910390fd5b60004790508173ffffffffffffffffffffffffffffffffffffffff166108fc829081150290604051600060405180830381858888f19350505050158015611803573d6000803e3d6000fd5b508173ffffffffffffffffffffffffffffffffffffffff163373ffffffffffffffffffffffffffffffffffffffff167ff940e3851549e5c2062f065152e2151c57f5902a4d0de0f053e7f80205e4aabf60405160405180910390a35050565b600081359050611871816123ea565b92915050565b60008135905061188681612401565b92915050565b60008135905061189b81612418565b92915050565b6000813590506118b08161242f565b92915050565b6000813590506118c581612446565b92915050565b6000602082840312156118dd57600080fd5b60006118eb84828501611862565b91505092915050565b60006020828403121561190657600080fd5b600061191484828501611877565b91505092915050565b6000806040838503121561193057600080fd5b600061193e85828601611862565b925050602061194f858286016118b6565b9150509250929050565b60006020828403121561196b57600080fd5b6000611979848285016118b6565b91505092915050565b600080600080600080600060e0888a03121561199d57600080fd5b60006119ab8a828b016118b6565b97505060206119bc8a828b016118b6565b96505060406119cd8a828b016118a1565b95505060606119de8a828b016118a1565b94505060806119ef8a828b016118a1565b93505060a0611a008a828b016118a1565b92505060c0611a118a828b0161188c565b91505092959891949750929550565b600080600080600080600080610100898b031215611a3d57600080fd5b6000611a4b8b828c016118b6565b9850506020611a5c8b828c016118b6565b9750506040611a6d8b828c016118b6565b9650506060611a7e8b828c016118a1565b9550506080611a8f8b828c016118a1565b94505060a0611aa08b828c016118a1565b93505060c0611ab18b828c016118a1565b92505060e0611ac28b828c0161188c565b9150509295985092959890939650565b6000611ade8383611b1b565b60208301905092915050565b6000611af68383611d84565b6101008301905092915050565b6000611b0f8383611e26565b60208301905092915050565b611b248161220e565b82525050565b611b338161220e565b82525050565b6000611b44826120f8565b611b4e8185612140565b9350611b59836120c8565b8060005b83811015611b8a578151611b718882611ad2565b9750611b7c83612119565b925050600181019050611b5d565b5085935050505092915050565b6000611ba282612103565b611bac8185612151565b9350611bb7836120d8565b8060005b83811015611be8578151611bcf8882611aea565b9750611bda83612126565b925050600181019050611bbb565b5085935050505092915050565b6000611c008261210e565b611c0a8185612162565b9350611c15836120e8565b8060005b83811015611c46578151611c2d8882611b03565b9750611c3883612133565b925050600181019050611c19565b5085935050505092915050565b611c5c81612232565b82525050565b611c6b81612232565b82525050565b611c7a8161223e565b82525050565b611c898161223e565b82525050565b6000611c9c601983612173565b9150611ca7826122cb565b602082019050919050565b6000611cbf601a83612173565b9150611cca826122f4565b602082019050919050565b6000611ce2600d83612173565b9150611ced8261231d565b602082019050919050565b6000611d05601483612173565b9150611d1082612346565b602082019050919050565b6000611d28601183612173565b9150611d338261236f565b602082019050919050565b6000611d4b601183612173565b9150611d5682612398565b602082019050919050565b6000611d6e601283612173565b9150611d79826123c1565b602082019050919050565b61010082016000820151611d9b6000850182611e26565b506020820151611dae6020850182611e26565b506040820151611dc16040850182611e26565b506060820151611dd46060850182611c71565b506080820151611de76080850182611c71565b5060a0820151611dfa60a0850182611c71565b5060c0820151611e0d60c0850182611c71565b5060e0820151611e2060e0850182611c53565b50505050565b611e2f81612268565b82525050565b611e3e81612268565b82525050565b6000602082019050611e596000830184611b2a565b92915050565b60006020820190508181036000830152611e798184611b39565b905092915050565b60006020820190508181036000830152611e9b8184611b97565b905092915050565b60006020820190508181036000830152611ebd8184611bf5565b905092915050565b6000602082019050611eda6000830184611c62565b92915050565b60006020820190508181036000830152611ef981611c8f565b9050919050565b60006020820190508181036000830152611f1981611cb2565b9050919050565b60006020820190508181036000830152611f3981611cd5565b9050919050565b60006020820190508181036000830152611f5981611cf8565b9050919050565b60006020820190508181036000830152611f7981611d1b565b9050919050565b60006020820190508181036000830152611f9981611d3e565b9050919050565b60006020820190508181036000830152611fb981611d61565b9050919050565b6000602082019050611fd56000830184611e35565b92915050565b600060e082019050611ff0600083018a611e35565b611ffd6020830189611e35565b61200a6040830188611c80565b6120176060830187611c80565b6120246080830186611c80565b61203160a0830185611c80565b61203e60c0830184611c62565b98975050505050505050565b600061010082019050612060600083018b611e35565b61206d602083018a611e35565b61207a6040830189611e35565b6120876060830188611c80565b6120946080830187611c80565b6120a160a0830186611c80565b6120ae60c0830185611c80565b6120bb60e0830184611c62565b9998505050505050505050565b6000819050602082019050919050565b6000819050602082019050919050565b6000819050602082019050919050565b600081519050919050565b600081519050919050565b600081519050919050565b6000602082019050919050565b6000602082019050919050565b6000602082019050919050565b600082825260208201905092915050565b600082825260208201905092915050565b600082825260208201905092915050565b600082825260208201905092915050565b600061218f82612268565b915061219a83612268565b9250827fffffffffffffffffffffffffffffffffffffffffffffffffffffffffffffffff038211156121cf576121ce61229c565b5b828201905092915050565b60006121e582612268565b91506121f083612268565b9250828210156122035761220261229c565b5b828203905092915050565b600061221982612248565b9050919050565b600061222b82612248565b9050919050565b60008115159050919050565b6000819050919050565b600073ffffffffffffffffffffffffffffffffffffffff82169050919050565b6000819050919050565b600061227d82612268565b915060008214156122915761229061229c565b5b600182039050919050565b7f4e487b7100000000000000000000000000000000000000000000000000000000600052601160045260246000fd5b7f4576656e742069732064656c6574656420616c72656164792100000000000000600082015250565b7f506c6561736520636865636b207469636b657420707269636521000000000000600082015250565b7f696e76616c6964206f776e657200000000000000000000000000000000000000600082015250565b7f6f776e65722065786973747320616c7265616479000000000000000000000000600082015250565b7f6f776e6572206e6f742065786973747321000000000000000000000000000000600082015250565b7f416c6c207469636b65747320736f6c6421000000000000000000000000000000600082015250565b7f596f7520617265206e6f74206f776e6572210000000000000000000000000000600082015250565b6123f38161220e565b81146123fe57600080fd5b50565b61240a81612220565b811461241557600080fd5b50565b61242181612232565b811461242c57600080fd5b50565b6124388161223e565b811461244357600080fd5b50565b61244f81612268565b811461245a57600080fd5b5056fea26469706673582212202911abf3b4069c1cb35a0794c1d461cfc68a7f62d2ee3eb1a71ff355902ead9f64736f6c63430008010033",
  "immutableReferences": {},
  "source": "// SPDX-License-Identifier: MIT\r\npragma solidity ^0.8.1;\r\n\r\ncontract Ticket {\r\n    struct EventInfo {\r\n        uint id;\r\n        uint ticketCount;\r\n        uint price;\r\n        bytes32 date;\r\n        bytes32 name;\r\n        bytes32 location;\r\n        bytes32 description;\r\n        bool isActive;\r\n    }\r\n    \r\n    address[] public owners;\r\n    EventInfo[] public events;\r\n    mapping(address => bool) public isOwner;\r\n    mapping(uint => EventInfo) public findEvent;\r\n    mapping(address => uint[]) public userEvents;\r\n    \r\n    event createEvent(address indexed owner, uint indexed id, uint _ticketCount, uint _price, bytes32 _date, bytes32 _name, bytes32 _location, bytes32 _description, bool _isActive);\r\n    event deleteEvent(address indexed owner, uint indexed id);\r\n    event editEvent(address indexed owner, uint indexed id);\r\n    event buyTicket(address indexed sender, uint indexed id);\r\n    event withdraw(address indexed _from, address indexed _to);\r\n    event addOwner(address indexed sender, address indexed newOwner);\r\n    event deleteOwner(address indexed sender, address indexed deletedAddress);\r\n    \r\n    constructor(address[] memory _owners) {\r\n        for(uint i = 0; i < _owners.length; i++) {\r\n            address owner = _owners[i];\r\n            require(owner != address(0), \"invalid owner\");\r\n            require(!isOwner[owner], \"owner exists already\");\r\n            \r\n            isOwner[owner] = true;\r\n            owners.push(owner);\r\n        }\r\n    }\r\n    \r\n    modifier onlyOwner() {\r\n        require(isOwner[msg.sender], \"You are not owner!\");\r\n        _;\r\n    }\r\n\r\n    function GetOwners() external view onlyOwner returns(address[] memory)  {\r\n        return owners;\r\n    }\r\n\r\n    function GetUserEvents(address _address) external view returns(uint[] memory) {\r\n        return userEvents[_address];\r\n    }\r\n    \r\n    function CreateEvent(uint _ticketCount, uint _price, bytes32 _date, bytes32 _name, bytes32 _location, bytes32 _description, bool _isActive) external onlyOwner {\r\n        uint id = events.length + 1;\r\n        EventInfo memory _event = EventInfo(id, _ticketCount, _price, _date, _name, _location, _description, _isActive);\r\n        findEvent[id] = _event;\r\n        events.push(_event);\r\n        emit createEvent(msg.sender, id, _ticketCount, _price, _date, _name, _location, _description, _isActive);\r\n    }\r\n    \r\n    function GetEvent(uint id) public view returns(uint, uint, uint, bytes32, bytes32, bytes32, bytes32, bool) {\r\n        EventInfo memory _event = findEvent[id]; \r\n        return (_event.id, _event.ticketCount, _event.price, _event.date, _event.name, _event.location, _event.description, _event.isActive);\r\n    }\r\n\r\n    function GetEvents() external view onlyOwner returns(EventInfo[] memory) {\r\n        return events;\r\n    }\r\n    \r\n    function DeleteEvent(uint id) public onlyOwner{\r\n        require(findEvent[id].isActive, \"Event is deleted already!\");\r\n        findEvent[id].isActive = false;\r\n        emit deleteEvent(msg.sender, id);\r\n    }\r\n    \r\n    function EditEvent(uint id, uint _ticketCount, uint _price, bytes32 _date, bytes32 _name, bytes32 _location, bytes32 _description, bool _isActive) external onlyOwner {\r\n        findEvent[id].ticketCount = _ticketCount;\r\n        findEvent[id].price = _price;\r\n        findEvent[id].date = _date;\r\n        findEvent[id].name = _name;\r\n        findEvent[id].location = _location;\r\n        findEvent[id].description = _description;\r\n        findEvent[id].isActive = _isActive;\r\n        emit editEvent(msg.sender, id);\r\n    }\r\n    \r\n    function BuyTicket(uint id) external payable {\r\n        require(findEvent[id].ticketCount > 0, \"All tickets sold!\");\r\n        require(findEvent[id].price <= msg.value, \"Please check ticket price!\");\r\n        userEvents[msg.sender].push(id);\r\n        findEvent[id].ticketCount--;\r\n        events[id - 1].ticketCount--;\r\n        if (findEvent[id].ticketCount <= 0) {\r\n            findEvent[id].isActive = false;\r\n        }\r\n        emit buyTicket(msg.sender, id);\r\n    }\r\n    \r\n    function Withdraw(address payable _to) public onlyOwner {\r\n        uint balance = address(this).balance;\r\n        _to.transfer(balance);\r\n        emit withdraw(msg.sender, _to);\r\n    }\r\n    \r\n    function AddOwner(address _newOwner) external onlyOwner {\r\n        require(_newOwner != address(0), \"invalid owner\");\r\n        require(!isOwner[_newOwner], \"owner exists already\");\r\n        isOwner[_newOwner] = true;\r\n        owners.push(_newOwner);\r\n        emit addOwner(msg.sender, _newOwner);\r\n    }\r\n    \r\n    function DeleteOwner(address _owner, uint index) external onlyOwner {\r\n        require(_owner != address(0), \"invalid owner\");\r\n        require(isOwner[_owner], \"owner not exists!\");\r\n        isOwner[_owner] = false;\r\n        owners[index] = owners[owners.length - 1];\r\n        owners.pop();\r\n        emit deleteOwner(msg.sender, _owner);\r\n    }\r\n}\r\n",
  "sourcePath": "C:/Users/User/Desktop/Solidity Projects/TicketSite/contracts/Ticket.sol",
  "compiler": {
    "name": "solc",
    "version": "0.8.1+commit.df193b15.Emscripten.clang"
  },
  "schemaVersion": "3.4.1",
  "updatedAt": "2021-08-28T12:00:42.948Z",
  "networkType": "ethereum",
  "devdoc": {
    "kind": "dev",
    "methods": {},
    "version": 1
  },
  "userdoc": {
    "kind": "user",
    "methods": {},
    "version": 1
  }
}