{
  "contractName": "Ticket",
  "abi": [
    {
      "inputs": [
        {
          "internalType": "address[]",
          "name": "_owners",
          "type": "address[]"
        }
      ],
      "stateMutability": "nonpayable",
      "type": "constructor"
    },
    {
      "anonymous": false,
      "inputs": [
        {
          "indexed": true,
          "internalType": "address",
          "name": "sender",
          "type": "address"
        },
        {
          "indexed": true,
          "internalType": "address",
          "name": "newOwner",
          "type": "address"
        }
      ],
      "name": "addOwner",
      "type": "event"
    },
    {
      "anonymous": false,
      "inputs": [
        {
          "indexed": true,
          "internalType": "address",
          "name": "sender",
          "type": "address"
        },
        {
          "indexed": true,
          "internalType": "uint256",
          "name": "id",
          "type": "uint256"
        }
      ],
      "name": "buyTicket",
      "type": "event"
    },
    {
      "anonymous": false,
      "inputs": [
        {
          "indexed": true,
          "internalType": "address",
          "name": "owner",
          "type": "address"
        },
        {
          "indexed": true,
          "internalType": "uint256",
          "name": "id",
          "type": "uint256"
        },
        {
          "indexed": false,
          "internalType": "uint256",
          "name": "_ticketCount",
          "type": "uint256"
        },
        {
          "indexed": false,
          "internalType": "uint256",
          "name": "_price",
          "type": "uint256"
        },
        {
          "indexed": false,
          "internalType": "bytes32",
          "name": "_date",
          "type": "bytes32"
        },
        {
          "indexed": false,
          "internalType": "bytes32",
          "name": "_name",
          "type": "bytes32"
        },
        {
          "indexed": false,
          "internalType": "bytes32",
          "name": "_location",
          "type": "bytes32"
        },
        {
          "indexed": false,
          "internalType": "bytes32",
          "name": "_description",
          "type": "bytes32"
        },
        {
          "indexed": false,
          "internalType": "bool",
          "name": "_isActive",
          "type": "bool"
        }
      ],
      "name": "createEvent",
      "type": "event"
    },
    {
      "anonymous": false,
      "inputs": [
        {
          "indexed": true,
          "internalType": "address",
          "name": "owner",
          "type": "address"
        },
        {
          "indexed": true,
          "internalType": "uint256",
          "name": "id",
          "type": "uint256"
        }
      ],
      "name": "deleteEvent",
      "type": "event"
    },
    {
      "anonymous": false,
      "inputs": [
        {
          "indexed": true,
          "internalType": "address",
          "name": "sender",
          "type": "address"
        },
        {
          "indexed": true,
          "internalType": "address",
          "name": "deletedAddress",
          "type": "address"
        }
      ],
      "name": "deleteOwner",
      "type": "event"
    },
    {
      "anonymous": false,
      "inputs": [
        {
          "indexed": true,
          "internalType": "address",
          "name": "owner",
          "type": "address"
        },
        {
          "indexed": true,
          "internalType": "uint256",
          "name": "id",
          "type": "uint256"
        }
      ],
      "name": "editEvent",
      "type": "event"
    },
    {
      "anonymous": false,
      "inputs": [
        {
          "indexed": true,
          "internalType": "address",
          "name": "_from",
          "type": "address"
        },
        {
          "indexed": true,
          "internalType": "address",
          "name": "_to",
          "type": "address"
        }
      ],
      "name": "withdraw",
      "type": "event"
    },
    {
      "inputs": [
        {
          "internalType": "uint256",
          "name": "",
          "type": "uint256"
        }
      ],
      "name": "events",
      "outputs": [
        {
          "internalType": "uint256",
          "name": "id",
          "type": "uint256"
        },
        {
          "internalType": "uint256",
          "name": "ticketCount",
          "type": "uint256"
        },
        {
          "internalType": "uint256",
          "name": "price",
          "type": "uint256"
        },
        {
          "internalType": "bytes32",
          "name": "date",
          "type": "bytes32"
        },
        {
          "internalType": "bytes32",
          "name": "name",
          "type": "bytes32"
        },
        {
          "internalType": "bytes32",
          "name": "location",
          "type": "bytes32"
        },
        {
          "internalType": "bytes32",
          "name": "description",
          "type": "bytes32"
        },
        {
          "internalType": "bool",
          "name": "isActive",
          "type": "bool"
        }
      ],
      "stateMutability": "view",
      "type": "function",
      "constant": true
    },
    {
      "inputs": [
        {
          "internalType": "uint256",
          "name": "",
          "type": "uint256"
        }
      ],
      "name": "findEvent",
      "outputs": [
        {
          "internalType": "uint256",
          "name": "id",
          "type": "uint256"
        },
        {
          "internalType": "uint256",
          "name": "ticketCount",
          "type": "uint256"
        },
        {
          "internalType": "uint256",
          "name": "price",
          "type": "uint256"
        },
        {
          "internalType": "bytes32",
          "name": "date",
          "type": "bytes32"
        },
        {
          "internalType": "bytes32",
          "name": "name",
          "type": "bytes32"
        },
        {
          "internalType": "bytes32",
          "name": "location",
          "type": "bytes32"
        },
        {
          "internalType": "bytes32",
          "name": "description",
          "type": "bytes32"
        },
        {
          "internalType": "bool",
          "name": "isActive",
          "type": "bool"
        }
      ],
      "stateMutability": "view",
      "type": "function",
      "constant": true
    },
    {
      "inputs": [
        {
          "internalType": "address",
          "name": "",
          "type": "address"
        }
      ],
      "name": "isOwner",
      "outputs": [
        {
          "internalType": "bool",
          "name": "",
          "type": "bool"
        }
      ],
      "stateMutability": "view",
      "type": "function",
      "constant": true
    },
    {
      "inputs": [
        {
          "internalType": "uint256",
          "name": "",
          "type": "uint256"
        }
      ],
      "name": "owners",
      "outputs": [
        {
          "internalType": "address",
          "name": "",
          "type": "address"
        }
      ],
      "stateMutability": "view",
      "type": "function",
      "constant": true
    },
    {
      "inputs": [
        {
          "internalType": "address",
          "name": "",
          "type": "address"
        },
        {
          "internalType": "uint256",
          "name": "",
          "type": "uint256"
        }
      ],
      "name": "userEvents",
      "outputs": [
        {
          "internalType": "uint256",
          "name": "",
          "type": "uint256"
        }
      ],
      "stateMutability": "view",
      "type": "function",
      "constant": true
    },
    {
      "inputs": [],
      "name": "GetOwners",
      "outputs": [
        {
          "internalType": "address[]",
          "name": "",
          "type": "address[]"
        }
      ],
      "stateMutability": "view",
      "type": "function",
      "constant": true
    },
    {
      "inputs": [
        {
          "internalType": "uint256",
          "name": "_ticketCount",
          "type": "uint256"
        },
        {
          "internalType": "uint256",
          "name": "_price",
          "type": "uint256"
        },
        {
          "internalType": "bytes32",
          "name": "_date",
          "type": "bytes32"
        },
        {
          "internalType": "bytes32",
          "name": "_name",
          "type": "bytes32"
        },
        {
          "internalType": "bytes32",
          "name": "_location",
          "type": "bytes32"
        },
        {
          "internalType": "bytes32",
          "name": "_description",
          "type": "bytes32"
        },
        {
          "internalType": "bool",
          "name": "_isActive",
          "type": "bool"
        }
      ],
      "name": "CreateEvent",
      "outputs": [],
      "stateMutability": "nonpayable",
      "type": "function"
    },
    {
      "inputs": [
        {
          "internalType": "uint256",
          "name": "id",
          "type": "uint256"
        }
      ],
      "name": "GetEvent",
      "outputs": [
        {
          "components": [
            {
              "internalType": "uint256",
              "name": "id",
              "type": "uint256"
            },
            {
              "internalType": "uint256",
              "name": "ticketCount",
              "type": "uint256"
            },
            {
              "internalType": "uint256",
              "name": "price",
              "type": "uint256"
            },
            {
              "internalType": "bytes32",
              "name": "date",
              "type": "bytes32"
            },
            {
              "internalType": "bytes32",
              "name": "name",
              "type": "bytes32"
            },
            {
              "internalType": "bytes32",
              "name": "location",
              "type": "bytes32"
            },
            {
              "internalType": "bytes32",
              "name": "description",
              "type": "bytes32"
            },
            {
              "internalType": "bool",
              "name": "isActive",
              "type": "bool"
            }
          ],
          "internalType": "struct Ticket.EventInfo",
          "name": "",
          "type": "tuple"
        }
      ],
      "stateMutability": "view",
      "type": "function",
      "constant": true
    },
    {
      "inputs": [],
      "name": "GetEvents",
      "outputs": [
        {
          "components": [
            {
              "internalType": "uint256",
              "name": "id",
              "type": "uint256"
            },
            {
              "internalType": "uint256",
              "name": "ticketCount",
              "type": "uint256"
            },
            {
              "internalType": "uint256",
              "name": "price",
              "type": "uint256"
            },
            {
              "internalType": "bytes32",
              "name": "date",
              "type": "bytes32"
            },
            {
              "internalType": "bytes32",
              "name": "name",
              "type": "bytes32"
            },
            {
              "internalType": "bytes32",
              "name": "location",
              "type": "bytes32"
            },
            {
              "internalType": "bytes32",
              "name": "description",
              "type": "bytes32"
            },
            {
              "internalType": "bool",
              "name": "isActive",
              "type": "bool"
            }
          ],
          "internalType": "struct Ticket.EventInfo[]",
          "name": "",
          "type": "tuple[]"
        }
      ],
      "stateMutability": "view",
      "type": "function",
      "constant": true
    },
    {
      "inputs": [
        {
          "internalType": "uint256",
          "name": "id",
          "type": "uint256"
        }
      ],
      "name": "DeleteEvent",
      "outputs": [],
      "stateMutability": "nonpayable",
      "type": "function"
    },
    {
      "inputs": [
        {
          "internalType": "uint256",
          "name": "id",
          "type": "uint256"
        },
        {
          "internalType": "uint256",
          "name": "_ticketCount",
          "type": "uint256"
        },
        {
          "internalType": "uint256",
          "name": "_price",
          "type": "uint256"
        },
        {
          "internalType": "bytes32",
          "name": "_date",
          "type": "bytes32"
        },
        {
          "internalType": "bytes32",
          "name": "_name",
          "type": "bytes32"
        },
        {
          "internalType": "bytes32",
          "name": "_location",
          "type": "bytes32"
        },
        {
          "internalType": "bytes32",
          "name": "_description",
          "type": "bytes32"
        },
        {
          "internalType": "bool",
          "name": "_isActive",
          "type": "bool"
        }
      ],
      "name": "EditEvent",
      "outputs": [],
      "stateMutability": "nonpayable",
      "type": "function"
    },
    {
      "inputs": [
        {
          "internalType": "uint256",
          "name": "id",
          "type": "uint256"
        }
      ],
      "name": "BuyTicket",
      "outputs": [],
      "stateMutability": "payable",
      "type": "function",
      "payable": true
    },
    {
      "inputs": [
        {
          "internalType": "address payable",
          "name": "_to",
          "type": "address"
        }
      ],
      "name": "Withdraw",
      "outputs": [],
      "stateMutability": "nonpayable",
      "type": "function"
    },
    {
      "inputs": [
        {
          "internalType": "address",
          "name": "_newOwner",
          "type": "address"
        }
      ],
      "name": "AddOwner",
      "outputs": [],
      "stateMutability": "nonpayable",
      "type": "function"
    },
    {
      "inputs": [
        {
          "internalType": "address",
          "name": "_owner",
          "type": "address"
        },
        {
          "internalType": "uint256",
          "name": "index",
          "type": "uint256"
        }
      ],
      "name": "DeleteOwner",
      "outputs": [],
      "stateMutability": "nonpayable",
      "type": "function"
    }
  ],
  "bytecode": "0x60806040523480156200001157600080fd5b506040516200295f3803806200295f833981810160405281019062000037919062000320565b60005b81518110156200025f57600082828151811062000080577f4e487b7100000000000000000000000000000000000000000000000000000000600052603260045260246000fd5b60200260200101519050600073ffffffffffffffffffffffffffffffffffffffff168173ffffffffffffffffffffffffffffffffffffffff161415620000fd576040517f08c379a0000000000000000000000000000000000000000000000000000000008152600401620000f490620003b3565b60405180910390fd5b600260008273ffffffffffffffffffffffffffffffffffffffff1673ffffffffffffffffffffffffffffffffffffffff16815260200190815260200160002060009054906101000a900460ff16156200018d576040517f08c379a00000000000000000000000000000000000000000000000000000000081526004016200018490620003d5565b60405180910390fd5b6001600260008373ffffffffffffffffffffffffffffffffffffffff1673ffffffffffffffffffffffffffffffffffffffff16815260200190815260200160002060006101000a81548160ff0219169083151502179055506000819080600181540180825580915050600190039060005260206000200160009091909190916101000a81548173ffffffffffffffffffffffffffffffffffffffff021916908373ffffffffffffffffffffffffffffffffffffffff1602179055505080806200025690620004d4565b9150506200003a565b5050620005fd565b60006200027e620002788462000420565b620003f7565b905080838252602082019050828560208602820111156200029e57600080fd5b60005b85811015620002d25781620002b78882620002dc565b845260208401935060208301925050600181019050620002a1565b5050509392505050565b600081519050620002ed81620005e3565b92915050565b600082601f8301126200030557600080fd5b81516200031784826020860162000267565b91505092915050565b6000602082840312156200033357600080fd5b600082015167ffffffffffffffff8111156200034e57600080fd5b6200035c84828501620002f3565b91505092915050565b600062000374600d836200044f565b9150620003818262000591565b602082019050919050565b60006200039b6014836200044f565b9150620003a882620005ba565b602082019050919050565b60006020820190508181036000830152620003ce8162000365565b9050919050565b60006020820190508181036000830152620003f0816200038c565b9050919050565b60006200040362000416565b90506200041182826200049e565b919050565b6000604051905090565b600067ffffffffffffffff8211156200043e576200043d62000551565b5b602082029050602081019050919050565b600082825260208201905092915050565b60006200046d8262000474565b9050919050565b600073ffffffffffffffffffffffffffffffffffffffff82169050919050565b6000819050919050565b620004a98262000580565b810181811067ffffffffffffffff82111715620004cb57620004ca62000551565b5b80604052505050565b6000620004e18262000494565b91507fffffffffffffffffffffffffffffffffffffffffffffffffffffffffffffffff82141562000517576200051662000522565b5b600182019050919050565b7f4e487b7100000000000000000000000000000000000000000000000000000000600052601160045260246000fd5b7f4e487b7100000000000000000000000000000000000000000000000000000000600052604160045260246000fd5b6000601f19601f8301169050919050565b7f696e76616c6964206f776e657200000000000000000000000000000000000000600082015250565b7f6f776e65722065786973747320616c7265616479000000000000000000000000600082015250565b620005ee8162000460565b8114620005fa57600080fd5b50565b612352806200060d6000396000f3fe6080604052600436106100e85760003560e01c8063938af8981161008a578063bdfc989311610059578063bdfc989314610305578063cceb67e314610342578063e3bf21441461037f578063f6761151146103a8576100e8565b8063938af89814610242578063ac1e9ef41461026d578063ad16c2fb14610296578063bbd8bc62146102da576100e8565b80632f54bf6e116100c65780632f54bf6e1461019757806348c8ba26146101d457806376acb5e8146101fd5780637795f31814610219576100e8565b8063025e7c27146100ed5780630b7914301461012a578063236adf581461016e575b600080fd5b3480156100f957600080fd5b50610114600480360381019061010f919061182b565b6103d1565b6040516101219190611d42565b60405180910390f35b34801561013657600080fd5b50610151600480360381019061014c919061182b565b610410565b604051610165989796959493929190611f42565b60405180910390f35b34801561017a57600080fd5b50610195600480360381019061019091906118f2565b610475565b005b3480156101a357600080fd5b506101be60048036038101906101b9919061179d565b61061f565b6040516101cb9190611da1565b60405180910390f35b3480156101e057600080fd5b506101fb60048036038101906101f6919061182b565b61063f565b005b6102176004803603810190610212919061182b565b6107a4565b005b34801561022557600080fd5b50610240600480360381019061023b9190611854565b610993565b005b34801561024e57600080fd5b50610257610beb565b6040516102649190611d5d565b60405180910390f35b34801561027957600080fd5b50610294600480360381019061028f919061179d565b610d05565b005b3480156102a257600080fd5b506102bd60048036038101906102b8919061182b565b610fa6565b6040516102d1989796959493929190611f42565b60405180910390f35b3480156102e657600080fd5b506102ef610ffb565b6040516102fc9190611d7f565b60405180910390f35b34801561031157600080fd5b5061032c600480360381019061032791906117ef565b611148565b6040516103399190611eb8565b60405180910390f35b34801561034e57600080fd5b506103696004803603810190610364919061182b565b611179565b6040516103769190611e9c565b60405180910390f35b34801561038b57600080fd5b506103a660048036038101906103a191906117ef565b611208565b005b3480156103b457600080fd5b506103cf60048036038101906103ca91906117c6565b6115ab565b005b600081815481106103e157600080fd5b906000526020600020016000915054906101000a900473ffffffffffffffffffffffffffffffffffffffff1681565b6001818154811061042057600080fd5b90600052602060002090600802016000915090508060000154908060010154908060020154908060030154908060040154908060050154908060060154908060070160009054906101000a900460ff16905088565b600260003373ffffffffffffffffffffffffffffffffffffffff1673ffffffffffffffffffffffffffffffffffffffff16815260200190815260200160002060009054906101000a900460ff16610501576040517f08c379a00000000000000000000000000000000000000000000000000000000081526004016104f890611e7c565b60405180910390fd5b86600360008a81526020019081526020016000206001018190555085600360008a81526020019081526020016000206002018190555084600360008a81526020019081526020016000206003018190555083600360008a81526020019081526020016000206004018190555082600360008a81526020019081526020016000206005018190555081600360008a81526020019081526020016000206006018190555080600360008a815260200190815260200160002060070160006101000a81548160ff021916908315150217905550873373ffffffffffffffffffffffffffffffffffffffff167fd753a37b2c8dddd96ff531876ed175cc6e8ea9b3c7e5ded022ed1f4920af2ae960405160405180910390a35050505050505050565b60026020528060005260406000206000915054906101000a900460ff1681565b600260003373ffffffffffffffffffffffffffffffffffffffff1673ffffffffffffffffffffffffffffffffffffffff16815260200190815260200160002060009054906101000a900460ff166106cb576040517f08c379a00000000000000000000000000000000000000000000000000000000081526004016106c290611e7c565b60405180910390fd5b6003600082815260200190815260200160002060070160009054906101000a900460ff1661072e576040517f08c379a000000000000000000000000000000000000000000000000000000000815260040161072590611dbc565b60405180910390fd5b60006003600083815260200190815260200160002060070160006101000a81548160ff021916908315150217905550803373ffffffffffffffffffffffffffffffffffffffff167f9f75cf47ba8d14010ea5f2eda156fd87978dcf97d56ce98c4a27a3629027341f60405160405180910390a350565b60006003600083815260200190815260200160002060010154116107fd576040517f08c379a00000000000000000000000000000000000000000000000000000000081526004016107f490611e5c565b60405180910390fd5b3460036000838152602001908152602001600020600201541115610856576040517f08c379a000000000000000000000000000000000000000000000000000000000815260040161084d90611ddc565b60405180910390fd5b600460003373ffffffffffffffffffffffffffffffffffffffff1673ffffffffffffffffffffffffffffffffffffffff168152602001908152602001600020600360008381526020019081526020016000206000015490806001815401808255809150506001900390600052602060002001600090919091909150556003600082815260200190815260200160002060010160008154809291906108f990612131565b9190505550600060036000838152602001908152602001600020600101541161094c5760006003600083815260200190815260200160002060070160006101000a81548160ff0219169083151502179055505b803373ffffffffffffffffffffffffffffffffffffffff167f66a5ef2f642955d6f2287037a21d7c8b5af2b7a5a4ea4276577f4991da3749b360405160405180910390a350565b600260003373ffffffffffffffffffffffffffffffffffffffff1673ffffffffffffffffffffffffffffffffffffffff16815260200190815260200160002060009054906101000a900460ff16610a1f576040517f08c379a0000000000000000000000000000000000000000000000000000000008152600401610a1690611e7c565b60405180910390fd5b600060018080549050610a329190612043565b905060006040518061010001604052808381526020018a815260200189815260200188815260200187815260200186815260200185815260200184151581525090508060036000848152602001908152602001600020600082015181600001556020820151816001015560408201518160020155606082015181600301556080820151816004015560a0820151816005015560c0820151816006015560e08201518160070160006101000a81548160ff0219169083151502179055509050506001819080600181540180825580915050600190039060005260206000209060080201600090919091909150600082015181600001556020820151816001015560408201518160020155606082015181600301556080820151816004015560a0820151816005015560c0820151816006015560e08201518160070160006101000a81548160ff0219169083151502179055505050813373ffffffffffffffffffffffffffffffffffffffff167fbaa21be49fc515fed662d6af0d2101d60d42ebaceee7916022c7e15b5b0192348b8b8b8b8b8b8b604051610bd89796959493929190611ed3565b60405180910390a3505050505050505050565b6060600260003373ffffffffffffffffffffffffffffffffffffffff1673ffffffffffffffffffffffffffffffffffffffff16815260200190815260200160002060009054906101000a900460ff16610c79576040517f08c379a0000000000000000000000000000000000000000000000000000000008152600401610c7090611e7c565b60405180910390fd5b6000805480602002602001604051908101604052809291908181526020018280548015610cfb57602002820191906000526020600020905b8160009054906101000a900473ffffffffffffffffffffffffffffffffffffffff1673ffffffffffffffffffffffffffffffffffffffff1681526020019060010190808311610cb1575b5050505050905090565b600260003373ffffffffffffffffffffffffffffffffffffffff1673ffffffffffffffffffffffffffffffffffffffff16815260200190815260200160002060009054906101000a900460ff16610d91576040517f08c379a0000000000000000000000000000000000000000000000000000000008152600401610d8890611e7c565b60405180910390fd5b600073ffffffffffffffffffffffffffffffffffffffff168173ffffffffffffffffffffffffffffffffffffffff161415610e01576040517f08c379a0000000000000000000000000000000000000000000000000000000008152600401610df890611dfc565b60405180910390fd5b600260008273ffffffffffffffffffffffffffffffffffffffff1673ffffffffffffffffffffffffffffffffffffffff16815260200190815260200160002060009054906101000a900460ff1615610e8e576040517f08c379a0000000000000000000000000000000000000000000000000000000008152600401610e8590611e1c565b60405180910390fd5b6001600260008373ffffffffffffffffffffffffffffffffffffffff1673ffffffffffffffffffffffffffffffffffffffff16815260200190815260200160002060006101000a81548160ff0219169083151502179055506000819080600181540180825580915050600190039060005260206000200160009091909190916101000a81548173ffffffffffffffffffffffffffffffffffffffff021916908373ffffffffffffffffffffffffffffffffffffffff1602179055508073ffffffffffffffffffffffffffffffffffffffff163373ffffffffffffffffffffffffffffffffffffffff167f16d390bfcd7f768e993e75948075b6927bc51a6ed5ba13ca1289f63cb8149e0860405160405180910390a350565b60036020528060005260406000206000915090508060000154908060010154908060020154908060030154908060040154908060050154908060060154908060070160009054906101000a900460ff16905088565b6060600260003373ffffffffffffffffffffffffffffffffffffffff1673ffffffffffffffffffffffffffffffffffffffff16815260200190815260200160002060009054906101000a900460ff16611089576040517f08c379a000000000000000000000000000000000000000000000000000000000815260040161108090611e7c565b60405180910390fd5b6001805480602002602001604051908101604052809291908181526020016000905b8282101561113f578382906000526020600020906008020160405180610100016040529081600082015481526020016001820154815260200160028201548152602001600382015481526020016004820154815260200160058201548152602001600682015481526020016007820160009054906101000a900460ff161515151581525050815260200190600101906110ab565b50505050905090565b6004602052816000526040600020818154811061116457600080fd5b90600052602060002001600091509150505481565b6111816116e1565b6003600083815260200190815260200160002060405180610100016040529081600082015481526020016001820154815260200160028201548152602001600382015481526020016004820154815260200160058201548152602001600682015481526020016007820160009054906101000a900460ff1615151515815250509050919050565b600260003373ffffffffffffffffffffffffffffffffffffffff1673ffffffffffffffffffffffffffffffffffffffff16815260200190815260200160002060009054906101000a900460ff16611294576040517f08c379a000000000000000000000000000000000000000000000000000000000815260040161128b90611e7c565b60405180910390fd5b600073ffffffffffffffffffffffffffffffffffffffff168273ffffffffffffffffffffffffffffffffffffffff161415611304576040517f08c379a00000000000000000000000000000000000000000000000000000000081526004016112fb90611dfc565b60405180910390fd5b600260008373ffffffffffffffffffffffffffffffffffffffff1673ffffffffffffffffffffffffffffffffffffffff16815260200190815260200160002060009054906101000a900460ff16611390576040517f08c379a000000000000000000000000000000000000000000000000000000000815260040161138790611e3c565b60405180910390fd5b6000600260008473ffffffffffffffffffffffffffffffffffffffff1673ffffffffffffffffffffffffffffffffffffffff16815260200190815260200160002060006101000a81548160ff021916908315150217905550600060016000805490506113fc9190612099565b81548110611433577f4e487b7100000000000000000000000000000000000000000000000000000000600052603260045260246000fd5b9060005260206000200160009054906101000a900473ffffffffffffffffffffffffffffffffffffffff1660008281548110611498577f4e487b7100000000000000000000000000000000000000000000000000000000600052603260045260246000fd5b9060005260206000200160006101000a81548173ffffffffffffffffffffffffffffffffffffffff021916908373ffffffffffffffffffffffffffffffffffffffff1602179055506000805480611518577f4e487b7100000000000000000000000000000000000000000000000000000000600052603160045260246000fd5b6001900381819060005260206000200160006101000a81549073ffffffffffffffffffffffffffffffffffffffff021916905590558173ffffffffffffffffffffffffffffffffffffffff163373ffffffffffffffffffffffffffffffffffffffff167faa2f779dd42ed572be732a547777489345cbcfa6ced22183c0d33b3fbedefebc60405160405180910390a35050565b600260003373ffffffffffffffffffffffffffffffffffffffff1673ffffffffffffffffffffffffffffffffffffffff16815260200190815260200160002060009054906101000a900460ff16611637576040517f08c379a000000000000000000000000000000000000000000000000000000000815260040161162e90611e7c565b60405180910390fd5b60004790508173ffffffffffffffffffffffffffffffffffffffff166108fc829081150290604051600060405180830381858888f19350505050158015611682573d6000803e3d6000fd5b508173ffffffffffffffffffffffffffffffffffffffff163373ffffffffffffffffffffffffffffffffffffffff167ff940e3851549e5c2062f065152e2151c57f5902a4d0de0f053e7f80205e4aabf60405160405180910390a35050565b604051806101000160405280600081526020016000815260200160008152602001600080191681526020016000801916815260200160008019168152602001600080191681526020016000151581525090565b600081359050611743816122a9565b92915050565b600081359050611758816122c0565b92915050565b60008135905061176d816122d7565b92915050565b600081359050611782816122ee565b92915050565b60008135905061179781612305565b92915050565b6000602082840312156117af57600080fd5b60006117bd84828501611734565b91505092915050565b6000602082840312156117d857600080fd5b60006117e684828501611749565b91505092915050565b6000806040838503121561180257600080fd5b600061181085828601611734565b925050602061182185828601611788565b9150509250929050565b60006020828403121561183d57600080fd5b600061184b84828501611788565b91505092915050565b600080600080600080600060e0888a03121561186f57600080fd5b600061187d8a828b01611788565b975050602061188e8a828b01611788565b965050604061189f8a828b01611773565b95505060606118b08a828b01611773565b94505060806118c18a828b01611773565b93505060a06118d28a828b01611773565b92505060c06118e38a828b0161175e565b91505092959891949750929550565b600080600080600080600080610100898b03121561190f57600080fd5b600061191d8b828c01611788565b985050602061192e8b828c01611788565b975050604061193f8b828c01611788565b96505060606119508b828c01611773565b95505060806119618b828c01611773565b94505060a06119728b828c01611773565b93505060c06119838b828c01611773565b92505060e06119948b828c0161175e565b9150509295985092959890939650565b60006119b083836119d5565b60208301905092915050565b60006119c88383611be0565b6101008301905092915050565b6119de816120cd565b82525050565b6119ed816120cd565b82525050565b60006119fe82611fe0565b611a088185612010565b9350611a1383611fc0565b8060005b83811015611a44578151611a2b88826119a4565b9750611a3683611ff6565b925050600181019050611a17565b5085935050505092915050565b6000611a5c82611feb565b611a668185612021565b9350611a7183611fd0565b8060005b83811015611aa2578151611a8988826119bc565b9750611a9483612003565b925050600181019050611a75565b5085935050505092915050565b611ab8816120f1565b82525050565b611ac7816120f1565b82525050565b611ad6816120fd565b82525050565b611ae5816120fd565b82525050565b6000611af8601983612032565b9150611b038261218a565b602082019050919050565b6000611b1b601a83612032565b9150611b26826121b3565b602082019050919050565b6000611b3e600d83612032565b9150611b49826121dc565b602082019050919050565b6000611b61601483612032565b9150611b6c82612205565b602082019050919050565b6000611b84601183612032565b9150611b8f8261222e565b602082019050919050565b6000611ba7601183612032565b9150611bb282612257565b602082019050919050565b6000611bca601283612032565b9150611bd582612280565b602082019050919050565b61010082016000820151611bf76000850182611d24565b506020820151611c0a6020850182611d24565b506040820151611c1d6040850182611d24565b506060820151611c306060850182611acd565b506080820151611c436080850182611acd565b5060a0820151611c5660a0850182611acd565b5060c0820151611c6960c0850182611acd565b5060e0820151611c7c60e0850182611aaf565b50505050565b61010082016000820151611c996000850182611d24565b506020820151611cac6020850182611d24565b506040820151611cbf6040850182611d24565b506060820151611cd26060850182611acd565b506080820151611ce56080850182611acd565b5060a0820151611cf860a0850182611acd565b5060c0820151611d0b60c0850182611acd565b5060e0820151611d1e60e0850182611aaf565b50505050565b611d2d81612127565b82525050565b611d3c81612127565b82525050565b6000602082019050611d5760008301846119e4565b92915050565b60006020820190508181036000830152611d7781846119f3565b905092915050565b60006020820190508181036000830152611d998184611a51565b905092915050565b6000602082019050611db66000830184611abe565b92915050565b60006020820190508181036000830152611dd581611aeb565b9050919050565b60006020820190508181036000830152611df581611b0e565b9050919050565b60006020820190508181036000830152611e1581611b31565b9050919050565b60006020820190508181036000830152611e3581611b54565b9050919050565b60006020820190508181036000830152611e5581611b77565b9050919050565b60006020820190508181036000830152611e7581611b9a565b9050919050565b60006020820190508181036000830152611e9581611bbd565b9050919050565b600061010082019050611eb26000830184611c82565b92915050565b6000602082019050611ecd6000830184611d33565b92915050565b600060e082019050611ee8600083018a611d33565b611ef56020830189611d33565b611f026040830188611adc565b611f0f6060830187611adc565b611f1c6080830186611adc565b611f2960a0830185611adc565b611f3660c0830184611abe565b98975050505050505050565b600061010082019050611f58600083018b611d33565b611f65602083018a611d33565b611f726040830189611d33565b611f7f6060830188611adc565b611f8c6080830187611adc565b611f9960a0830186611adc565b611fa660c0830185611adc565b611fb360e0830184611abe565b9998505050505050505050565b6000819050602082019050919050565b6000819050602082019050919050565b600081519050919050565b600081519050919050565b6000602082019050919050565b6000602082019050919050565b600082825260208201905092915050565b600082825260208201905092915050565b600082825260208201905092915050565b600061204e82612127565b915061205983612127565b9250827fffffffffffffffffffffffffffffffffffffffffffffffffffffffffffffffff0382111561208e5761208d61215b565b5b828201905092915050565b60006120a482612127565b91506120af83612127565b9250828210156120c2576120c161215b565b5b828203905092915050565b60006120d882612107565b9050919050565b60006120ea82612107565b9050919050565b60008115159050919050565b6000819050919050565b600073ffffffffffffffffffffffffffffffffffffffff82169050919050565b6000819050919050565b600061213c82612127565b915060008214156121505761214f61215b565b5b600182039050919050565b7f4e487b7100000000000000000000000000000000000000000000000000000000600052601160045260246000fd5b7f4576656e742069732064656c6574656420616c72656164792100000000000000600082015250565b7f506c6561736520636865636b207469636b657420707269636521000000000000600082015250565b7f696e76616c6964206f776e657200000000000000000000000000000000000000600082015250565b7f6f776e65722065786973747320616c7265616479000000000000000000000000600082015250565b7f6f776e6572206e6f742065786973747321000000000000000000000000000000600082015250565b7f416c6c207469636b65747320736f6c6421000000000000000000000000000000600082015250565b7f596f7520617265206e6f74206f776e6572210000000000000000000000000000600082015250565b6122b2816120cd565b81146122bd57600080fd5b50565b6122c9816120df565b81146122d457600080fd5b50565b6122e0816120f1565b81146122eb57600080fd5b50565b6122f7816120fd565b811461230257600080fd5b50565b61230e81612127565b811461231957600080fd5b5056fea26469706673582212207d2a81266daf479b6063378df5e5624963b4aa6175e005ca9d05e4b52f74b28164736f6c63430008010033",
  "immutableReferences": {},
  "source": "// SPDX-License-Identifier: MIT\r\npragma solidity ^0.8.1;\r\n\r\ncontract Ticket {\r\n    struct EventInfo {\r\n        uint id;\r\n        uint ticketCount;\r\n        uint price;\r\n        bytes32 date;\r\n        bytes32 name;\r\n        bytes32 location;\r\n        bytes32 description;\r\n        bool isActive;\r\n    }\r\n    \r\n    address[] public owners;\r\n    EventInfo[] public events;\r\n    mapping(address => bool) public isOwner;\r\n    mapping(uint => EventInfo) public findEvent;\r\n    mapping(address => uint[]) public userEvents;\r\n    \r\n    event createEvent(address indexed owner, uint indexed id, uint _ticketCount, uint _price, bytes32 _date, bytes32 _name, bytes32 _location, bytes32 _description, bool _isActive);\r\n    event deleteEvent(address indexed owner, uint indexed id);\r\n    event editEvent(address indexed owner, uint indexed id);\r\n    event buyTicket(address indexed sender, uint indexed id);\r\n    event withdraw(address indexed _from, address indexed _to);\r\n    event addOwner(address indexed sender, address indexed newOwner);\r\n    event deleteOwner(address indexed sender, address indexed deletedAddress);\r\n    \r\n    constructor(address[] memory _owners) {\r\n        for(uint i = 0; i < _owners.length; i++) {\r\n            address owner = _owners[i];\r\n            require(owner != address(0), \"invalid owner\");\r\n            require(!isOwner[owner], \"owner exists already\");\r\n            \r\n            isOwner[owner] = true;\r\n            owners.push(owner);\r\n        }\r\n    }\r\n    \r\n    modifier onlyOwner() {\r\n        require(isOwner[msg.sender], \"You are not owner!\");\r\n        _;\r\n    }\r\n\r\n    function GetOwners() external view onlyOwner returns(address[] memory)  {\r\n        return owners;\r\n    } \r\n    \r\n    function CreateEvent(uint _ticketCount, uint _price, bytes32 _date, bytes32 _name, bytes32 _location, bytes32 _description, bool _isActive) external onlyOwner {\r\n        uint id = events.length + 1;\r\n        EventInfo memory _event = EventInfo(id, _ticketCount, _price, _date, _name, _location, _description, _isActive);\r\n        findEvent[id] = _event;\r\n        events.push(_event);\r\n        emit createEvent(msg.sender, id, _ticketCount, _price, _date, _name, _location, _description, _isActive);\r\n    }\r\n    \r\n    function GetEvent(uint id) public view returns(EventInfo memory) {\r\n        return findEvent[id];\r\n    }\r\n\r\n    function GetEvents() external view onlyOwner returns(EventInfo[] memory) {\r\n        return events;\r\n    }\r\n    \r\n    function DeleteEvent(uint id) public onlyOwner{\r\n        require(findEvent[id].isActive, \"Event is deleted already!\");\r\n        findEvent[id].isActive = false;\r\n        emit deleteEvent(msg.sender, id);\r\n    }\r\n    \r\n    function EditEvent(uint id, uint _ticketCount, uint _price, bytes32 _date, bytes32 _name, bytes32 _location, bytes32 _description, bool _isActive) external onlyOwner {\r\n        findEvent[id].ticketCount = _ticketCount;\r\n        findEvent[id].price = _price;\r\n        findEvent[id].date = _date;\r\n        findEvent[id].name = _name;\r\n        findEvent[id].location = _location;\r\n        findEvent[id].description = _description;\r\n        findEvent[id].isActive = _isActive;\r\n        emit editEvent(msg.sender, id);\r\n    }\r\n    \r\n    function BuyTicket(uint id) external payable {\r\n        require(findEvent[id].ticketCount > 0, \"All tickets sold!\");\r\n        require(findEvent[id].price <= msg.value, \"Please check ticket price!\");\r\n        userEvents[msg.sender].push(findEvent[id].id);\r\n        findEvent[id].ticketCount--;\r\n        if (findEvent[id].ticketCount <= 0) {\r\n            findEvent[id].isActive = false;\r\n        }\r\n        emit buyTicket(msg.sender, id);\r\n    }\r\n    \r\n    function Withdraw(address payable _to) public onlyOwner {\r\n        uint balance = address(this).balance;\r\n        _to.transfer(balance);\r\n        emit withdraw(msg.sender, _to);\r\n    }\r\n    \r\n    function AddOwner(address _newOwner) external onlyOwner {\r\n        require(_newOwner != address(0), \"invalid owner\");\r\n        require(!isOwner[_newOwner], \"owner exists already\");\r\n        isOwner[_newOwner] = true;\r\n        owners.push(_newOwner);\r\n        emit addOwner(msg.sender, _newOwner);\r\n    }\r\n    \r\n    function DeleteOwner(address _owner, uint index) external onlyOwner {\r\n        require(_owner != address(0), \"invalid owner\");\r\n        require(isOwner[_owner], \"owner not exists!\");\r\n        isOwner[_owner] = false;\r\n        owners[index] = owners[owners.length - 1];\r\n        owners.pop();\r\n        emit deleteOwner(msg.sender, _owner);\r\n    }\r\n}\r\n",
  "sourcePath": "C:/Users/User/Desktop/Solidity Projects/TicketSite/contracts/Ticket.sol",
  "compiler": {
    "name": "solc",
    "version": "0.8.1+commit.df193b15.Emscripten.clang"
  },
  "schemaVersion": "3.4.1",
  "updatedAt": "2021-08-17T12:40:10.360Z",
  "networkType": "ethereum",
  "devdoc": {
    "kind": "dev",
    "methods": {},
    "version": 1
  },
  "userdoc": {
    "kind": "user",
    "methods": {},
    "version": 1
  }
}